S02B0000433A2F55736572732F6162736F6D2F4F6E6544726976652F4465736B746F702F534352432046696CEC
S315080000000004002069210008ED6A0508ED6A050864
S31508000010ED6A0508ED6A0508ED6A0508ED6A050842
S31508000020ED6A0508ED6A0508ED6A0508D92D070881
S31508000030ED6A0508ED6A05087D2D0708F9540708D5
S31508000040ED6A0508ED6A0508ED6A0508ED6A050812
S31508000050ED6A0508ED6A0508ED6A0508ED6A050802
S31508000060ED6A0508ED6A0508ED6A0508ED6A0508F2
S31508000070ED6A0508FDBE0108EDBE0108ED6A050832
S31508000080ED6A0508ED6A0508ED6A0508ED6A0508D2
S31508000090ED6A0508ED6A0508ED6A0508ED6A0508C2
S315080000A0ED6A0508ED6A0508ED6A0508ED6A0508B2
S315080000B0A92C0008ED6A0508ED6A0508ED6A050829
S315080000C07D28000855280008ED6A0508ED6A050828
S315080000D0F54C0208AD560208AD400608A9400608C8
S315080000E09D4D0208C3400608B14006087D56020821
S315080000F0B54006081157020801580208ED6A0508B6
S31508000100ED6A0508ED6A0508ED6A0508ED6A050851
S31508000110ED6A0508ED6A0508ED6A0508ED6A050841
S31508000120ED6A0508ED6A0508ED6A0508ED6A050831
S31508000130ED6A0508ED6A0508ED6A0508ED6A050821
S31508000140ED6A0508ED6A0508ED6A0508ED6A050811
S31508000150ED6A0508ED6A0508ED6A0508ED6A050801
S31508000160ED6A0508ED6A05081D730108ED6A0508BC
S31508000170ED6A05086F640708553402089D400608AD
S31508000180A3400608ED6A0508ED6A0508ED6A050844
S31508000190ED6A0508ED6A0508ED6A0508ED6A0508C1
S30D080001A0C7400608ED6A0508D0
S315080001A8194A5AB3194BDB6913F0040F29D110B44D
S315080001B80AE003EA00048C4210D0013AB2B1134BA4
S315080001C8DB6913F0040F14D110F0010FF1D1104CAC
S315080001D81C40002CEDD06FF001000CE00C4A1A40C8
S315080001E80AB9002007E06FF0010004E06FF002008A
S315080001F801E04FF0FF305DF8044B70476FF00200DE
S3150800020870474FF0FF3070478096980000000350FB
S31508000218020001000D4BDB6913F4803F12D170B55B
S315080002280A4B03F580560124F46003F500552C643F
S315080002384FF480721A6100212046FFF7B1FF346433
S31508000248EC6070BD6FF00100704700BF00000350F6
S3150800025838B50446C0F30C03FBB9154B4FF4803286
S315080002689A6603F51C33DD69154041F67132DA637F
S3150800027803F580520121D1605C6102221A610021CE
S315080002882120FFF78DFF70B10A4B0122DA601DB1F4
S31508000298A3F500530022DA6338BD4FF408710648FF
S315080002A800F096F8D9E700212120FFF779FFEBE758
S315080002B80090005000200350A46C070838B51A4B64
S315080002C85861DB6913F0040F2AD10C4654F8041B4D
S315080002D8154B9961151F06E0214651F8042B124B58
S315080002E89A61043D0C465DB108210846FFF758FF98
S315080002F803460028F0D00C4A04211161184638BD77
S31508000308094B04221A6100212120FFF749FF0346F9
S315080003180028F3D100212120FFF742FF0346EDE725
S315080003284FF0FF33EAE700BF000003502DE9F0411C
S315080003380F461646054610F0030F14D116F0030F9C
S3150800034817D1204B4FF480329A6603F51C33DA69C5
S3150800035802F4803841F67132DA6303F580530122D4
S31508000368DA6000230EE04FF41B71174800F030F8E6
S31508000378E4E740F26E21144800F02AF8E1E725443C
S315080003882744361B8EB105F5005424F4FF5424F08F
S315080003981F04641BB44228BF3446224639462846F9
S315080003A8FFF78CFF03460028E9D0084A0121D160E7
S315080003B8B8F1000F03D0A2F500520021D163184600
S315080003C8BDE8F08100900050A46C0708002003508F
S30D080003D85FF800F0036B05084D
S31508000400013800D0FCE770472DE9F04F2DED028B3F
S3150800041093B082460C4693461D4657EC106B8DEDFD
S31508000420080B32463B46304639461CF093F90028FD
S3150800043000F009814FF0FF32B14B304639461CF0C7
S31508000440B1F9002840F0FF804FF0FF326FF48013B7
S31508000450304639461CF088F9002840F0F48000221E
S315080004600023DDE90867304639461CF07DF9002887
S3150800047040F0FC809DED087B8DED067B209B13F4F8
S315080004808063119301D106231E93DDE90601024616
S31508000490C1F30A50C1F31303904643F07F5949F458
S315080004A04019A0F2FF301BF083FE83A3D3E9002393
S315080004B01BF0E8FE82A3D3E900231BF02DFD0646B8
S315080004C00F4600228F4B404649461BF023FD7EA36C
S315080004D0D3E900231BF0D6FE02460B4630463946C2
S315080004E01BF01AFD1CF068F906461BF061FE8046F3
S315080004F0894677A3D3E900231BF0C4FE0022824B6A
S315080005001BF00AFD1CF058F9074673A3D3E900232C
S31508000510404649461BF0B6FE8046894638461BF0DB
S3150800052047FE6FA3D3E900231BF0ACFE02460B4639
S31508000530404649461BF0EEFC8046894602460B4675
S315080005401BF0A0FECDE90C0107F2FF3700210022BF
S31508000550CDE90A123B050B9300230A9342464B4604
S31508000560404649461BF0D8FCCDE90E0142464B46AB
S3150800057000204FF080411BF0CDFC804689460022C2
S31508000580624BDDE90C011BF0A7FF0022604B1BF054
S31508000590C3FC02460B46DDE90C011BF09DFF002259
S315080005A05C4B1BF0B9FC02460B46DDE90C011BF05F
S315080005B093FF02460B46404649461BF0ADFC0246F1
S315080005C00B46DDE90E011BF087FF0022524B1BF09C
S315080005D0A3FCDDE90A231BF055FE8046894649EC53
S315080005E0188BDDE906231CF0DDF840B1013E002238
S315080005F0474B404649461BF06FFF41EC180B06F186
S315080006006303C62B3BD80427209B13F4006F40D006
S3150800061035A3D3E90023DDE90689404649461CF09F
S31508000620B7F800283BD032A3D3E900234046494611
S315080006301CF09AF8002832D01E9BB34221DD9E1B7F
S31508000640731E1E931FE0209B02931F9B01931E9B04
S3150800065000939DED080B2B465A462146504600F05E
S31508000660CBF813B0BDEC028BBDE8F08F9FED227B73
S315080006708DED067B069607F100430793FEE60527F0
S31508000680C2E700231E93209B43F480632093002730
S315080006903E461F9B9F4241D2A3EB070840E01E9BA4
S315080006A0002BF6D0119B002BF3D01E9B013B1E930B
S315080006B0EFE700BFAFF30080FB799F501344D33FA9
S315080006C0B3C8608B288AC63F61436F63A787D23F4A
S315080006D071A379094F930A401655B5BBB16B024011
S315080006E0EF39FAFE422EE63F2D431CEBE2361A3F5F
S315080006F00000000080842E41000000000000000079
S31508000700FFFFEF7F0000F83F0000E03F00002C40AD
S3150800071000002440000018400000F03F4FF0000899
S31508000720209B13F0020902D00FB14FF000083EB12A
S3150800073053EC182BDDE906011BF0CEFECDE90601C8
S3150800074000220023DDE908011CF00EF800283BD141
S31508000750209B23F400630293CDF804801E9B00932C
S315080007609DED060B2B465A462146504600F044F8A6
S31508000770002F3FF476AF209B13F0200F2CD04FF0BC
S31508000780450C00F101082B46024621466046D04733
S3150800079086EAE672A2EBE67205230593013F049703
S315080007A0002303930A230293F30F019300922B4627
S315080007B042462146504658F0CBFFB9F1000F3FF4A8
S315080007C050AF02461F9F10E0DDE90601024601F11F
S315080007D00043CDE90623BBE74FF0650CD1E7561C6D
S315080007E02B4621462020D0473246A2EB0B03BB42BC
S315080007F0F5D3104635E700BF2DE9F04F2DED028BF6
S3150800080093B00590089192469B4659EC108B1E9D15
S3150800081042464B46404649461BF09CFF002840D0BE
S315080008204FF0FF326FF48013404649461BF09CFF99
S31508000830002845D14FF0FF32B14B404649461BF0E0
S31508000840B1FF00284BD1AAA3D3E900234046494665
S315080008501BF0A8FF00285AD1A7A3D3E900234046D6
S3150800086049461BF081FF002851D10022002340464B
S3150800087049461BF079FF002857D100230993209B8E
S3150800088013F4806F5CD000241F2C5BD8092D59D92E
S3150800089004F148036B44302203F8202C013D01344F
S315080008A0F2E7209B03931F9B029303230193954B27
S315080008B000935B4652460899059858F06FFE10E17A
S315080008C0209B03931F9B0293042301938E4B009353
S315080008D05B4652460899059858F060FE01E1209B50
S315080008E013F004030FD0894A7BB10423209903919E
S315080008F01F990291019300925B4652460899059802
S3150800090058F04CFEEDE0824AEEE70323EEE7209B23
S3150800091002931F9B0193009549EC108B5B46524648
S3150800092008990598FFF770FDDBE042464B46002024
S3150800093000211BF0EFFA80468946012309939EE7BA
S315080009400625A0E7404649461BF036FF06461BF03B
S315080009502FFC02460B46404649461BF0DBFA6D4B18
S3150800096003EBC50393ED008B53EC182B1BF08AFCA5
S3150800097002460B46CDE906231BF046FF07461BF049
S3150800098007FC02460B46DDE906011BF0C3FA0246E0
S315080009900B46CDE9062300225F4B1BF003FF50B33D
S315080009A0013738461BF0F4FB02460B4651EC180B90
S315080009B01BF0E4FE08B10136002755BB30461BF094
S315080009C0F7FB02460B46404649461BF0A3FA80460B
S315080009D089460022504B1BF0C7FE38B100224E4B09
S315080009E0404649461BF0DEFE002842D016F0010FAD
S315080009F03FD001363DE00022474BDDE906011BF0FA
S31508000A00B3FE0028D9D117B117F0010FD5D0013799
S31508000A10D3E71F2C17D8013D404BA3FB0723DB0860
S31508000A20194603EB8303A7EB4303621C303304F137
S31508000A3048000DEB000404F8203C092F02D90F46A4
S31508000A401446E6E714461F2C0AD86B1E45B104F176
S31508000A5048026A44302102F8201C1D460134F2E798
S31508000A601F2C06D804F148036B442E2203F8202CC9
S31508000A7001341F2C17D82A4A82FB0632F317C3EB18
S31508000A80A2031A4603EB8303A6EB4303611C303328
S31508000A9004F148000DEB000404F8203C16460AB1A0
S31508000AA00C46E6E70C46209B03F00303012B39D0DE
S31508000AB01F2C09D8099B002B51D004F148036B441D
S31508000AC02D2203F8202C0134209B03931F9B0293AD
S31508000AD001940AAB00935B4652460899059858F06C
S31508000AE05DFD13B0BDEC028BBDE8F08FAFF300805F
S31508000AF00000000065CDCD410000000065CDCDC1E8
S31508000B00FFFFEF7FA0790708A479070894790708FB
S31508000B109C790708B07907080000E03FCDCCCCCC1B
S31508000B20676666661F9BB3B1099B1BB9209B13F0CA
S31508000B300C0F12D01F9B013B1F93194606E004F1C8
S31508000B4048036B44302203F8202C01348C42AFD280
S31508000B501F2CF4D9ACE71F99F8E71F99F6E7209BF5
S31508000B6013F0040F07D004F148036B442B2203F853
S31508000B70202C0134A8E7209B13F0080FA4D004F119
S31508000B8048036B44202203F8202C01349CE700BF5D
S31508000B902DE9F04180460F461546106051604FF426
S31508000BA07A7200231BF050FE06460C461FA3D3E9B3
S31508000BB00023404639461BF047FE83B22B81184A6C
S31508000BC002FB03F3F61A64F100044FF46162002392
S31508000BD0304621461BF038FEC0B2A8724FF4616356
S31508000BE003FB00F0301A64F100040022031915D241
S31508000BF013440C4AA2FB0312D208C2EB02129B1A38
S31508000C00C31A094AA3FB0232C3F38703EB72C3EB89
S31508000C100313A0EB83002873BDE8F0810122E7E700
S31508000C208051010089888888EFEEEEEE005C260583
S31508000C300000000000000000F0B5A34C9FB0228819
S31508000C40A3780021ADF80C2013A82C228DF80E30BD
S31508000C5062F0A0FA4FF00233159340F20B130AAD77
S31508000C600434ADF874300FCC0FC50FCC0FC523680C
S31508000C70964A2B60964B974D06930023CDE907338A
S31508000C8009934FF0FF33284693492B6025F094FBD0
S31508000C900446002840F0FC802B68013304D140F25A
S31508000CA0C3418E4855F02DFF286803A925F0C2FBDD
S31508000CB00446002840F0EC80286863F097FB884FCC
S31508000CC0884E3870286863F093FB3070286863F0A4
S31508000CD091FB854B85491870286825F067FE044600
S31508000CE0002840F0D5803B78814F002B40F09E804D
S31508000CF0804829F035FF3860002840F0B68040F279
S31508000D000951764855F0FDFE05F0E4FC7A4BCDE92D
S31508000D10040104AAA3F1080112F8010B03F8010D56
S31508000D209942F9D13378002B40F0B9807349286885
S31508000D3062F067FD0446002840F0AA8070492868DA
S31508000D4062F049FD0446002840F0A2806D492868F3
S31508000D5025F044FC0446002840F09A8058A3D3E9BD
S31508000D600023CDE90023286862F04DFD04460028DB
S31508000D7040F08E80644A6549286863F08BFA044619
S31508000D80002840F085804FF480502AF03FFA044648
S31508000D9000287DD10121286825F06AFB0446002831
S31508000DA076D1A0235A4A06A8D3805A4A138074F0EB
S31508000DB08AFC594B186020B940F25251474855F001
S31508000DC0A0FE00220121082074F0FDFE534B186096
S31508000DD020B940F25551414855F093FE00220121B1
S31508000DE0082074F0F0FE4E4B186020B94FF4AB6142
S31508000DF03A4855F086FE4B4A4B494C482BF04EFC78
S31508000E004A4849F071F9002149480AAA74F0BEFB1C
S31508000E10484C206020B940F26451304855F071FEC4
S31508000E20454920684FF090FF1FB0F0BD434829F0B0
S31508000E3097FE386000283FF45BAFC189286825F023
S31508000E401BFD3B682146586829F0C4FE0446F8B9DC
S31508000E500721286863F08FF90446C8B9254829F0A0
S31508000E607FFE386000283FF44FAFC189286825F017
S31508000E7003FD3B680421586829F0ACFE044638B9DE
S31508000E800721286863F077F9044600283FF43CAF49
S31508000E902346222102202A4A6FF027FEC4E71C2295
S31508000EA0002116A862F076F9286813A925F078FFBC
S31508000EB0044600283FF43AAFEAE700BFAFF30080E4
S31508000EC0C88D01C103400000045309082DA8020873
S31508000ED0684C090828450020D0610020364B0908CF
S31508000EE06F4E00206E4E00206D4E00200700110048
S31508000EF0E04400203F5B0608784E002000530908AE
S31508000F00FE5209082C4500206C630020980E00202C
S31508000F1010620020D04D0020A8450020A4450020DE
S31508000F20A04500207D4C09083DAD02084845002033
S31508000F30C5BD0208AC450020D8820908295B060809
S31508000F40864C0908000000002DE9F34705465C4C6D
S31508000F50222110205B4A6FF0C8FD2946142220463C
S31508000F6062F09DF9A27B584BDFF8A4A11A70637C46
S31508000F7000228AF800300023CDE90023DFF89481A7
S31508000F8000224FF40073D8F8000062F03CFC0546D6
S31508000F90002840F08D804D4B4D4F1B7893B94D4836
S31508000FA029F0DEFD04463C6014BB4B4A2221022090
S31508000FB06FF09BFD01222125484B1A70284602B086
S31508000FC0BDE8F087464B474C1A88474BD8F80000CF
S31508000FD053F82210454A8B6821603B6025F0E8FAF1
S31508000FE02268434B946824221B8802FB0344DAE7F1
S31508000FF0404B1C603B4BD3F80090B9F1000F04D16D
S3150800100040F619013C4855F07CFD00232420D9F808
S315080010100C108B4201D1002613E0D9F8086000FBBA
S315080010200366F2695278120912F00E0F3ED0052AAD
S315080010303CD8324B0021F289B3F900003E6029F012
S31508001040E7FD1DA3D3E90023CDE90023D8F8000066
S3150800105062F0D9FBD9F80820B24207D0284B3A608B
S315080010600421D289B3F9000029F0D2FD254BE28983
S3150800107001201A803C602AF04DFB234B1B78002B7D
S315080010809CD09AF800301B0913F00E0F96D11F4B0F
S3150800109007211B78D8F80000002B0CBF0122072275
S315080010A063F0CDF9051E18BF012587E70133B0E7C0
S315080010B0012583E7AFF30080C88D01C10342000014
S315080010C0E4440020BE4E0908634E0020684E002006
S315080010D0E044002089AC0208CC4E0908654E002081
S315080010E0CE4D0020D4440020645F002039A80208B1
S315080010F0CC4D0020DC440020364B09086E630020E6
S3150800110070630020666300206E4E00202064002075
S31508001110624E0020284500202DE9F84390F8E86142
S31508001120054644683EB902202721414A6FF0DDFC96
S315080011303046BDE8F88394F90130002B1ADA731E9D
S315080011405BB2637000EB431393F825302370A068F5
S315080011501BF040F832A3D3E900238046894694F968
S3150800116001701BF01FFBF8B1002F1DDD013F0023A6
S31508001170677024E09E42227805DD00EB431393F85E
S3150800118025309342E3D0002305F125016370580109
S31508001190085C904208BF637001339E42F7D8731EFD
S315080011A0637000232371D2E740461FA3D3E90023C7
S315080011B049461BF0F7FAF0B12379E3B1013B2371F5
S315080011C094F9013005F5F57005EB431393F82530CE
S315080011D0237085F8EA31052395F8022285F8EC3163
S315080011E085F8F0210023022285F8EB3185F8F221F3
S315080011F085F8F1319DE740460BA3D3E9002349461C
S315080012001BF0B2FA0028DBD023790133DBB2092BB5
S315080012102371D5D9013EBE42D2DD0137A7E700BF0B
S31508001220666666666666E63F9A9999999999B93F98
S31508001230C0050A08000000002DE9F8432DED028BD1
S3150800124087680546384616460C461AF0C3FF28A393
S31508001250D3E90023804689461BF0A4FA88BB26A357
S31508001260D3E90023404649461BF07EFA60BBF7EEF9
S31508001270007A07EE107A87EE878A6B7F607F0122F5
S31508001280834224D0002149F0CBFB01220446314693
S31508001290687F49F0C5FB044404F2D5702860D8B1CC
S315080012A007EE900AF8EE677A9FED0D7A67EE887A70
S315080012B087EE270ABDEC028B10EE103AEB60BDE80C
S315080012C0F8839FED088AD8E79FED078AD5E7314668
S315080012D0184649F0A5FBE1E79FED040AEAE700BFD7
S315080012E000007A44E4388E3F00401C4600000000A7
S315080012F0CDCCCCCCCCCCEC3F9A9999999999B93F5D
S315080013002DE9F74F064690F8E8010D469146A0B339
S315080013107468A3690133A361A37D06EB43131A7F9F
S3150800132002441A77D4E90732C3EB520207EE902A31
S315080013304000B8EE677A07EE900AF8EEE76AF4EE30
S31508001340C76AF1EE10FA0BD507EE903A37EE667AD1
S31508001350F8EE677A77EE877AFCEEE77AC4ED077AD5
S315080013604FF0000BD9450BD842F21073A2699A4286
S3150800137082BF0023C4E90633236203B0BDE8F08FB9
S31508001380B5F802A02F79BAF1000F2ED038461AF018
S315080013900FFFCDE9000150461AF00AFF02460B4638
S315080013A0DDE900011BF098F802460B4600204C497F
S315080013B01AF0B0FD54F0CAFF07EE100A96F8033289
S315080013C0AAEB0700034486F8033294F8243033B3B3
S315080013D094F825305B4522D1BAF1000F08D1C4F83C
S315080013E020A00BF1010B0635BCE7B7EE007AE5E75E
S315080013F0E3690133E3612A78002AF2D0002398468C
S3150800140096F8E8C106F108019C450FD8B8F1000F17
S3150800141014D127210220334A6FF067FBE1E72A78C7
S31508001420002ADED0BAF1000FDBD0E7E791F81DE01D
S315080014300133964508BF88462031E5E7002288F83B
S315080014401420B8F81020D8F8043017440133BAB27B
S31508001450C8F80430A8F810701AB198F81D2086F854
S315080014601422F7EE007A012B77EEC77A8CBFB3EE1B
S31508001470097A9FED1D7AB8F8122088BF67EE877A39
S315080014800244A8F81220D8F808208CBF9FED177AD6
S3150800149067EE877A06EE102ADFED156AE6EE077A1A
S315080014A087EEA67A17EE103A17EE100AC8F8083033
S315080014B01AF090FE08A3D3E900231BF055F918B1DA
S315080014C0FF2388F815308CE798F91530013388D151
S315080014D00423F6E7AFF30080666666666666EE3F47
S315080014E00000F03F5A060A080000484200009642EB
S315080014F00000C842000000002DE9F04F2DED028BD8
S31508001500054600274FF0200A4FF0080B0B46082027
S315080015104D4A87B0884627216FF0E7FA95F8E831F3
S3150800152027210820494A6FF0E0FA6C6805F1080699
S31508001530E37D23716371637595F8E891B9450DDC10
S315080015403FA7D7E900674FF00008AA46C346C1453A
S3150800155046D807B0BDEC028BBDE8F08FE17D424668
S315080015601AFB01B130462944FFF766FE96F81D902E
S315080015700495F0681AF02EFECDE90201B0681AF05B
S3150800158029FE4B46CDE90001314A272108206FF094
S31508001590ACFA2379D6ED037A05EB431292ED057A78
S315080015A0F4EEC77AF1EE10FA02DB327F22710EE012
S315080015B017B995F82420F9E7637905EB431393EDFA
S315080015C0057AF4EEC77AF1EE10FA04DB337F63711D
S315080015D001372036B0E7012FFAD195F84430F6E7FF
S315080015E0E37D434515D09AED048A18EE100A1AF0E1
S315080015F0F1FD32463B461BF0CBF810B9BBF1000FA4
S315080016000CD19AF8243022799A4202D062799A4209
S3150800161011D108F101080AF1200A98E7637D05EB64
S315080016204313D3ED047AB4EEE78AF1EE10FAE8DA5A
S315080016304FF0010BEDE76375FAE700BFAFF30080E3
S31508001640666666666666EE3F72060A0894060A08C5
S31508001650A3060A08000000002DE9F047D0F8048028
S3150800166000EB411393F8245098F817300446AB4220
S315080016702DD098F81530AB4229D000EB411ADAF88C
S3150800168010004FEA41191AF0A5FD13A3D3E9002368
S3150800169006460F461BF072F810B99AF91D00A0B15C
S315080016A098F80430AB4212D098F80530AB420ED009
S315080016B009A3D3E90023304639461BF073F818B15D
S315080016C04C44637F013B63770120BDE8F087002027
S315080016D0FBE700BFAFF30080666666666666EE3FA8
S315080016E02DE9F34704460E46456827210820804A17
S315080016F06FF0FBF920463146FFF7FEFE28466FF0ED
S31508001700BFFD002800F0BA8020466FF0CCFD061E0B
S31508001710C0F2B48094F8E8319E4280F2AF8004EBC0
S315080017204617334627210820724A6FF0DEF927212B
S31508001730082097F82530704A6FF0D7F9012295F8F6
S3150800174004C085F8242004EB4C13386A196A8842C9
S3150800175097F8250002D8397F322977D9012284F8EB
S31508001760EC21002284F8EA0184F8EB21A97D29708E
S3150800177093F8251084F8F01193F8263084F8F121AF
S3150800178084F8F231697D85F801C004EB411393F8BA
S315080017902500012684F8F60193F8263084F8F831F6
S315080017A0002384F8F731A97085F82520A04605F1AD
S315080017B0FF3904F1120A19F8013F5F1C002E00F0E8
S315080017C0898004EB431318691AF004FD02460B4698
S315080017D0CDE9002342A3D3E900231AF0E3FF40B979
S315080017E041A3D3E90023DDE900011AF0BDFF002873
S315080017F070D004EB4717BB79042B8EBF0223013345
S31508001800C3F3460388F8EC3108F10608C245D2D17D
S31508001810EA7D04F5F57004EB421393F8253084F855
S31508001820FC31002384F8FD31EA7085F8243094F8F9
S31508001830F22194F8EC31134494F8F821C3F1070324
S315080018409B1A84F8FE3102B0BDE8F08793F825703C
S31508001850697D84F8EA7193F8263084F8EC31002320
S3150800186084F8EB3185F800C084F8F13184F8F0018A
S3150800187084F8F22104EB41136E7088E700262A7972
S3150800188004EB421393F8251084F8EA1193F82630EE
S3150800189084F8EB6184F8EC312A706A7904EB421318
S315080018A093F8251084F8F01193F8263084F8F1613E
S315080018B084F8F2316A706A7D04EB421393F82510B6
S315080018C084F8F61193F8263084F8F76184F8F8312D
S315080018D0AA706BE704EB4717BB7993E7AFF3008071
S315080018E0666666666666EE3F9A9999999999B93FCA
S315080018F0C7060A08D5060A08E5060A080000000011
S315080019002DE9F8432DED028B8768054638461646BD
S315080019100C461AF05FFC2EA3D3E9002380468946BD
S315080019201AF040FF00283DD12BA3D3E900234046F7
S3150800193049461AF019FFC0BBF7EE007A07EE107A8F
S31508001940AB7F87EE878A07EE903AB8EEE77AB4EE71
S31508001950C87AF1EE10FA01D5B8EE678A6B7F607F18
S315080019600122834224D0002149F05AF80122044674
S315080019703146687F49F054F8044404F2D57028606B
S31508001980D8B107EE900AF8EE677A9FED0D7A67EE02
S31508001990887A87EE270ABDEC028B10EE103AEB60C8
S315080019A0BDE8F8839FED078AD8E79FED078AD5E754
S315080019B03146184649F034F8E1E79FED040AEAE7AC
S315080019C000007A44E4388E3F00401C4600000000C0
S315080019D0CDCCCCCCCCCCEC3F9A9999999999B93F76
S315080019E02DE9F04F2DED028B90F8E83105460E46AD
S315080019F0934689B0002B00F0238127210820964AB8
S31508001A006FF073F800226C68A1690131A16195F83D
S31508001A10E80190423DD8D4E907230A277943642789
S31508001A20B1FBF7F1C2EB53030B4407EE903A4300C0
S31508001A3006EE903AF8EE677AF8EEE66AF4EEE76AAA
S31508001A40F1EE10FA0BD507EE102A77EEE67AB8EE25
S31508001A50477A77EE277AFCEEE77AC4ED077A00270D
S31508001A60B846BB451DD8B8F1010F00F0E680B8F1BD
S31508001A70130F40F2B9800023A3612721082095F8A7
S31508001A800332764A09B0BDEC028BBDE8F04F6FF021
S31508001A902CB8A37D013205EB43131F7F01371F774F
S31508001AA0B7E7B6F8029096F804A0B9F1000F41D04E
S31508001AB050461AF07DFBCDE9060148461AF078FB38
S31508001AC002460B46DDE906011AF006FD02460B46FC
S31508001AD0002063491AF01EFA54F038FC08EE100A82
S31508001AE0337818EE100A069304951AF073FB069BD2
S31508001AF0CDE902015B4A27210820CDE9009A6EF05C
S31508001B00F4FF7288337995F80312D31A0B4485F8D3
S31508001B10033294F82430C3B194F82530BB4214D16B
S31508001B205AB92262272108204F4A6EF0DEFF013794
S31508001B30063696E7B7EE008AD2E7E369272101332E
S31508001B4008204A4AE3616EF0D0FFB6F802A0BAF15F
S31508001B50000FECD00023E25D05EB4211C8680B7755
S31508001B600130C86096F804C00B8B4FEA42196344EB
S31508001B709BB20B831BB191F8253085F81432F7EE2A
S31508001B80007A05EB0902538B01285344A3EB0C0397
S31508001B9077EEC87A53830DD9B2EE0E7AD2ED046A7F
S31508001BA027EE877ADFED327AA6EEA77ADFED316A7D
S31508001BB0C7EE267AA944C9ED047A17EE900A1AF0F8
S31508001BC009FB23A3D3E900231AF0CEFD30B1FF2386
S31508001BD089F81D30C2441FFA8AF8A8E799F91D301A
S31508001BE00133F7D10423F3E7B8F1020FD4ED0B7AEA
S31508001BF0B1EE047A15D977EE877AB3EE047AF4EE65
S31508001C00477AF1EE10FA77FE277A42F21073A26944
S31508001C10C4ED0B7A9A4282BF0023C4E906332362D5
S31508001C202BE7F2EE046A77EEE67AF4EE477AF1EEFF
S31508001C3010FA48BFF0EE477AE7E7DFED0F7AE4E7F8
S31508001C4009B0BDEC028BBDE8F08F00BFAFF3008092
S31508001C50666666666666EE3F2A070A0890070A08F9
S31508001C600000F03F40070A0871070A0880070A08BB
S31508001C700000AA420000C842000000000000000060
S31508001C802DE9F84F2DED028B0546884600274FF0C3
S31508001C9020094FF0080B446800F10806E37D23711C
S31508001CA06371637595F8E8A1BA450CDC0FF2D009A3
S31508001CB0D9E9008900262F46B346B24532D8BDEC8D
S31508001CC0028BBDE8F88FE17D424619FB01B130462B
S31508001CD02944FFF715FE2379D6ED037A05EB43125F
S31508001CE092ED057AF4EEC77AF1EE10FA02DB327F4E
S31508001CF022710EE017B995F82420F9E7637905EB08
S31508001D00431393ED057AF4EEC77AF1EE10FA04DB85
S31508001D10337F637101372036C4E7012FFAD195F86E
S31508001D204430F6E7E37DB34215D097ED048A18EE02
S31508001D30100A1AF04FFA42464B461AF029FD10B916
S31508001D40BBF1000F0AD197F8243022799A4202D0C3
S31508001D5062799A420FD101362037AEE7637D05EBEB
S31508001D604313D3ED047AB4EEE78AF1EE10FAEADA11
S31508001D704FF0010BEFE76375FAE700BFAFF300809A
S31508001D80666666666666EE3F2DE9F047456890F832
S31508001D90E821AB690446B3EB420F2ED900EB411399
S31508001DA093F82480EB7D43452AD06B7D434527D0A5
S31508001DB000EB411ADAF810004FEA41191AF00AFA4C
S31508001DC011A3D3E9002306460F461AF0D7FC10B92B
S31508001DD09AF91D0090B12B79434511D06B7943458B
S31508001DE00ED009A3D3E90023304639461AF0DAFCA7
S31508001DF018B14C44637F013B63770120BDE8F08747
S31508001E000020FBE7AFF30080666666666666EE3F0F
S31508001E100348044B834202D0034B03B1184770476B
S31508001E20BC6F0020BC6F002000000000064B07496D
S31508001E30C91A891048BF0131491003D0044B0BB1A8
S31508001E4001481847704700BFBC6F0020BC6F0020D0
S31508001E500000000010B5064C237843B9FFF7D8FFF9
S31508001E60044B13B10448AFF300800123237010BD5F
S31508001E70E04D00200000000054210A0808B5054B73
S31508001E801BB105490548AFF30080BDE80840FFF7D8
S31508001E90CDBF00BF00000000A819002054210A0881
S31508001EA0A3F5803A704700BF174B002B08BF134BAA
S31508001EB09D46FFF7F5FF00218B460F461348144A47
S31508001EC0121A61F067F90E4B002B00D098470D4B9C
S31508001ED0002B00D098470020002104000D000D4873
S31508001EE0002802D00C48AFF300801BF0C3F920008D
S31508001EF0290057F0EDFA1AF037FE00BF0000080077
S31508001F00000000000000000000040020000400207B
S31508001F10E0570020000000000000000000B583B074
S31508001F20044B1B88ADF8043001A800F065FC03B02B
S31508001F305DF804FBE865070800B583B0044B1B8809
S31508001F40ADF8043001A800F029FC03B05DF804FBE5
S31508001F50E86507082DE9F04F93B0604C06AD231DE0
S31508001F600FCB85E80F0001AD14340FCC0FC52368DD
S31508001F702B6069465A4B187974F081F9594874F000
S31508001F8085F9594874F082F901238DF80530002344
S31508001F908DF8043001AB09930098544B984240F2EF
S31508001FA09B80534904F09EFE0790524F06A9384677
S31508001FB004F040FE40F6FF71384604F0BBFB07F517
S31508001FC080540126666040F6FF71384604F0B2FB7D
S31508001FD00425A56340F6FF71384604F0ABFBA663FB
S31508001FE04FF002088DF8288000248DF829403246E3
S31508001FF029460AA800F094FBDFF8E090B9F828B063
S31508002000ADF82CB0224631460BA800F089FBB9F88A
S315080020102CA0ADF830A0324629460CA800F080FB6B
S31508002020B9F80090ADF83490324629460DA800F06C
S3150800203077FB314D4FF00213C5F8C833A3F580334B
S31508002040C5F8C433C5F8CC831C23C5F8B4334FF49C
S31508002050487007F09FFDFFF761FF142007F09AFD0F
S31508002060FFF76AFF232007F095FDFFF757FFB92111
S31508002070384604F00BFEFFF75FFF8DF838808DF8C1
S315080020803940224621460EA800F04AFBADF83CB07E
S31508002090224621460FA800F043FBADF840A0324681
S315080020A0214610A800F03CFBADF844903246214684
S315080020B011A800F035FB384604F066FCC5F8B443B1
S315080020C0C5F8C843C5F8C443C5F8CC43064874F0F8
S315080020D0E2F813B0BDE8F08F014663E7E865070844
S315080020E0947307087C73070880730708DF7072000B
S315080020F0E070720000000A5000C0035008B504489A
S3150800210074F0C4F860F04FFFFFF724FF08BD00BF66
S315080021107C73070808B5024874F0B8F808BD00BF14
S315080021207C73070848B1074B1B78012B07D8037047
S315080021300133044A137000207047012070470120BC
S31508002140704700BFE14D002008B50448044A121A3A
S315080021509210044954F0CBFC08BD00BFA801000842
S31508002160E0030008E057002008B5154B83F30A88FA
S3150800217000F030F8FFF7E8FF124A0AE010685168E5
S3150800218050F8230041F82300013391688B42F5D3B8
S315080021900C320D4B9A4201D20023F6E70B4A08E0AF
S315080021A01168002041F82300013351688B42F7D3A8
S315080021B00832074B9A4201D20023F6E7FFF774FE6E
S315080021C0000000205C210A0868210A0868210A081C
S315080021D068210A0870B5134B134A9A60D3F8882009
S315080021E042F47002C3F88820104A4FF48041916681
S315080021F00F4D05F500544FF0FF3222660D4A626610
S315080022000222C3F8D020BFF34F8FBFF36F8F002091
S3150800221005F092FF4FF44036E660002005F062FFB5
S315080022202E6170BD00ED00E000000008009000502F
S3150800223000800044FFF7FF2F014B1860704700BF6E
S31508002240205A002008B5064B1860064B1B6F03F092
S315080022500703032B00D008BD70F094FAFBE700BF14
S31508002260285A00200080005008B5064B1860064B17
S315080022701B6F03F00703052B00D008BD70F082FA28
S31508002280FBE700BF1C5A00200080005008B540F646
S31508002290B131024854F035FC08BD00BF186607087E
S315080022A000B583B000230193094B1B68B3F1FF3FC8
S315080022B007D173F01DFE019B002BFCD003B05DF81F
S315080022C004FB40F22131034854F01BFCF1E700BF40
S315080022D02C5A0020DC66070808B5EFF305830F2B98
S315080022E006D90F4A9B5CDBB20E4A12789A420AD884
S315080022F04FF0E023D3F80C3D03F4E0630A4A126872
S31508002300934206D808BD40F2A171084854F0F9FB7B
S31508002310EEE740F2B171054854F0F3FBF2E700BF6F
S31508002320F0E300E0E24D00208C1F0020DC66070881
S3150800233030B58BB00023092B09DC154AD25C03F1B2
S315080023402801694401F80C2C0AB10133F3E700248B
S31508002350002C02DD01200BB030BD00250495059543
S3150800236006AA05A904A870F069FA049B0293059BBE
S31508002370019300952B46069A07A9064873F029FF8C
S31508002380054B43F8240008B10134E1E70020E2E7F1
S3150800239014680708593B0708E41F002038B50446A7
S315080023A00D4621B118B123682B60256038BD372149
S315080023B0014854F0A6FBF6E78868070838B50446CE
S315080023C00D4601B128B94521054854F09AFB00E0AD
S315080023D01C462368002BFBD12B60256038BD00BF47
S315080023E08868070810B5044630B1206818B1036834
S315080023F023600023036010BD5621024854F081FB78
S31508002400F3E700BF88680708F0B18446F1B110B455
S3150800241009E004F120000FE02033C01A18D1BCB13E
S315080024200CF1010C01319CF800400B4B1B5D03F0CD
S315080024300303012BEDD020460B78074AD25C02F045
S315080024400302012AE9D1E7E7012070470120704716
S315080024505DF8044B704700BFF1E307082DE9F0412A
S3150800246080460E46082904D106F1090500273C4690
S315080024700AE040F26311214854F043FBF4E75B217C
S31508002480082000F0E1F80134AC4233D2052C1BD801
S3150800249001A353F824F000BF7F240008B1240008E4
S315080024A0E5240008B9240008BD240008C124000852
S315080024B0F3B20433D9B2E3E78021E1E70021DFE78D
S315080024C07B1C3946DFB2DBE7B31DA3420CD0F31DF4
S315080024D0A3420BD006F10803A34209D0A31F18F89C
S315080024E00310CDE7D121CBE75A21C9E75A21C7E71F
S315080024F05D21C5E70020BDE8F08100BFF868070840
S3150800250000B583B000220092019202218DF80010D6
S31508002510054854F043FB019008216846FFF79EFFE3
S3150800252003B05DF804FB00BF00D4300008B572F0B4
S31508002530F9FA08B9014808BD0148FCE70C20002053
S315080025401026002008B572F0EDFA08B9014808BD52
S315080025500148FCE70C2000201026002008B5034897
S3150800256054F0D0FA024B01221A7008BD1426002036
S31508002570E34D002010B582B0002401942A4873F078
S3150800258085FE8DF8004003238DF8013001220421D1
S31508002590684600F0C5F8254B0122C3F8442301A973
S315080025A0052073F06CFE00283BD1214BD3F8F020B0
S315080025B042F00102C3F8F020D3F8FC2042F0807202
S315080025C0C3F8FC20A3F55D431A4A1A60019B03F57C
S315080025D0D52303F2FC43DB08174AA2FB03239B0A15
S315080025E0013B164A13610223C2F8F0304FF4807398
S315080025F0C2F804334FF06043114AC3F8B02F114AAA
S31508002600C3F8802ED3F8002E42F48072C3F8002E49
S31508002610FF2283F82020D3F8002E22F48072C3F814
S31508002620002E02B010BD00BF7C73070800D003500F
S3150800263000ED00E0FF03004017916502000004E08A
S3150800264055CEACC5090001004FF06043D3F8803E73
S3150800265013F0010F01D1112070470E4AD2F8FC3051
S3150800266043F08073C2F8FC304FF06043D3F8002E75
S315080026704FF0010C0CFA00FC42EA0C02C3F8002EDB
S3150800268053F82030002BE8D04FF0604303F82010B1
S315080026900020704700ED00E010B504460DE0012368
S315080026A0834024EA03040F2812D80D4B03EBC0031A
S315080026B01A6812B15968C0B290477CB12346002007
S315080026C01F28ECD813F0010FE9D101305B08F7E7B2
S315080026D0421E1038024B03EBC203E9E710BD00BFE8
S315080026E01826002008B50D4873F0D0FD202005F007
S315080026F009FD28B9212005F005FD40B9002008BDCF
S31508002700202005F019FD202005F0ECFCF2E7212039
S3150800271005F012FD212005F0E5FCEFE77C730708BC
S31508002720F8B570B10C46154606460F290FD833780A
S31508002730A3B1022B26D0032B27D0012B0CD00023C4
S315080027400EE08921144854F0DCF9222019E08C2186
S31508002750114854F0D6F9EAE73F2301E040F6FF7343
S315080027607278D34013F0010F11D073F073FD07464A
S315080027702A462146304604F00DFB384673F065FDBF
S315080027800020F8BD40F2FF33EAE7FF23E8E78D2192
S31508002790014854F0B6F9E8E77C69070810B550B166
S315080027A0044603787BB1022B19D0032B1AD0012BD0
S315080027B007D0002309E0CF210E4854F0A2F92220C1
S315080027C00CE03F2301E040F6FF736278D34013F034
S315080027D0010F09D0204672F017FA002010BD40F20A
S315080027E0FF33F2E7FF23F0E7D221024854F089F9D4
S315080027F0F0E700BF7C69070810B550B104460378B6
S315080028007BB1022B19D0032B1AD0012B07D000233A
S3150800281009E0DF210E4854F074F922200CE03F232A
S3150800282001E040F6FF736278D34013F0010F09D038
S31508002830204604F079FA002010BD40F2FF33F2E793
S31508002840FF23F0E7E221024854F05BF9F0E700BF06
S315080028507C69070808B5084BD3F82403D3F8202366
S31508002860104000F0553020F0502003F50053C3F80F
S315080028702003FFF711FF08BD00C0035008B5084B39
S31508002880D3F82403D3F82023104000F0AA3020F010
S31508002890A02003F50053C3F82003FFF7FDFE08BD8B
S315080028A000C00350F0B587B00C4694469DF83C101E
S315080028B0674A1278002A00F0BE800546BCF10F0F61
S315080028C000F2BB800C9A002A00F0B9800D9A002A03
S315080028D000F0B780109AB2F5006F00F3B4800128B3
S315080028E05CD05C4A02EB0C12127B002A00F0AD8029
S315080028F0002201920292039204920592564A02EB32
S315080029004C1E002C4FD14FEA4C1600209051CEF8A1
S315080029100400CEF80800CEF80C009EF8020040F03D
S3150800292010008EF802009EF8030040F030008EF882
S31508002930030021B9C1B241F003018EF803100193D7
S31508002940109B013B444A4FEA4C1002EB4C11165AB5
S3150800295063F30E1616520C9B8B600D9B4B60CB785F
S315080029609DF8442062F38303CB70012D36D0129B69
S31508002970002B56D0374A4FEA0C1102EB0C1312986B
S315080029805050139A5A6000249C605D73724601A9E0
S31508002990604603F069FD204607B0F0BD0E9A002A8E
S315080029A09FD12E48F8E72C4F4FEA4C1607EB4C12EE
S315080029B00020B85150609060D060907840F01000C8
S315080029C09070D07840F00300D0700029B7D107EB9B
S315080029D04C12C1B241F03001D170B0E70E460A7B05
S315080029E042F001020A73D2B242F002020A73CA68BE
S315080029F0042161F39F02F26006F1100796E80F00C2
S31508002A0087E80F00F2696FF0030161F39F02F26134
S31508002A100E9B7361012CAAD10D9AB2610E9A72604F
S31508002A20A5E7002DA6D10C4B03EB4C139A786FF350
S31508002A3004129A709EE70A48AEE70848ACE70748CA
S31508002A40AAE70648A8E70548A6E70648A4E700BF98
S31508002A50E44D00200829002008270020018000F006
S31508002A60028000F0078000F0134B1B78FBB110B50D
S31508002A700446F0B173F0EEFB00230F2B13D80F4A70
S31508002A8002EB0312127B0AB10133F6E723600B4A05
S31508002A90190102EB031301241C730024545073F02C
S31508002AA0D4FB204602E073F0D0FB054810BD05486C
S31508002AB070470548FAE700BFE44D002008290020C2
S31508002AC0048000F0028000F0018000F038B573F051
S31508002AD0C1FB044600230F2B06DC0C4A02EB03124B
S31508002AE0127B12B90133F6E7002222B1204673F0B1
S31508002AF0ACFB074838BD03F039FC0025054B1D70B3
S31508002B00204673F0A2FB2846F4E700BF08290020F8
S31508002B10058000F0E44D00200F4B1B78BBB110B5C3
S31508002B2004460F2815D873F095FB0C4B03EB0413DA
S31508002B301B7B1BB973F089FB09480BE0074B03EBBA
S31508002B40041300241C7373F080FB204602E005483A
S31508002B507047054810BD00BFE44D00200829002035
S31508002B60068000F0028000F0018000F000B583B016
S31508002B70134B1B68019300238DF8043073F06AFB2E
S31508002B80104B1B7833B90F4B01221A7073F05DFB9B
S31508002B90002309E073F059FB0B480EE00B4A02EBE1
S31508002BA003120021117301330F2BF7DD08238DF86B
S31508002BB0073001A803F00CFC002003B05DF804FB05
S31508002BC0F0690708E44D0020038000F0082900207A
S31508002BD010B5104C2478BCB10F2817DC0E4C04EB4A
S31508002BE00014247BA4B10C4C4FEA001E04EB001C15
S31508002BF044F80E30029BCCF804300024CCF8084088
S31508002C0003F032FC204610BD0448FCE70448FAE706
S31508002C100448F8E7E44D002008290020028000F067
S31508002C20018000F0078000F008B50A4B1B785BB1FD
S31508002C300F280BD8084B03EB00131B7B43B100216D
S31508002C4003F0B0FB002008BD0448FCE70448FAE797
S31508002C500448F8E7E44D002008290020028000F027
S31508002C60018000F0078000F008B50A4B1B785BB1BD
S31508002C700F280BD8084B03EB00131B7B43B101212C
S31508002C8003F090FB002008BD0448FCE70448FAE777
S31508002C900448F8E7E44D002008290020028000F0E7
S31508002CA0018000F0078000F0F8B5194B5F6D9B6D49
S31508002CB01F4002D40125002402E0FEE701346D001E
S31508002CC00F2C24D83D42F9D0124B5D652301124AD8
S31508002CD0D358002BF2D002EB0416B1680131B1606B
S31508002CE072682046984780F00100C0B2737B012BBA
S31508002CF0E4D10028E2D0094B03EB44131A7B6FF3A7
S31508002D0041021A731A7F6FF341021A77D6E7F8BDA4
S31508002D10000004500020045008290020082700203D
S31508002D2010B5044653F094FF636CA3F1140202FB3A
S31508002D3000F0B3F5805F00D010BD183B6169994279
S31508002D40FAD9044BA3FB02231B09033323F003031D
S31508002D501844F1E7CDCCCCCC2DE9F04F89B0054627
S31508002D600E4614469846C36B5B69012207A960683C
S31508002D709847EB6B5B69012206A93046984707A876
S31508002D8055F041F948B10027A77567754FF0FF332D
S31508002D90A360384609B0BDE8F08F074606A855F087
S31508002DA042F90123A375237E033304EBC3035E6054
S31508002DB000221A816368B3422AD02368834201D06D
S31508002DC00023A37506A855F053F9237D984201D030
S31508002DD00023A37506A855F02AF9814607A855F0D9
S31508002DE026F9814501D00023A37506A855F027F9D1
S31508002DF0814607A855F023F9814501D00023A3751C
S31508002E00237D043BDBB2022B0BD80023A375C0E756
S31508002E10206006A855F02CF920754FF0FF33A36003
S31508002E20EEE706A855F003F980B1EB6B5B69022261
S31508002E3004A93046984704A855F00CF90346207DA6
S31508002E40032868D8DFE800F0615B070D06A855F08F
S31508002E5001F90346F3E7237E033304EBC303CC22CD
S31508002E601A8155F015F9129B187094F8189006A84F
S31508002E7055F0D0F809F1030904EBC90989F80A00E5
S31508002E80237E033304EBC303B3F808A093F80AB010
S31508002E9006A855F0CCF8814606A855F0D0F8039058
S31508002EA0B9F1000F3DD0EB6B5B69022204A93046ED
S31508002EB0984704A855F08AF86075637D03B9A37529
S31508002EC0A37DA3B1BAF1000F11D0039BF1186B6C67
S31508002ED05B4286EA01021A4201D00023A3756B6C95
S31508002EE05A1E0A409B1A9A4501D90023A375A37D49
S31508002EF0002B40D0BBF1000F18D1E77D3CE0227EC5
S31508002F00033204EBC2021381ABE7227E033204EBE1
S31508002F10C2021381A5E7227E033204EBC2021381A3
S31508002F209FE706A855F03BF86075C6E70122E275EB
S31508002F30627EBAB9BBF1010F08D095F83470DFB9D3
S31508002F40EA6AB2F1FF3F05D01F4615E00121617616
S31508002F50174611E0BBF1030F01D01F460CE0012212
S31508002F60A27609E0BBF1010F37D0BBF1030F03D1FD
S31508002F700122A27600E01F4653B117B1BBF1010F3B
S31508002F8006D95346039A3146284654F086F9A06076
S31508002F90A37D13B1236953442361237E114A127812
S31508002FA093421CD201332376B8F1000F13D0A37DC8
S31508002FB08BB1E37D7BB177B9BBF1030F0BD0A16869
S31508002FC0B1F1FF3F07D0129B009301232246284602
S31508002FD0FFF7C2FEA075A77DDBE61746CCE7002300
S31508002FE0A375E1E7146A07082DE9F04F89B005468D
S31508002FF00F4692469B4600238DF80B304FF0FF3163
S31508003000104600F0B3FFB7F5801F1DD300230093C9
S3150800301017F1020F07D0009B002B40F09E802B7CF7
S31508003020002B00F08C80EB6AB3F1FF3F2CD02A68A6
S315080030309B1A6A6CB3FBF2F917F1020818BF4FF036
S315080030400108002301935DE00DF10A02394605F1F6
S31508003050080000F0DBFE0146B0F1FF3F11D05046F4
S3150800306000F084FF0DF10B0301225146284654F067
S3150800307093F900900028CBD09DF80B308BF80030E0
S31508003080C6E700230093C3E7696A284654F026F882
S315080030908146D1E70123019337E09DF80B308BF881
S315080030A00030324B1A683249504660F0F8F80094FE
S315080030B02F4B9968B1F1FF3F1BD06B6C5B4281EADD
S315080030C006021A4215D12A4C204600F04FFF0DF190
S315080030D00B0342462146284654F05EF9044600286A
S315080030E0E6D017F1020FD8D0214B1B68BB42DFD1BF
S315080030F0D3E74946284653F0F1FF8146019BCBB9F1
S31508003100009BBBB96B6A4B45C4D02C686B6C03FB40
S315080031100944EB6B5B69052203A92046984703A877
S3150800312055F04DF855F072F8204655F07BF80646EE
S315080031300146BFE7009BA3B1B7F5801F03D3009BE9
S315080031408BB100200AE09BF80030DAF804203946F3
S3150800315005F1080000F078FEF1E7002009B0BDE8A7
S31508003160F08F2D20FAE72D20F8E700BF106A070830
S315080031707C30002070B582B004464FF0FF33C3623E
S315080031800DF107031A4A6FF00101FFF72DFF20BB67
S31508003190174B9B68E362E56A2946204653F08FFD84
S315080031A02063E8B12946204654F067F80546A36A25
S315080031B0AB421BD02946204653F081FD0646236BB9
S315080031C0034423632946204654F057F80546002E43
S315080031D0EDD100232363E062E9E7A36AE362DAE755
S315080031E0E16A204654F049F8E062DBE702B070BDB8
S315080031F0A830002030B583B01C46032A14BF00222D
S3150800320001221B7E9A4202D0012003B030BD0D4632
S31508003210096823689942F7D363689942F4D80DF18F
S315080032200703114AFFF7E0FE0028EDD10E4B5A6856
S315080032306B689A42E8D19DF80730032B14BF002328
S315080032400123227E9342DFD16369013363612369D7
S31508003250E2689342D8D2A268296842F82310236903
S3150800326001332361D0E700BFA83000202DE9F041E3
S3150800327082B004460E4690461F46816A06E01A4BFF
S315080032809968B1F1FF3F1FD0012E23D0E06A88422A
S3150800329017D0B1F1FF3F14D0134D284600F066FE53
S315080032A00DF1070301222946204654F075F8002837
S315080032B0E5D03B469DF8072029462046C04700280A
S315080032C0DDD102B0BDE8F0815968204653F0D5FF3C
S315080032D00146D9E7044B5A68636C5B424A401A4276
S315080032E0D4D04FF0FF31D1E75030002010B5044656
S315080032F0083000F051FD0023024A19462046FFF720
S31508003300B5FF10BD8773050838B50446037C0BBBAB
S3150800331002461349083000F0E1FD616A204653F081
S31508003320FFFE421C616A204653F050FE054620B94E
S31508003330236B626C1344143B2363A16A204653F043
S315080033409CFFA0622368C01A636CB0FBF3F060624E
S31508003350284638BD0023034A0121FFF787FFDCE72B
S3150800336021770508EF760508F0B589B080B30F46D2
S3150800337016461D46044690F834301BB900252846E3
S3150800338009B0F0BD012153F0F6FD01950E9B02939D
S31508003390039704960023059306939DF83C308DF811
S315080033A01C30237C5BB901AA0A4904F1080000F025
S315080033B095FD5EB9069D204654F07FF8DFE701AB20
S315080033C0054A00212046FFF751FFF2E7059DF2E77F
S315080033D00025D4E73B6F0508F5310008F0B58BB03A
S315080033E004460D46406AE36B5B69052205A9266813
S315080033F0676C07FB0060984705A854F0E0FE0128B3
S3150800340036D00094002301938DF8085003930123C6
S315080034108DF81030A16AE36A99420FD0237CBBB9B4
S315080034206A46144904F1080000F058FD019B13B9D7
S315080034309DF810309BB901980BB0F0BD204653F0AB
S315080034401CFFE062236B626C9B1A14332363EDE75F
S315080034506B46094A01212046FFF708FFE6E7626A3C
S315080034602368616C01FB0231E06B54F05AFEE2E717
S315080034700020E1E789360008093600082DE9F04FF3
S3150800348089B004468A4691461D4600230793096972
S31508003490026BCB1D406C1438B3FBF0F3013301EB20
S315080034A0C301914200F2AC804E46A9467FE03D2812
S315080034B040F09680BB460490059624E04FF000083D
S315080034C02368616C01FB0531E06B54F016FE20465B
S315080034D053F05BFD204653F08AFD204653F0C2FEAA
S315080034E0204653F0F1FE2063B8F1000F49D0DAF810
S315080034F01020D31D616C1439B3FBF1F3013302EBD1
S31508003500C30290423AD32368ABEB0308606CB8FB5E
S31508003510F0F808FB003054F085FE0646E16A2046BE
S3150800352053F0ABFEA36A834231D0E062354B9A680A
S31508003530616C4B1E1340226B5B1A13442363ABEB7F
S3150800354006072368079DED1AB5FBF1F5A845B5D121
S3150800355097B1E36B9B69BA08314698478046E36A98
S315080035603B44E362236BA6EB0B061E44266304F179
S31508003570080000F011FCA3E7B846A1E7049D059EE4
S3150800358007E0049D059E2046FFF7B0FE01E0049D76
S31508003590059E2DB3DAF81010226BCB1D606C14381B
S315080035A0B3FBF0F3013301EBC3018A4218D3E76A90
S315080035B0144D3946284600F0D9FC07AB0293CDF8DE
S315080035C0049000963B462A465146204654F0A1F9F7
S315080035D0054600287FF46BAF0A4B9B68E362D8E781
S315080035E02F461FB1384609B0BDE8F08F4B46054A4D
S315080035F05268DAF8001004F1080000F025FCF1E73B
S315080036001C27EFE77C300020F0B583B01C46032A60
S3150800361005D1237A012B33D0012003B0F0BD06462D
S315080036200F4615460DF10703164A0968FFF7DCFC35
S3150800363060600028EDD19DF80730032BE9D0114BC7
S315080036405A687B689A42E4D1237A012B08D13B69F0
S31508003650E26813447269934202D900232374D8E7B7
S31508003660E3683A6913440833E3602B460122394676
S315080036703046FFF703FF60600028CAD00020CCE779
S31508003680207CCAE7A8300020F0B583B0089C2668DD
S31508003690032A05D1237A012B4DD0012003B0F0BDB2
S315080036A015460DF10703254A3046FFF79DFC606075
S315080036B00028EFD12168214B5A688B6A486CC0F103
S315080036C0000C5A4012EA0C0FE4D1227A012A19D0CA
S315080036D00F68DB1BB3FBF0F3CA6AD21BB2FBF0F22E
S315080036E09A4219D0E36815490A6913440833E36016
S315080036F02B4601222068FFF7C1FE60600028C9D06A
S315080037000020CBE70D4A1269E7683A447769BA425E
S31508003710DED900232374BDE7726CF16A531E0B4091
S31508003720316B9B1A0B4433632668B16A304653F0F3
S31508003730A4FDF062D6E7207CB0E700BFA8300020E1
S31508003740F8B56E4B1E6800221A60002800F0B68095
S315080037500D46044690F8343013B30A6803689A4253
S3150800376040F0AE804A6843689A4240F0AC808A6866
S3150800377083689A4240F0A980CA68C3689A4240F0B2
S31508003780A6800A6943699A4240F0A3808A69C36B96
S315080037909A4201D05D2594E04B698361002590E04B
S315080037A0876B682200215FF0F5FCA7632B6823600E
S315080037B06B6863602B6963616B69A361EA68A968D2
S315080037C004F1080000F0FAFAAB69E3639B6804F1B8
S315080037D04000984730B9636C23B16268B2FBF3F2D4
S315080037E0E26101E00023E36194F84330002B72D0D4
S315080037F000232366656C002D6FD0E369002B6ED01D
S315080038002368B3FBF5F205FB1233002B69D1676811
S31508003810B7FBF5F305FB1373002B64D1204653F071
S315080038203EFAA369034404339F425ED36369B3F542
S31508003830805F5CD8CB2B5CD9B5F5805F5BD3032161
S31508003840204653F098FBE36B1B686168206898472D
S315080038500546E36BDB6802209847EDB1636C143BC1
S315080038605DB9266A03FB06F6204653F018FAA369E3
S31508003870034404339E4200D25A25B5FA85F35B0900
S3150800388084F834301BB11E4A13680133136085B1BE
S31508003890204653F012FE14E03146204653F090FDC0
S315080038A005466428DAD13146204653F089FD054697
S315080038B0D4E76168206854F01BFBE9E7212500E09E
S315080038C05D252846F8BD5D25FBE75D25F9E75D25FD
S315080038D0F7E75D25F5E72125F3E75B25F1E75B25A6
S315080038E0EFE75925EDE75925EBE75A25E9E75F257F
S315080038F0E7E75F25E5E75B25E3E700BF0C2A00203D
S31508003900082A0020F0B585B0A8B30C4617461E460F
S31508003910054690F8343083B3B1F5801F2FD20121C4
S3150800392053F029FB0DF10F03164A21462846FFF7E7
S315080039305BFB044630B99DF80F30012B08D0022BEB
S3150800394017D02D24284653F0B8FD204605B0F0BD03
S315080039500C4B1B69B34201D06324F3E700220192A2
S31508003960084B009333463946284653F0AEFD0446C5
S31508003970E8E76024E6E72124E7E71124E5E72924B8
S31508003980E3E700BFD4300020F0B585B0002838D072
S315080039900C4617461E46054690F834309BB3B1F5DB
S315080039A0801F32D2012153F0E6FA0DF10F03184AAF
S315080039B021462846FFF718FB044630B99DF80F3014
S315080039C0012B08D0022B1AD02D24284653F075FD5A
S315080039D0204605B0F0BD0E4B1A690A9BF3189A42A9
S315080039E001D26324F1E700230193094B00930A9B54
S315080039F032463946284653F068FD0446E5E7602412
S31508003A00E3E72124E4E71124E2E72924E0E700BFFD
S31508003A10D430002070B582B058B30C461646054619
S31508003A2090F834303BB3B1F5801F26D2012153F00C
S31508003A30A2FA0DF10703124A21462846FFF7D4FADF
S31508003A40044668B99DF80730032B10D0022B01D025
S31508003A50612406E00A49284653F01FFF306000E05B
S31508003A602D24284653F029FD204602B070BD2D248A
S31508003A70F7E72124F8E71124F6E72924F4E700BF3D
S31508003A80D4300020F0B583B01C460023236070B301
S31508003A900E461746054690F8343053B3B1F5801FE5
S31508003AA029D2012153F067FA0DF10703134A31466B
S31508003AB02846FFF799FA064680B99DF80730032B82
S31508003AC013D0022B05D000233B600C4B1B692360E7
S31508003AD005E001233B600423236000E02D262846E9
S31508003AE053F0EBFC304603B0F0BD2D26F7E7212650
S31508003AF0F8E71126F6E72926F4E700BFD4300020B8
S31508003B0000B583B0044B009300231A46194654F0B7
S31508003B10F5F803B05DF804FBFFFF0F0000B583B0AE
S31508003B20044B009300231A46194654F0F1F803B0E3
S31508003B305DF804FBFFFF0F002DE9F8431D469DF8CD
S31508003B4020704369AB422FD304468846914653F00A
S31508003B50A2FD032F06D0266B2946204653F090F87F
S31508003B60864225D3134E4FF0FF31304600F0FEF95A
S31508003B70C6F800803561C6F80C903B4600223146EF
S31508003B802046FFF77BFC0546236E73B1204654F0AA
S31508003B90C9F894F8503013B994F858302BB1236EFD
S31508003BA004F15000984700E062252846BDE8F883EE
S31508003BB01C25FAE7A83000202DE9F04184B000283A
S31508003BC03AD00C4690461F46054690F83430ABB3BB
S31508003BD0B1F5801F34D2022153F0CDF90DF10F0350
S31508003BE0184A21462846FFF7FFF918B99DF80F30FD
S31508003BF0012B0FD0012300933B4642462146284617
S31508003C00FFF79AFF0646284653F057FC304604B09D
S31508003C10BDE8F0810B4B1B69BB42EBD10123019335
S31508003C20084B00933B4600224146284653F04DFC7C
S31508003C3006460028E7D0DDE72126E7E71126E5E76F
S31508003C402926E3E7D430002070B586B00392C0B3C6
S31508003C500C46054690F83430ABB3B1F5801F34D224
S31508003C60022153F088F90DF11703194A214628460F
S31508003C70FFF7BAF9064638B99DF81730032B03D073
S31508003C80022B10D0612608E002230093CC2303AA56
S31508003C9021462846FFF750FF0646284653F00DFCF6
S31508003CA0304606B070BD0A49284653F0F6FD039A19
S31508003CB08242F2D003460649284654F05EF8064684
S31508003CC0EBE72126ECE71126EAE72926E8E700BF15
S31508003CD0D430002030B585B048B30C46054690F878
S31508003CE0343033B3B1F5801F25D2022153F043F99E
S31508003CF00DF10F03114A21462846FFF775F978B9E1
S31508003D009DF80F30032B01D12D240AE003230093DD
S31508003D1000231A4621462846FFF70EFF044600E010
S31508003D202D24284653F0C9FB204605B030BD212472
S31508003D30FAE71124F8E72924F6E700BFD430002073
S31508003D40036853F83100C0F313007047036853F84B
S31508003D503100C0F307507047036803EBC103586886
S31508003D60704700BF006850F831301B0D1B05134320
S31508003D7040F83130704700BF006850F83130C3F35F
S31508003D80130343EA025340F831307047036803EBE4
S31508003D90C1035A60704700BF002309E002684FF06C
S31508003DA0FF3142F83310026802EBC3025160013357
S31508003DB042689A42F2D800230372704708B5016038
S31508003DC04260FFF7E9FF08BD002342689A421BD903
S31508003DD010B403E0013342689A4212D904684FEAE4
S31508003DE0C30C54F83320B2F1FF3FF3D0C2F31302E9
S31508003DF09142EFD14FF0FF3244F80C200368634438
S31508003E005A605DF8044B7047704700BF10B5002331
S31508003E1000E0013344689C4212D904684FEAC30E95
S31508003E2054F83340B4F1FF3FF3D0C4F3130C6145A3
S31508003E30EFD1C4F30754147003687344586801E05B
S31508003E404FF0FF3010BD00BF2DE9F0474568064624
S31508003E507DB30F46914698460024D0F800A05AF83C
S31508003E603430013305D021463046FFF769FFB842A2
S31508003E7010D00134A542F2D1002402E00134A54253
S31508003E8014D05AF834300133F8D13A462146304630
S31508003E90FFF768FF424621463046FFF76DFF4A4660
S31508003EA021463046BDE8F047FFF770BFB8F1030F6B
S31508003EB003D101233372BDE8F087002402E0013400
S31508003EC0A542F6D021463046FFF740FF0328F6D133
S31508003ED03A4621463046FFF745FFDBE72DE9F04332
S31508003EE09146426883B00AB30546884600242B6883
S31508003EF053F83430013316D021462846FFF720FF01
S31508003F00214607462846FFF721FF2146064628464A
S31508003F10FFF722FF3946034632462846CDF8009079
S31508003F20C04718B16A6801349442E0D303B0BDE8CB
S31508003F30F08300BF08B5034B1968034B1868FFF7F1
S31508003F40FFFB08BD345A0020545A002008B572F009
S31508003F5078F9014B186008BD0031002008B5024BFE
S31508003F60186872F069F908BD0031002038B50446B2
S31508003F700D46094B1A6800215FF00CF94FF0FF3225
S31508003F80226065600023A3752361A260E3756376EA
S31508003F90A376237638BD00BF106A07082DE9F041DD
S31508003FA086B006460D4617469846586854F07EF879
S31508003FB04403A4B298F803301B0303F480531C444B
S31508003FC098F80230DB0203F400631C44B8F80030AA
S31508003FD0C3F30A031C441B4B01930021384654F0D3
S31508003FE06FF802900121384654F06AF803904FF0B2
S31508003FF0FF3304936FEA04446FEA14440594B369E3
S31508004000012205A905F1100098470446B369012263
S3150800401003A905F108009847074600B92746B3697A
S31508004020012202A9281D9847044600B93C46B369EF
S31508004030012201A92846984700B9204606B0BDE8DE
S31508004040F08100BF01009AB270B504460D461646C7
S315080040501F2906D856B104F580540123AB402360C6
S3150800406070BD9121034852F04CFDF3E704F5005466
S31508004070F3E700BF186A070838B505460C46114B22
S31508004080D3F8803003F00303022B13D0032B15D08B
S31508004090012B07D041F22E210B4852F032FD0023A6
S315080040A0184602E06EF04AFB0D2305B1286004B1FC
S315080040B0236038BD6EF0E0FA0723F6E76EF0C4FA1F
S315080040C00623F2E700800050846A070838B50546DB
S315080040D00C46194BD3F8200100F0070006281DD816
S315080040E0DFE800F0240408100C1418006EF0ACFA8F
S315080040F005231CE06EF0B6FA032318E06EF0BCFA4E
S31508004100072314E06EF0AAFA022310E06EF09CFA78
S3150800411006230CE06EF0A6FA042308E041F2AB2170
S31508004120064852F0EEFC0023184600E0012305B1CC
S31508004130286004B1236038BD00800050846A0708EF
S3150800414038B505460C46184BD3F8283103F0070353
S31508004150013B052B20D8DFE803F003131B0F0B17D1
S315080041606EF072FA052305B1286004B1236038BDE4
S315080041706EF06AFA0623F6E76EF07EFA0723F2E790
S315080041806EF070FA0323EEE76EF06CFA0423EAE7A2
S315080041906EF064FA0223E6E741F2A501034852F0FD
S315080041A0B0FC00231846DEE700800050846A070842
S315080041B030B583B005460C4600230193174BD3F858
S315080041C0203203F00703042B19D8DFE803F01F0396
S315080041D0090E1300002101A8FFF7B2FF112316E00C
S315080041E06EF04AFA0190072311E071F069F901901F
S315080041F00A230CE06EF096FA0190092307E041F2D3
S315080042006201074852F07DFC002300E001230DB14E
S31508004210019A2A6004B1236003B030BD00800050C3
S31508004220846A070870B582B006460D4600230193D6
S31508004230134BD3F8804104F00304022C1BD0032C43
S3150800424014D0012C06D041F20E410E4852F059FC0A
S31508004250002404E0002101A8FFF738FF0F240EB15F
S31508004260019B336005B12C6002B070BD6EF004FA94
S3150800427001900724F3E76EF0F1F90190EFE700BF2C
S3150800428000800050846A070838B505460C46124B6C
S31508004290D3F8400100F0030003280FD8DFE800F048
S315080042A01602060A71F00CF90A2310E06EF03AFAC3
S315080042B009230CE071F007F90B2308E041F2DD2130
S315080042C0064852F01EFC0023184600E0012305B1FB
S315080042D0286004B1236038BD00800050846A07084E
S315080042E038B505460C46154BD3F8000200F0070012
S315080042F0042815D8DFE800F01C03070B0F0071F03F
S31508004300DFF80A2315E06EF00DFA092311E071F0C3
S31508004310DAF80B230DE06EF035FA800A0E2308E072
S3150800432041F2CC41064852F0ECFB0023184600E067
S31508004330012305B1286004B1236038BD0080005010
S31508004340846A070838B505460C46154BD3F80802A3
S3150800435000F00700042815D8DFE800F01C03070B57
S315080043600F0071F0ADF80A2315E06EF0DBF90923AA
S3150800437011E071F0A8F80B230DE06EF003FA800A3D
S315080043800E2308E041F20451064852F0BAFB002316
S31508004390184600E0012305B1286004B1236038BD42
S315080043A000800050846A070838B505460C46124B4B
S315080043B0D3F8400200F0030003280FD8DFE800F026
S315080043C01602060A71F07CF80A2310E06EF0AAF9C4
S315080043D009230CE071F077F80B2308E041F28B41D2
S315080043E0064852F08EFB0023184600E0012305B16B
S315080043F0286004B1236038BD00800050846A07082D
S3150800440030B583B005460C4600230193174BD3F805
S31508004410603203F00703013B032B1FD8DFE803F0E4
S31508004420020E1914002101A8FFF750FE0F230DB143
S31508004430019A2A6004B1236003B030BD002101A8A7
S31508004440FFF722FF1023F2E76EF016F90190072313
S31508004450EDE76EF003F901900223E8E741F209114E
S31508004460034852F04EFB0023E1E700BF00800050EE
S31508004470846A070830B583B005460C4600230193C5
S315080044800E4BD3F8703203F00303012B08D0022B2E
S315080044900CD041F267110A4852F033FB002306E0BC
S315080044A0002101A8FFF7F0FE102300E014230DB148
S315080044B0019A2A6004B1236003B030BD0080005021
S315080044C0846A070838B505460C460E4BD3F8903271
S315080044D003F00303012B09D0022B0BD16EF0CCF8A5
S315080044E0072305B1286004B1236038BD6EF0B6F81D
S315080044F00223F6E741F29111034852F002FB00232A
S315080045001846EEE700800050846A070838B5054665
S315080045100C46124BD3F8600100F0030003280FD8AD
S31508004520DFE800F01602060A70F0CAFF0A2310E058
S315080045306EF0F8F809230CE070F0C5FF0B2308E0CD
S3150800454041F20F31064852F0DCFA0023184600E023
S31508004550012305B1286004B1236038BD00800050EE
S31508004560846A070838B505460C46114BD3F8A032BD
S3150800457003F00303022B0BD0032B0DD0012B0FD016
S3150800458041F252510B4852F0BCFA0023184609E092
S315080045906EF0C8F8092305E070F092FF0A2301E0DF
S315080045A01823054805B1286004B1236038BD00BF4B
S315080045B000800050846A0708006CDC0238B505469E
S315080045C00C46124BD3F8000100F0030003280FD85D
S315080045D0DFE800F01602060A6EF044F8032310E03E
S315080045E06EF0A0F809230CE06EF042F8082308E004
S315080045F041F26421064852F084FA0023184600E086
S31508004600012305B1286004B1236038BD008000503D
S31508004610846A070808B5344B98424ED028D8334BDD
S31508004620984244D009D9324B984243D0314B9842EC
S3150800463018D1314BD3F880000DE0304B98420ED09C
S3150800464008D92F4B98420AD02E4B984245D12A4B6F
S31508004650586E00E000B908BD2B4B98423DD1264B59
S31508004660986DF8E7294B984237D1234B586FF2E7F4
S31508004670274B984229D009D9264B984229D0264B50
S3150800468098422AD11C4BD3F89C00E4E7234B984266
S3150800469017D0234B984203D1174BD3F89000DAE78B
S315080046A0204B984219D1144BD3F88800D3E7124B04
S315080046B0186FD0E7104B986FCDE70F4BD3F88400EF
S315080046C0C9E70D4BD3F88C00C5E70B4BD3F894001C
S315080046D0C1E7094BD3F89800BDE741F2E331124828
S315080046E052F00FFA0020B6E70048E801405DC60020
S315080046F0C0EA210180BA8C010080E00F80841E0088
S3150800470000093D00C0CF6A0040420F000024F400B3
S315080047100090D00300B4C40400E1F505006CDC0287
S31508004720007E560380D54302846A070808B52E4BD7
S31508004730984241D00DD92D4B984245D02FD92C4BB4
S31508004740984245D02B4B984222D12B4BD3F8D00018
S315080047501AE02A4B98423FD00CD9294B98423FD0B1
S3150800476003F5371303F5D863984211D1224BD3F8D2
S31508004770B80009E040B1234B984202D0224B984238
S3150800478003D11D4BD3F8A00008BD204B9842F8D0A2
S3150800479041F2F8111E4852F0B4F90020F4E71D4B17
S315080047A098420DD003F5742303F510739842EFD1A0
S315080047B0114BD3F8C400E7E70F4BD3F8BC00E3E787
S315080047C00D4BD3F8C000DFE70B4BD3F8C800DBE787
S315080047D0094BD3F8CC00D7E7074BD3F8A400D3E7A7
S315080047E0054BD3F8B000CFE70024F40080BA8C015B
S315080047F00048E801005A62020080E00F404B4C0076
S315080048008096980080841E0000093D0040420F00F3
S31508004810846A0708C0EA210110B5B0F5207F2FD0B9
S315080048201DD8B0F5007F25D02FD810B1B0F5C07FC0
S3150800483013D1174B1C6F230BC4F3033413F00E0F5D
S3150800484024D048F28803E34013F0010F1ED140F24A
S315080048508B21104852F055F918E0002416E0B0F5FF
S31508004860607F05D10A4BD3F88040C4F301140DE0EC
S3150800487000240BE0064BD3F89040C4F3046405E02B
S31508004880034B1C6FC4F3802400E00024601C10BD99
S3150800489000800050846A070838B505460C461A4B4E
S315080048A04FF480329A660020FFF7B6FF05FB00F04A
S315080048B0164BDA6902F4803241F67131D9635B68C6
S315080048C023F440136CB91249884217D81149884213
S315080048D017D81149884201D8002105E04FF4801104
S315080048E002E0002C07DD00210B4308494B600AB1A2
S315080048F00022CA6338BD4FF44011F5E74FF4401162
S31508004900F2E74FF40011EFE7009000500000035063
S31508004910C068780480F0FA0240787D0138B504460C
S315080049200D46430905D0012B16D0022B0DD10B4895
S3150800493005E040F23B310A4852F0E3F800202A46E7
S3150800494004F01F01FFF780FB38BD40F249310448E7
S3150800495052F0D7F80020F2E70248F0E768800050E6
S31508004960846A07086480005010B582B0002301935A
S315080049700093B0F5807F00F20781B0F5807F00F2E2
S31508004980CF81DFE810F05801CD01CD01CD01CD0171
S31508004990CD01CD01CD01CD01CD01CD01CD01CD0199
S315080049A0CD01CD01CD01CD01CD01CD01CD01CD0189
S315080049B0CD01CD01CD01CD01CD01CD01CD01CD0179
S315080049C0CD01CD01CD0158018D0158018D01A501FB
S315080049D0A501A501A501A501A501AA014901B401E1
S315080049E02E0149018D018D018D01CD01CD01CD012C
S315080049F0CD01CD01CD01CD01B4018D018D018D0112
S31508004A007A01B9018D01CD01CD01CD01CD01CD01CF
S31508004A10CD01CD01CD01CD01CD01CD01CD011801CD
S31508004A201801580158015801720149014901BE018E
S31508004A308201620118011801CD01CD01CD017A016B
S31508004A40A501A501C801CD01CD01CD01CD01CD013D
S31508004A50CD01CD01CD01CD01CD01CD01CD01CD01D8
S31508004A60CD01CD01CD01CD01CD01CD01CD01CD01C8
S31508004A70CD01CD01CD01CD01CD01CD01CD01CD01B8
S31508004A80CD01CD01CD018701CD01CD01CD01CD01EE
S31508004A90CD01CD01CD01CD01CD01CD01CD01CD0198
S31508004AA0CD01CD01CD01CD01CD01CD01CD01CD0188
S31508004AB0CD01CD01CD01CD01CD01CD01CD01CD0178
S31508004AC0CD01CD01CD01CD01CD01CD01CD01CD0168
S31508004AD0CD01CD01CD01CD01CD01CD01CD01CD0158
S31508004AE0CD01CD01CD01CD01CD01CD01CD01CD0148
S31508004AF0CD01CD01CD01CD01CD01CD01CD01CD0138
S31508004B00CD01CD01CD01CD01CD01CD01CD01CD0127
S31508004B10CD01CD01CD01CD01CD01CD01CD01CD0117
S31508004B20CD01CD01CD01CD01CD01CD01CD01CD0107
S31508004B30CD01CD01CD01CD01CD01CD01CD01CD01F7
S31508004B40CD01CD01CD01CD01CD01CD01CD01CD01E7
S31508004B50CD01CD01CD01CD01CD01CD01CD01CD01D7
S31508004B60CD01CD01CD01CD01CD01CD01CD01CD01C7
S31508004B70CD01CD01CD01CD01CD01CD01CD01CD01B7
S31508004B80CD01CD01CD01AF01B0F5E06F00F0B480E5
S31508004B9016D9B0F5206F00F0B4805BD9B0F5306F48
S31508004BA000F0B4806ED9B0F5386F00F0A080B0F58B
S31508004BB0406F40F0B580002101A8FFF7C1FA6CE00C
S31508004BC0B0F5607F77D011D9B0F5B06F00F0858069
S31508004BD035D9B0F5C06F00F08A80B0F5D06F40F0D7
S31508004BE09F80002101A8FFF77BFB56E0B0F5007F08
S31508004BF00AD16DF0A3FD04464FF40070FFF70CFED2
S31508004C00B4FBF0F4019448E012D9B0F5207F47D000
S31508004C10B0F5407F40F084806DF0B4FD04464FF453
S31508004C202070FFF7F9FDB4FBF0F46408019434E052
S31508004C30B0F5C07F74D16DF0A5FD01902DE0B0F5FB
S31508004C40806F45D0B0F5A06F6AD1002101A8FFF7A3
S31508004C50AFFA22E0B0F5086F04D1002101A8FFF7EA
S31508004C60ADFC1AE0B0F5106F04D1002101A8FFF7DA
S31508004C7069FB12E0B0F5F06F52D1002101A8FFF7E9
S31508004C8045FC0AE0B0F5286F4AD1002101A8FFF7D4
S31508004C90F1FB02E06DF052FD0190019802B010BDE3
S31508004CA06DF070FD04464FF42070FFF7B5FDB4FBB8
S31508004CB0F0F40194F1E700216846FFF7DDF9009C5E
S31508004CC04FF46070FFF7A8FDB4FBF0F40194E4E735
S31508004CD0002101A8FFF7FAF9DFE7002101A8FFF78D
S31508004CE0A1FADAE7002101A853F0DEFAD5E7002198
S31508004CF001A8FFF7C9FAD0E7002101A8FFF754FB7E
S31508004D00CBE7002101A8FFF77BFBC6E7002101A836
S31508004D10FFF7D8FBC1E7002101A8FFF723FCBCE792
S31508004D2040F2AA41014851F0ECFEB6E7846A07084A
S31508004D3000B583B000230193B0F5807F00F053815E
S31508004D4018D9B0F5086F00F0588140F2DB80B0F54D
S31508004D50306F00F0618140F20581B0F5386F00F0E0
S31508004D604781B0F5406F40F0618101A90020FFF747
S31508004D70E7F92FE1802800F259812428C0F05681EE
S31508004D8024385C2800F2528101A353F820F000BFB2
S31508004D90DD4F0008DD4F0008DD4F0008DD4F000835
S31508004DA0DD4F0008DD4F0008CD4F00082D500008E4
S31508004DB0F14F00085B4F00082D5000082D500008E1
S31508004DC02D5000082D5000082D5000082D500008C1
S31508004DD02D5000082D5000082D5000082D500008B1
S31508004DE02D500008F14F00082D5000082D500008DE
S31508004DF02D5000081D4F0008055000082D500008CA
S31508004E002D5000082D5000082D5000082D50000880
S31508004E102D5000082D5000082D5000082D50000870
S31508004E202D5000082D5000082D5000082D50000860
S31508004E306B4D00086B4D00082D5000082D500008DA
S31508004E402D500008814F00082D5000082D500008ED
S31508004E500F500008714F0008454F00086B4D0008B9
S31508004E606B4D00082D5000082D5000082D500008E5
S31508004E701D4F0008DD4F0008DD4F000823500008CD
S31508004E802D5000082D5000082D5000082D50000800
S31508004E902D5000082D5000082D5000082D500008F0
S31508004EA02D5000082D5000082D5000082D500008E0
S31508004EB02D5000082D5000082D5000082D500008D0
S31508004EC02D5000082D5000082D5000082D500008C0
S31508004ED02D5000082D5000082D5000082D500008B0
S31508004EE02D5000082D5000082D5000082D500008A0
S31508004EF02D5000082D5000082D5000082D50000890
S31508004F008B4F0008B0F5B06F60D00CD9B0F5E06FE4
S31508004F1078D01CD9B0F5F06F40F0888001A9002040
S31508004F20FFF7F4FA56E0B0F5607F04D101A9002036
S31508004F30FFF7A2F84EE079D3B0F5806F4ED0B0F502
S31508004F40A06F73D101A90020FFF732F942E0B0F54E
S31508004F50C06F4DD0B0F5D06F68D101A90020FFF71A
S31508004F60BFF937E0B0F5206F51D0B0F5286F04D1FE
S31508004F7001A90020FFF77EFA2CE0B0F5106F55D195
S31508004F8001A90020FFF7DEF924E02B4B1B6F03F085
S31508004F900703013B042B13D8DFE803F00C030609CB
S31508004FA00F000523019315E00323019312E008235C
S31508004FB001930FE0022301930CE01923019309E002
S31508004FC040F2DC411D4851F09CFD03E001A9002098
S31508004FD0FFF728F9019803B05DF804FB01A9002042
S31508004FE0FFF774F8F6E701A9002053F05DF9F1E739
S31508004FF001A90020FFF748F9ECE701A90020FFF70F
S31508005000DDFAE7E701A90020FFF7CEF9E2E701A9F3
S315080050100020FFF7F5F9DDE701A90020FFF752FAAE
S31508005020D8E701A90020FFF79DFAD3E740F28F5190
S31508005030024851F066FDCDE700800050846A0708F3
S31508005040094B596E03F580534FF480325A66074A66
S31508005050536A23F00103536211F4803F03D1044BD2
S315080050604FF480325A6670470080005000C00750DF
S3150800507000A00050274B4FF000429A66264B45F693
S315080050800E021A6303F580520221D16003F500531C
S315080050900122DA60204B1B6913F4003FFAD102683B
S315080050A01E4B9A4231D01E4B4FF40072DA611A4BEE
S315080050B01B6913F0804FFAD1174AD36823F0FF73A0
S315080050C023F4FF3323F4897323F0010301680B43A8
S315080050D0017943EA0113417943EA410381790B4394
S315080050E0D3600D4B1B6913F0804FFAD1837933B126
S315080050F0094B1B6903F44033B3F5403FF8D1C37934
S3150800510013B1054B074A1A637047074B4FF40072F1
S31508005110DA61CCE7009000500040005700013600E5
S3150800512000600057F1A7FFFF0050005710B504466E
S315080051308020FFF7FDFD19283FD0E379083BDBB255
S31508005140172B40D8237A043BDBB20B2B41D8637A62
S31508005150203BDBB25F2B42D8244B4FF400729A6691
S31508005160234A48F2A953C2F8B030536923F481732D
S31508005170217943EA0123617943EA41035361916D39
S315080051801C4B0B40E17943EA0143217A43EA013398
S31508005190617A0B4393652068FDF766F863792BB14E
S315080051A0134B1B6A03F00303032BF9D1A3791BB135
S315080051B00F4B114AC3F8B02010BD40F665310F48B1
S315080051C051F09FFCB9E740F666310C4851F099FC5E
S315080051D0B8E740F66731094851F093FCB7E740F65F
S315080051E06831064851F08DFCB6E700BF00900050C4
S315080051F000800C50800FE0FFF1A7FFFF846A0708C4
S3150800520010B5044603680F2B00F2BA8063680F2BAB
S3150800521000F2BC80A3680F2B00F2BE80237B0F2B05
S3150800522000F2C080637B0F2B00F2C280A37B3F2B6A
S3150800523000F2C480E37B3F2B00F2C6802369032B70
S3150800524000F2C8806369032B00F2CA80E369032B66
S3150800525000F2CC808020FFF76BFD032800F0EA807F
S31508005260754B4FF480125A66744B45F60E02C3F816
S31508005270802003F580524FF0A061916203F5005338
S315080052804FF480329A626D4B9B6D13F4803FFAD1CE
S315080052906A4B9B6D13F0804FFAD1226863681B0531
S315080052A043EA0263227B43EA0243627B43EA023310
S315080052B0A27B43EA8213E27B1343604A1361936934
S315080052C003F00043216943EA8163616943EA0163A4
S315080052D0217E43EA0143617E43EA0123A17E0B4313
S315080052E09361136A23F00F03E269002A40F0848071
S315080052F011460B43E17E43EA81031A434F4B1A6278
S31508005300E369002B7AD14D4A916A4D4B0B4094F8CC
S31508005310201043EA411394F8211043EA011394F844
S31508005320241043EAC10343F480339362434B9A6DD6
S31508005330444B9343FAD1414A02F580514FF08073AA
S315080053408B62136923F47003A06843EA0053136160
S315080053504FF000438B6194F822301BB93A4B4FF05B
S3150800536080729A6294F82330002B5CD1364B4FF446
S3150800537080329A62314B9B6D13F0804FFAD152E01E
S3150800538040F69431314851F0BCFB3FE740F697317F
S315080053902E4851F0B6FB3DE740F69A312B4851F0BE
S315080053A0B0FB3BE740F69D31284851F0AAFB39E7A8
S315080053B04FF43A61254851F0A4FB37E740F6A3318C
S315080053C0224851F09EFB35E740F6A6311F4851F0BA
S315080053D098FB33E740F6A9311C4851F092FB31E7B8
S315080053E040F6AC31194851F08CFB2FE740F6AF3147
S315080053F0164851F086FB2DE708217AE70F4A916A8D
S315080054000F4B0B4094F8201043EA411394F82210EE
S3150800541043EA016394F8241043EAC10394F823107D
S3150800542043EA0143936294F825301BB1034B084ABB
S31508005430C3F8802010BD00BF009000500040005AFD
S31508005440C7FFFEFE030001000060005A846A0708D1
S31508005450F1A7FFFF014B93F900007047F2630020A4
S3150800546010B504464368072B46D8A368032B49D8CA
S315080054702378032B4CD894F90130002B4EDB637844
S315080054804F2B28BF4F231A46274B4FF40001596666
S3150800549003F5B8334FF4D151596203F58051022010
S315080054A0486003F5005301215960204B1B6913F42A
S315080054B0803FFAD1237842EA03231C4A5361616884
S315080054C0A3681B0143EA0123217B43EA4103617B6D
S315080054D00B439360A17BE37B1B0143EA4113217CC9
S315080054E043EA4103617C0B435360A37C1BB113461B
S315080054F06FF4D1525A6210BD40F6F2510C4851F081
S3150800550000FBB2E740F6F451094851F0FAFAAFE762
