S02B0000433A2F55736572732F6162736F6D2F4F6E6544726976652F4465736B746F702F534352432046696CEC
S3150800000000040020812D0008BD980508BD98050844
S31508000010BD980508BD980508BD980508BD9805084A
S31508000020BD980508BD980508BD980508C971070853
S31508000030BD980508BD9805086D710708E998070871
S31508000040BD980508BD980508BD980508BD9805081A
S31508000050BD980508BD980508BD980508BD9805080A
S31508000060BD980508BD980508BD980508BD980508FA
S31508000070BD980508BDDD0108ADDD01089DDD010857
S315080000808DDD0108BD980508BD980508BD980508C9
S31508000090BD980508BD980508BD980508BD980508CA
S315080000A0BD980508BD980508BD980508BD980508BA
S315080000B0C1380008BD980508BD980508BD9805080B
S315080000C0953400086D340008BD980508BD980508E4
S315080000D02D7A0208E58302089D8406089984060895
S315080000E0D57A0208B3840608A1840608B5830208EF
S315080000F0A58406084984020839850208BD980508BA
S31508000100BD980508BD980508BD980508BD98050859
S31508000110BD980508BD980508BD980508BD98050849
S31508000120BD980508BD980508BD980508BD98050839
S31508000130BD980508BD980508BD980508BD98050829
S31508000140BD980508BD980508BD980508BD98050819
S31508000150BD980508BD980508BD980508BD98050809
S31508000160BD980508BD980508357F0108BD9805089E
S31508000170BD9805085FA807088D6102088D840608E2
S3150800018093840608BD980508BD980508BD98050816
S31508000190BD980508BD980508BD980508BD980508C9
S30D080001A0B7840608BD9805089E
S315080001A8194A5AB3194BDB6913F0040F29D110B44D
S315080001B80AE003EA00048C4210D0013AB2B1134BA4
S315080001C8DB6913F0040F14D110F0010FF1D1104CAC
S315080001D81C40002CEDD06FF001000CE00C4A1A40C8
S315080001E80AB9002007E06FF0010004E06FF002008A
S315080001F801E04FF0FF305DF8044B70476FF00200DE
S3150800020870474FF0FF3070478096980000000350FB
S31508000218020001000D4BDB6913F4803F12D170B55B
S315080002280A4B03F580560124F46003F500552C643F
S315080002384FF480721A6100212046FFF7B1FF346433
S31508000248EC6070BD6FF00100704700BF00000350F6
S3150800025838B50446C0F30C03FBB9154B4FF4803286
S315080002689A6603F51C33DD69154041F67132DA637F
S3150800027803F580520121D1605C6102221A610021CE
S315080002882120FFF78DFF70B10A4B0122DA601DB1F4
S31508000298A3F500530022DA6338BD4FF408710648FF
S315080002A800F096F8D9E700212120FFF779FFEBE758
S315080002B8009000500020035084B0070838B51A4B40
S315080002C85861DB6913F0040F2AD10C4654F8041B4D
S315080002D8154B9961151F06E0214651F8042B124B58
S315080002E89A61043D0C465DB108210846FFF758FF98
S315080002F803460028F0D00C4A04211161184638BD77
S31508000308094B04221A6100212120FFF749FF0346F9
S315080003180028F3D100212120FFF742FF0346EDE725
S315080003284FF0FF33EAE700BF000003502DE9F0411C
S315080003380F461646054610F0030F14D116F0030F9C
S3150800034817D1204B4FF480329A6603F51C33DA69C5
S3150800035802F4803841F67132DA6303F580530122D4
S31508000368DA6000230EE04FF41B71174800F030F8E6
S31508000378E4E740F26E21144800F02AF8E1E725443C
S315080003882744361B8EB105F5005424F4FF5424F08F
S315080003981F04641BB44228BF3446224639462846F9
S315080003A8FFF78CFF03460028E9D0084A0121D160E7
S315080003B8B8F1000F03D0A2F500520021D163184600
S315080003C8BDE8F0810090005084B00708002003506B
S30D080003D85FF800F0D398050850
S31508000400013800D0FCE770472DE9F04F2DED028B3F
S3150800041093B082460C4693461D4657EC106B8DEDFD
S31508000420080B32463B46304639461EF0D9F90028B5
S3150800043000F009814FF0FF32B14B304639461EF0C5
S31508000440F7F9002840F0FF804FF0FF326FF4801371
S31508000450304639461EF0CEF9002840F0F4800022D6
S315080004600023DDE90867304639461EF0C3F900283F
S3150800047040F0FC809DED087B8DED067B209B13F4F8
S315080004808063119301D106231E93DDE90601024616
S31508000490C1F30A50C1F31303904643F07F5949F458
S315080004A04019A0F2FF301DF0C9FE83A3D3E900234B
S315080004B01DF02EFF82A3D3E900231DF073FD064627
S315080004C00F4600228F4B404649461DF069FD7EA324
S315080004D0D3E900231DF01CFF02460B463046394679
S315080004E01DF060FD1EF0AEF906461DF0A7FE80461B
S315080004F0894677A3D3E900231DF00AFF0022824B21
S315080005001DF050FD1EF09EF9074673A3D3E900239C
S31508000510404649461DF0FCFE8046894638461DF091
S315080005208DFE6FA3D3E900231DF0F2FE02460B46AB
S31508000530404649461DF034FD8046894602460B462C
S315080005401DF0E6FECDE90C0107F2FF370021002277
S31508000550CDE90A123B050B9300230A9342464B4604
S31508000560404649461DF01EFDCDE90E0142464B4662
S3150800057000204FF080411DF013FD80468946002279
S31508000580624BDDE90C011DF0EDFF0022604B1DF00A
S3150800059009FD02460B46DDE90C011DF0E3FF0022CA
S315080005A05C4B1DF0FFFC02460B46DDE90C011DF015
S315080005B0D9FF02460B46404649461DF0F3FC024663
S315080005C00B46DDE90E011DF0CDFF0022524B1DF052
S315080005D0E9FCDDE90A231DF09BFE8046894649ECC5
S315080005E0188BDDE906231EF023F940B1013E0022EF
S315080005F0474B404649461DF0B5FF41EC180B06F13E
S315080006006303C62B3BD80427209B13F4006F40D006
S3150800061035A3D3E90023DDE90689404649461EF09D
S31508000620FDF800283BD032A3D3E9002340464946CB
S315080006301EF0E0F8002832D01E9BB34221DD9E1B37
S31508000640731E1E931FE0209B02931F9B01931E9B04
S3150800065000939DED080B2B465A462146504600F05E
S31508000660CBF813B0BDEC028BBDE8F08F9FED227B73
S315080006708DED067B069607F100430793FEE60527F0
S31508000680C2E700231E93209B43F480632093002730
S315080006903E461F9B9F4241D2A3EB070840E01E9BA4
S315080006A0002BF6D0119B002BF3D01E9B013B1E930B
S315080006B0EFE700BFAFF30080FB799F501344D33FA9
S315080006C0B3C8608B288AC63F61436F63A787D23F4A
S315080006D071A379094F930A401655B5BBB16B024011
S315080006E0EF39FAFE422EE63F2D431CEBE2361A3F5F
S315080006F00000000080842E41000000000000000079
S31508000700FFFFEF7F0000F83F0000E03F00002C40AD
S3150800071000002440000018400000F03F4FF0000899
S31508000720209B13F0020902D00FB14FF000083EB12A
S3150800073053EC182BDDE906011DF014FFCDE906017F
S3150800074000220023DDE908011EF054F800283BD1F9
S31508000750209B23F400630293CDF804801E9B00932C
S315080007609DED060B2B465A462146504600F044F8A6
S31508000770002F3FF476AF209B13F0200F2CD04FF0BC
S31508000780450C00F101082B46024621466046D04733
S3150800079086EAE672A2EBE67205230593013F049703
S315080007A0002303930A230293F30F019300922B4627
S315080007B04246214650465BF0B9FEB9F1000F3FF4B8
S315080007C050AF02461F9F10E0DDE90601024601F11F
S315080007D00043CDE90623BBE74FF0650CD1E7561C6D
S315080007E02B4621462020D0473246A2EB0B03BB42BC
S315080007F0F5D3104635E700BF2DE9F04F2DED028BF6
S3150800080093B00590089192469B4659EC108B1E9D15
S3150800081042464B46404649461DF0E2FF002840D076
S315080008204FF0FF326FF48013404649461DF0E2FF51
S31508000830002845D14FF0FF32B14B404649461DF0DE
S31508000840F7FF00284BD1AAA3D3E90023404649461F
S315080008501DF0EEFF00285AD1A7A3D3E9002340468E
S3150800086049461DF0C7FF002851D100220023404603
S3150800087049461DF0BFFF002857D100230993209B46
S3150800088013F4806F5CD000241F2C5BD8092D59D92E
S3150800089004F148036B44302203F8202C013D01344F
S315080008A0F2E7209B03931F9B029303230193954B27
S315080008B000935B465246089905985BF05DFD10E18A
S315080008C0209B03931F9B0293042301938E4B009353
S315080008D05B465246089905985BF04EFD01E1209B60
S315080008E013F004030FD0894A7BB10423209903919E
S315080008F01F990291019300925B4652460899059802
S315080009005BF03AFDEDE0824AEEE70323EEE7209B33
S3150800091002931F9B0193009549EC108B5B46524648
S3150800092008990598FFF770FDDBE042464B46002024
S3150800093000211DF035FB80468946012309939EE771
S315080009400625A0E7404649461DF07CFF06461DF0F1
S3150800095075FC02460B46404649461DF021FB6D4B89
S3150800096003EBC50393ED008B53EC182B1DF0D0FC5D
S3150800097002460B46CDE906231DF08CFF07461DF0FF
S315080009804DFC02460B46DDE906011DF009FB024651
S315080009900B46CDE9062300225F4B1DF049FF50B3F5
S315080009A0013738461DF03AFC02460B4651EC180B47
S315080009B01DF02AFF08B10136002755BB30461DF049
S315080009C03DFC02460B46404649461DF0E9FA80467C
S315080009D089460022504B1DF00DFF38B100224E4BC0
S315080009E0404649461DF024FF002842D016F0010F64
S315080009F03FD001363DE00022474BDDE906011DF0F8
S31508000A00F9FE0028D9D117B117F0010FD5D0013753
S31508000A10D3E71F2C17D8013D404BA3FB0723DB0860
S31508000A20194603EB8303A7EB4303621C303304F137
S31508000A3048000DEB000404F8203C092F02D90F46A4
S31508000A401446E6E714461F2C0AD86B1E45B104F176
S31508000A5048026A44302102F8201C1D460134F2E798
S31508000A601F2C06D804F148036B442E2203F8202CC9
S31508000A7001341F2C17D82A4A82FB0632F317C3EB18
S31508000A80A2031A4603EB8303A6EB4303611C303328
S31508000A9004F148000DEB000404F8203C16460AB1A0
S31508000AA00C46E6E70C46209B03F00303012B39D0DE
S31508000AB01F2C09D8099B002B51D004F148036B441D
S31508000AC02D2203F8202C0134209B03931F9B0293AD
S31508000AD001940AAB00935B465246089905985BF069
S31508000AE04BFC13B0BDEC028BBDE8F08FAFF3008072
S31508000AF00000000065CDCD410000000065CDCDC1E8
S31508000B00FFFFEF7F80BD070884BD070874BD07088F
S31508000B107CBD070890BD07080000E03FCDCCCCCCD3
S31508000B20676666661F9BB3B1099B1BB9209B13F0CA
S31508000B300C0F12D01F9B013B1F93194606E004F1C8
S31508000B4048036B44302203F8202C01348C42AFD280
S31508000B501F2CF4D9ACE71F99F8E71F99F6E7209BF5
S31508000B6013F0040F07D004F148036B442B2203F853
S31508000B70202C0134A8E7209B13F0080FA4D004F119
S31508000B8048036B44202203F8202C01349CE700BF5D
S31508000B902DE9F04180460F461546106051604FF426
S31508000BA07A7200231DF096FE06460C461FA3D3E96B
S31508000BB00023404639461DF08DFE83B22B81184A24
S31508000BC002FB03F3F61A64F100044FF46162002392
S31508000BD0304621461DF07EFEC0B2A8724FF461630E
S31508000BE003FB00F0301A64F100040022031915D241
S31508000BF013440C4AA2FB0312D208C2EB02129B1A38
S31508000C00C31A094AA3FB0232C3F38703EB72C3EB89
S31508000C100313A0EB83002873BDE8F0810122E7E700
S31508000C208051010089888888EFEEEEEE005C260583
S31508000C3000000000000000002DE9F04F9DB082463C
S31508000C400C464FF000080F9200224FF00009189248
S31508000C500A46179211782B293BD02CD80D2926D86D
S31508000C60082926D800292FD000220D92179D2A7808
S31508000C70302A7DD16A7802F0DF02582A6ED10293B3
S31508000C8017A90D9B50468A4A019318AB009319ABD6
S31508000C901EF0E2FB10F00F0604463ED0062E1AD1CF
S31508000CA00F9B0BB101351D6042464B4640E020299B
S31508000CB0DAD10132CDE72D29D6D101210D91511C6A
S31508000CC017915278002AD1D10F9B002BECD01C60CB
S31508000CD0EAE70021F2E7189A3AB135211AA866F030
S31508000CE09AFC189950461EF00DFE013E199A042EDC
S31508000CF006D8DFE806F022032B2E2200DDE91A8942
S31508000D00E10548BF49F0004929F000431B0D1B05C2
S31508000D101BB902F023FA222303600F9B13B1179B1A
S31508000D200F9A13600D9B002BBED0424609F1004373
S31508000D3043EC102B1DB0BDE8F08FDDE91A8302F2F3
S31508000D40334223F4801343EA0259D9E7DFF868915E
S31508000D50D6E76FF000494FF0FF38D1E7179B5A1CCA
S31508000D6017925B78302BF9D0002BD6D0012300E000
S31508000D700023002704930A22179BCDE905770A93D7
S31508000D8017980578A5F13003D9B2092924D9012283
S31508000D90484966F0E6F900282DD000202A46059D28
S31508000DA083460346652A01D0452A13D11DB9049AFC
S31508000DB0024389D00025179C621C179262782B2A59
S31508000DC06CD02D2A70D04FF0000CA2F13001092901
S31508000DD078D91794002696E00599013008291790C6
S31508000DE0D7BF069902FB073702FB01330693059B1B
S31508000DF001330593C4E7179B5A1C17925A78059B2B
S31508000E00A3B383461D46A2F13003092B12D9012349
S31508000E10C8E7179B01305A1C17925A78302AF8D01F
S31508000E20A2F13103082B00F2EF8483460020179BBA
S31508000E3005460A93303A00F1010311D09B4400EBB2
S31508000E40050C2B460A219C4512D12B180135082B77
S31508000E50054419DC06990A2303FB0123069300239C
S31508000E60179A1846511C17915278CCE70598D5E77A
S31508000E70082B03F1010303DC069E4E430696E2E7C0
S31508000E80102BD8BF4F43DEE70F2BDCBF0A2303FB2B
S31508000E900727E4E74FF0000B012388E74FF0000C23
S31508000EA0A21C1792A27890E74FF0010CF8E700BF52
S31508000EB0E02E0808BE2E08080000F07F179A511C7D
S31508000EC017915278302AF9D0A2F13101082981D830
S31508000ED0303A0792179A0C92179A561C1796527818
S31508000EE0A2F1300EBEF1090F38D90C99761A082EE0
S31508000EF044F61F6603DC07998E42A8BF0E46BCF16E
S31508000F00000F00D07642002D4FD1049908437FF494
S31508000F1004AF002B7FF4D8AE692A29D026DC492AEB
S31508000F2026D04E2A7FF4D0AE9B4917A866F016FA4B
S31508000F3000283FF4C9AE179B1B78282B2FD11AAA75
S31508000F40964917A866F01EFA052828D11B9BDDF8D6
S31508000F50688043F0FF4949F4E009DEE6079E0A2166
S31508000F6001FB0621A1F130020792B5E76E2AD9E7FF
S31508000F708B4917A866F0F2F900283FF4A5AE179B2F
S31508000F8017A88849013B179366F0E8F910B9179B2B
S31508000F9001331793DFF81C924FF00008BDE682482C
S31508000FA000F04EFC59EC108BB7E6A6EB0B0306983F
S31508000FB02C460C93059B002B08BF2B46102D05933A
S31508000FC0A8BF10241DF02AF9092D8046894613DC8E
S31508000FD00C9B002B3FF4A1AE0C9B78DD162B45DC51
S31508000FE07249424601EBC3014B46D1E900011DF0A7
S31508000FF08FF98046894690E66C4B03EBC40353E9A8
S3150800100012231DF085F98046894638461DF006F9F3
S3150800101002460B46404649461CF0C4FF0F2D804643
S315080010208946D5DD2C1B0C9B1C44002C25DC00F0C6
S31508001030A280644214F00F020AD05C4B404649462F
S3150800104003EBC203D3E900231DF08CFA80468946D8
S31508001050241100F090801F2C40F3B28022234FF019
S3150800106000084FF00009CAF8003056E6C5F1250316
S315080010700C9A934219DA2C1B144414F00F030AD065
S315080010804A49424601EBC3014B46D1E900011DF02E
S315080010903FF98046894634F00F046CD0B4F59A7F40
S315080010A041DD2223CAF8003074E7C5F10F053F4C2D
S315080010B042464B4604EBC501D1E900011DF028F96B
S315080010C00C9B5D1B04EBC504D4E900238FE716339C
S315080010D0A8DBABEB0602354B4046494603EBC20399
S315080010E0D3E900231DF03EFA83E700230693222363
S315080010F0DFF8C0904FF00008CAF80030189950463B
S315080011001EF000FC069950461EF0FCFB0599504659
S315080011101EF0F8FB109950461EF0F4FB079950464E
S315080011201EF0F0FBF9E50023241140464946204FFE
S315080011300493012C22DC0BB180468946049BA9F155
S3150800114054791B49424601EBC3014B46D1E90001DC
S315080011501DF0DEF8174B0A4680460B4016498B42AF
S315080011609FD8A1F580118B4286BFDFF850904FF0CB
S31508001170FF3802F15479002304934CE0E20704D5C2
S31508001180D7E900231DF0C4F80123049A6410083730
S3150800119001320492CDE700BF18C00908CC2E080812
S315080011A0C02E0808C32E080883A80908D8310808DD
S315080011B0B03108080000F07F0000A07CFFFFEF7F39
S315080011C014F0100340464946AA4F18BF6A230493F1
S315080011D00023E20704D5D7E900231DF099F8012377
S315080011E0641007F10807F4D10BB180468946049BC1
S315080011F043B1C9F30A524946C2F16B03002B4EDCD0
S315080012006A23049300220023404649461DF0E8FA63
S3150800121000287FF423AF069B5046059A00932B4679
S315080012200A991EF0D9FB109000283FF43AAF0C9BA0
S31508001230ABEB060B002BB4BF5B46002311930C9B4C
S3150800124023EAE3731593002307930593109B5046EF
S3150800125059681EF017FB069000283FF448AF109B0C
S315080012600C301A6903F10C010232920065F0E9FFAD
S315080012701AAA19A9504649EC108BCDE90A891EF01D
S3150800128087FE189000283FF432AF012150461EF021
S31508001290EDFB03460590D0B90023059327E71F2BDE
S315080012A00EDD342B4FF00008DBBF4FF0FF33C2F1E1
S315080012B04B024FF05C799340D8BF03EA01099FE7D8
S315080012C04FF0FF3202FA03F303EA080898E7199C7D
S315080012D01A9A002CA9BF119B159BE718159EB8BF33
S315080012E01E1B049BB8BF119FE41A634B1444C2F13A
S315080012F03602013C9C4280F2B0801B1B01251F2B45
S31508001300A2EB0302CDBFC4F17F449D40002404F53F
S315080013107F04C2BF04F57B44E23405FA04F407EB04
S31508001320020B049B16445F451E443B46A8BF5B461A
S31508001330B342A8BF3346002BC2BFABEB030BF61A6A
S31508001340FF1A119B002B16DD1A46059950461EF00A
S315080013504DFC059000289FD00146189A50461EF06D
S315080013609BFB0E9000283FF4C2AE189950461EF01B
S31508001370C9FA0E9B1893BBF1000F71DC0C9B002B6E
S3150800138008DD159A504606991EF030FC069000288E
S315080013903FF4ABAE002E08DD3246069950461EF0E5
S315080013A07FFC069000283FF4A0AE002F08DD3A46E1
S315080013B0059950461EF074FC059000283FF497AE38
S315080013C0069A504618991EF0D7FC079000283FF455
S315080013D08EAEC36805990E930023C36066F0CEF8F7
S315080013E000284BDA0E9B53EA080340F0BD80C9F388
S315080013F01303002B40F0B88029F000431B0D1B0592
S31508001400B3F1D66F40F2B080079B5B6923B9079B9F
S315080014101B69012B40F3A8800122079950461EF04C
S315080014203FFC0599079066F0A9F8002840F39C80D0
S3150800143029F00043049A1B0D1B05002A7AD0B3F144
S31508001440D66F6ED8B3F15C7F46D84FF000084FF0E0
S3150800145000092223CAF8003050E6002401255EE779
S315080014605A46189950461EF01BFC1890002885D13C
S315080014703DE600BFF82E080802FCFFFFCB4640F009
S31508001480A4800E9AC9F31303002A41D09C4A9342BA
S3150800149059D1049B42467BB9B8F1FF3F40F08A8098
S315080014A0984B99453FF423AE974BDDF8108009EA2F
S315080014B0030303F5801921E6934B09EA0303B3F105
S315080014C0D46F17D918F101011CD18E4A91453FF402
S315080014D00EAE03F5801980468C4B404649460022DD
S315080014E01CF016FF884B804689460B40002B7FF47C
S315080014F005AEAEE71E0D4FF0FF31C6F16B06B140E3
S315080015008845E6D0002C5ED014EA0B0FE4D01EE026
S31508001510002B4AD1B8F1000F8AD064B314EA0B0F36
S315080015202BE0A3F580134FF0FF386FEA13596FEAE3
S315080015300959D1E7A3F580134FF0FF386FEA13591D
S315080015406FEA0959DAE59CB114EA090F0CD040464E
S315080015504946049A65F047FDDDE90A0153EC102B6C
S315080015601CF020FD80468946049B002BB4D1C5E5B6
S3150800157015EA080FEAE718EA050FF5D0049A404677
S31508001580494665F030FDDDE90A0153EC102B1CF0E5
S3150800159007FD0022002304460D461DF021F9002808
S315080015A07FF453AFA046A946DEE7002CB6D115EA6C
S315080015B0080FE2E724B114EA090F3FF49FADC6E726
S315080015C018EA050FF9E72A42A0E70599079865F092
S315080015D0F0FF00224FF0804355EC104B2046294679
S315080015E01DF012F900286DD00E9B002B78D1B8F1AA
S315080015F0000F56D1C9F31303002B59D10022444BCF
S31508001600204629461DF0F6F8002858D120462946D6
S315080016100022404B1CF07CFE04460D4605F10043B3
S3150800162008940993384B0BEA03031493149A3A4B1C
S315080016309A42DDE9086740F0A880ABF1547949EC95
S31508001640108B1EF031FCDDE9082351EC100B1CF061
S315080016505FFE42464B461CF0A5FC0B462A498046CF
S315080016602E4A194091425BD90B9A264B9A4203D1CE
S315080016700A9B01333FF43BADDFF888904FF0FF3803
S31508001680189950461EF03EF9069950461EF03AF94A
S31508001690059950461EF036F9079950461EF032F95C
S315080016A0D4E5B8F1010F03D1B9F1000F3FF4CDAE7F
S315080016B00024174D9FED0E7B8DED087BB2E70024C5
S315080016C0144DABE7134B2046294600221CF020FE9A
S315080016D00E9B04460D46002BA0D0CDE90845A1E790
S315080016E09FED057B55EC174B8DED087B9AE700BF00
S315080016F0000000000000F0BF000000000000F03FFE
S31508001700FFFF0F00FFFFEF7F0000F07F000050395A
S315080017100000F03F0000E03F0000E07FFFFF9F7CF5
S3150800172003F15479049B4E46002BA9D129F00043B6
S31508001730149A1B0D1B059A42A2D12046294657F03A
S3150800174065FEC9F313061CF0B5FD0B46024629468D
S31508001750204646EA08061CF023FC0E9B04460D4666
S315080017601E434BD02EA3D3E900231DF043F80028CF
S315080017707FF4C4AC204629462BA3D3E900231DF0E9
S3150800178057F800283FF47CAFB8E4049B13B3149BC6
S31508001790B3F1D46F1ED82046294625A3D3E90023E2
S315080017A01DF032F890B1294620461DF073F801283D
S315080017B038BF01201CF032FD0E9B04460D46D3B9F6
S315080017C001F1004312901393DDE9126707F1D6631E
S315080017D0149A9F1A9DED0A0B1EF066FB3046394691
S315080017E053EC102B1CF094FDDDE90A231CF0DAFB00
S315080017F08046894696E7CDE91245E5E70EA3D3E983
S3150800180000231CF0F7FFBCE7652A3FF443AB452AE3
S315080018103FF440AB0123FFF778BB00BFAFF300806E
S315080018209535A094FFFFDF3F35E5AF350000E03F73
S315080018300000C0FFFFFFDF419535A094FFFFCF3FB3
S315080018409FED010B704700BF000000000000F87F05
S31508001850F0B5A34C9FB02288A3780021ADF80C20E0
S3150800186013A82C228DF80E3065F066FC4FF0023373
S31508001870159340F20B130AAD0434ADF874300FCC4F
S315080018800FC50FCC0FC52368964A2B60964B974D0C
S3150800189006930023CDE9073309934FF0FF33284613
S315080018A093492B6027F024FC0446002840F0FC806E
S315080018B02B68013304D140F2C3418E4858F009F829
S315080018C0286803A927F052FC0446002840F0EC805B
S315080018D0286866F083FF884F884E3870286866F057
S315080018E07FFF3070286866F07DFF854B8549187044
S315080018F0286827F0F7FE0446002840F0D5803B7894
S31508001900814F002B40F09E8080482CF001F838600B
S31508001910002840F0B68040F20951764857F0D9FFC2
S3150800192005F0E4FC7A4BCDE9040104AAA3F1080109
S3150800193012F8010B03F8010D9942F9D13378002BFF
S3150800194040F0B9807349286866F053F904460028C0
S3150800195040F0AA807049286866F035F904460028E0
S3150800196040F0A2806D49286827F0D4FC0446002878
S3150800197040F09A8058A3D3E90023CDE900232868CC
S3150800198066F039F90446002840F08E80644A6549B5
S31508001990286866F077FE0446002840F085804FF4F4
S315080019A080502CF00BFB044600287DD101212868C5
S315080019B027F0FAFB0446002876D1A0235A4A06A83F
S315080019C0D3805A4A138078F076F8594B186020B9B4
S315080019D040F25251474857F07CFF00220121082067
S315080019E078F0E9FA534B186020B940F2555141484E
S315080019F057F06FFF00220121082078F0DCFA4E4BE1
S31508001A00186020B94FF4AB613A4857F062FF4B4A69
S31508001A104B494C482DF01AFD4A484BF03DFA002137
S31508001A2049480AAA77F0AAFF484C206020B940F234
S31508001A306451304857F04DFF4549206852F020F868
S31508001A401FB0F0BD43482BF063FF386000283FF411
S31508001A505BAFC189286827F0ABFD3B68214658680B
S31508001A602BF090FF0446F8B90721286866F07BFD3D
S31508001A700446C8B925482BF04BFF386000283FF4C8
S31508001A804FAFC189286827F093FD3B680421586841
S31508001A902BF078FF044638B90721286866F063FDFD
S31508001AA0044600283FF43CAF2346222102202A4A56
S31508001AB073F013FAC4E71C22002116A865F03CFB54
S31508001AC0286813A928F008F8044600283FF43AAF16
S31508001AD0EAE700BFAFF30080C88D01C103400000EC
S31508001AE054A00908DDD50208B899090898540020B9
S31508001AF07073002086980908E15D0020E05D0020EB
S31508001B00DF5D0020070011005054002015A00608CC
S31508001B10EA5D002050A009084EA009089C54002040
S31508001B200C750020980E0020B0730020425D00203E
S31508001B30185500201455002010550020CD99090885
S31508001B40EDDA0208B854002075EB02081C5500208F
S31508001B5028D00908FF9F0608D69909080000000042
S31508001B602DE9F34705465C4C222110205B4A73F0A9
S31508001B70B4F929461422204665F063FBA27B584B2C
S31508001B80DFF8A4A11A70637C00228AF800300023CB
S31508001B90CDE90023DFF8948100224FF40073D8F8CA
S31508001BA0000066F028F80546002840F08D804D4B69
S31508001BB04D4F1B7893B94D482BF0AAFE04463C605E
S31508001BC014BB4B4A2221022073F087F901222125F2
S31508001BD0484B1A70284602B0BDE8F087464B474C7A
S31508001BE01A88474BD8F8000053F82210454A8B68E4
S31508001BF021603B6027F078FB2268434B94682422D7
S31508001C001B8802FB0344DAE7404B1C603B4BD3F8C6
S31508001C100090B9F1000F04D140F619013C4857F07D
S31508001C2058FE00232420D9F80C108B4201D1002637
S31508001C3013E0D9F8086000FB0366F26952781209C6
S31508001C4012F00E0F3ED0052A3CD8324B0021F289FD
S31508001C50B3F900003E602BF0B3FE1DA3D3E90023C1
S31508001C60CDE90023D8F8000065F0C5FFD9F80820AB
S31508001C70B24207D0284B3A600421D289B3F9000052
S31508001C802BF09EFE254BE28901201A803C602CF041
S31508001C9019FC234B1B78002B9CD09AF800301B09A3
S31508001CA013F00E0F96D11F4B07211B78D8F80000AA
S31508001CB0002B0CBF0122072266F0B9FD051E18BFCE
S31508001CC0012587E70133B0E7012583E7AFF30080F5
S31508001CD0C88D01C103420000545400200E9C090817
S31508001CE0D55D0020DA5D00205054002039DA02085C
S31508001CF01C9C0908D75D0020405D00204454002044
S31508001D00E46E0020E9D502083E5D00204C54002010
S31508001D10869809080E7500201075002006750020A3
S31508001D20E05D0020C0750020D45D00209854002096
S31508001D302DE9F84390F8E861054644683EB9022063
S31508001D402721414A73F0C9F83046BDE8F88394F96B
S31508001D500130002B1ADA731E5BB2637000EB431373
S31508001D6093F825302370A0681CF07AFA32A3D3E9D9
S31508001D7000238046894694F901701CF059FDF8B194
S31508001D80002F1DDD013F0023677024E09E42227864
S31508001D9005DD00EB431393F825309342E3D0002387
S31508001DA005F1250163705801085C904208BF63700D
S31508001DB001339E42F7D8731E637000232371D2E75E
S31508001DC040461FA3D3E9002349461CF031FDF0B174
S31508001DD02379E3B1013B237194F9013005F5F570D8
S31508001DE005EB431393F82530237085F8EA3105236C
S31508001DF095F8022285F8EC3185F8F02100230222B5
S31508001E0085F8EB3185F8F22185F8F1319DE74046F2
S31508001E100BA3D3E9002349461CF0ECFC0028DBD0D1
S31508001E2023790133DBB2092B2371D5D9013EBE4292
S31508001E30D2DD0137A7E700BF666666666666E63FD7
S31508001E409A9999999999B93FC0520A0800000000D1
S31508001E502DE9F8432DED028B876805463846164668
S31508001E600C461CF0FDF928A3D3E9002380468946D1
S31508001E701CF0DEFC88BB26A3D3E90023404649466E
S31508001E801CF0B8FC60BBF7EE007A07EE107A87EE16
S31508001E90878A6B7F607F0122834224D000214BF022
S31508001EA097FC012204463146687F4BF091FC0444B6
S31508001EB004F2D5702860D8B107EE900AF8EE677A72
S31508001EC09FED0D7A67EE887A87EE270ABDEC028BBE
S31508001ED010EE103AEB60BDE8F8839FED088AD8E764
S31508001EE09FED078AD5E7314618464BF071FCE1E7C6
S31508001EF09FED040AEAE700BF00007A44E4388E3F03
S31508001F0000401C4600000000CDCCCCCCCCCCEC3F2D
S31508001F109A9999999999B93F2DE9F74F064690F8F4
S31508001F20E8010D469146A0B37468A3690133A3611D
S31508001F30A37D06EB43131A7F02441A77D4E90732C6
S31508001F40C3EB520207EE902A4000B8EE677A07EE16
S31508001F50900AF8EEE76AF4EEC76AF1EE10FA0BD5C6
S31508001F6007EE903A37EE667AF8EE677A77EE877A72
S31508001F70FCEEE77AC4ED077A4FF0000BD9450BD88B
S31508001F8042F21073A2699A4282BF0023C4E906335B
S31508001F90236203B0BDE8F08FB5F802A02F79BAF135
S31508001FA0000F2ED038461CF049F9CDE900015046FD
S31508001FB01CF044F902460B46DDE900011CF0D2FA92
S31508001FC002460B4600204C491BF0EAFF57F070F812
S31508001FD007EE100A96F80332AAEB0700034486F8C0
S31508001FE0033294F8243033B394F825305B4522D174
S31508001FF0BAF1000F08D1C4F820A00BF1010B063581
S31508002000BCE7B7EE007AE5E7E3690133E3612A78CE
S31508002010002AF2D00023984696F8E8C106F108018E
S315080020209C450FD8B8F1000F14D127210220334A56
S3150800203072F053FFE1E72A78002ADED0BAF1000FE2
S31508002040DBD0E7E791F81DE00133964508BF8846DF
S315080020502031E5E7002288F81420B8F81020D8F8CF
S31508002060043017440133BAB2C8F80430A8F810701F
S315080020701AB198F81D2086F81422F7EE007A012B7B
S3150800208077EEC77A8CBFB3EE097A9FED1D7AB8F85A
S31508002090122088BF67EE877A0244A8F81220D8F87B
S315080020A008208CBF9FED177A67EE877A06EE102A0E
S315080020B0DFED156AE6EE077A87EEA67A17EE103A8E
S315080020C017EE100AC8F808301CF0CAF808A3D3E9B6
S315080020D000231CF08FFB18B1FF2388F815308CE716
S315080020E098F91530013388D10423F6E7AFF3008059
S315080020F0666666666666EE3F0000F03F5A530A0853
S3150800210000004842000096420000C8420000000055
S315080021102DE9F04F2DED028B054600274FF0200ADA
S315080021204FF0080B0B4608204D4A87B088462721F2
S3150800213072F0D3FE95F8E83127210820494A72F053
S31508002140CCFE6C6805F10806E37D2371637163753F
S3150800215095F8E891B9450DDC3FA7D7E900674FF038
S315080021600008AA46C346C14546D807B0BDEC028B4F
S31508002170BDE8F08FE17D42461AFB01B1304629449D
S31508002180FFF766FE96F81D900495F0681CF068F84F
S31508002190CDE90201B0681CF063F84B46CDE90001B1
S315080021A0314A2721082072F098FE2379D6ED037A62
S315080021B005EB431292ED057AF4EEC77AF1EE10FAC2
S315080021C002DB327F22710EE017B995F82420F9E771
S315080021D0637905EB431393ED057AF4EEC77AF1EECE
S315080021E010FA04DB337F637101372036B0E7012F1D
S315080021F0FAD195F84430F6E7E37D434515D09AEDD4
S31508002200048A18EE100A1CF02BF832463B461CF0DE
S3150800221005FB10B9BBF1000F0CD19AF824302279CE
S315080022209A4202D062799A4211D108F101080AF15C
S31508002230200A98E7637D05EB4313D3ED047AB4EEE1
S31508002240E78AF1EE10FAE8DA4FF0010BEDE763756D
S31508002250FAE700BFAFF30080666666666666EE3F1D
S3150800226072530A0894530A08A3530A080000000088
S315080022702DE9F047D0F8048000EB411393F8245079
S3150800228098F817300446AB422DD098F81530AB4273
S3150800229029D000EB411ADAF810004FEA41191BF071
S315080022A0DFFF13A3D3E9002306460F461CF0ACFA5A
S315080022B010B99AF91D00A0B198F80430AB4212D0B3
S315080022C098F80530AB420ED009A3D3E9002330466F
S315080022D039461CF0ADFA18B14C44637F013B63776D
S315080022E00120BDE8F0870020FBE700BFAFF30080C0
S315080022F0666666666666EE3F2DE9F34704460E4651
S31508002300456827210820804A72F0E7FD20463146B5
S31508002310FFF7FEFE284673F0ABF9002800F0BA80F6
S31508002320204673F0B8F9061EC0F2B48094F8E83176
S315080023309E4280F2AF8004EB4617334627210820D9
S31508002340724A72F0CAFD2721082097F82530704A8C
S3150800235072F0C3FD012295F804C085F8242004EB29
S315080023604C13386A196A884297F8250002D8397FCB
S31508002370322977D9012284F8EC21002284F8EA016F
S3150800238084F8EB21A97D297093F8251084F8F011BB
S3150800239093F8263084F8F12184F8F231697D85F8BE
S315080023A001C004EB411393F82500012684F8F601D1
S315080023B093F8263084F8F831002384F8F731A970A9
S315080023C085F82520A04605F1FF3904F1120A19F807
S315080023D0013F5F1C002E00F0898004EB4313186947
S315080023E01BF03EFF02460B46CDE9002342A3D3E984
S315080023F000231CF01DFA40B941A3D3E90023DDE907
S3150800240000011CF0F7F9002870D004EB4717BB79D8
S31508002410042B8EBF02230133C3F3460388F8EC313D
S3150800242008F10608C245D2D1EA7D04F5F57004EB39
S31508002430421393F8253084F8FC31002384F8FD31E3
S31508002440EA7085F8243094F8F22194F8EC311344B4
S3150800245094F8F821C3F107039B1A84F8FE3102B0F9
S31508002460BDE8F08793F82570697D84F8EA7193F8DA
S31508002470263084F8EC31002384F8EB3185F800C067
S3150800248084F8F13184F8F00184F8F22104EB411361
S315080024906E7088E700262A7904EB421393F8251014
S315080024A084F8EA1193F8263084F8EB6184F8EC3165
S315080024B02A706A7904EB421393F8251084F8F01110
S315080024C093F8263084F8F16184F8F2316A706A7DEF
S315080024D004EB421393F8251084F8F61193F8263086
S315080024E084F8F76184F8F831AA706BE704EB4717AC
S315080024F0BB7993E7AFF30080666666666666EE3F6D
S315080025009A9999999999B93FC7530A08D5530A08C8
S31508002510E5530A08000000002DE9F8432DED028B6B
S3150800252087680546384616460C461BF099FE2EA3C4
S31508002530D3E90023804689461CF07AF900283DD164
S315080025402BA3D3E90023404649461CF053F9C0BBE8
S31508002550F7EE007A07EE107AAB7F87EE878A07EEEA
S31508002560903AB8EEE77AB4EEC87AF1EE10FA01D5E9
S31508002570B8EE678A6B7F607F0122834224D00021F0
S315080025804BF026F9012204463146687F4BF020F9C4
S31508002590044404F2D5702860D8B107EE900AF8EE24
S315080025A0677A9FED0D7A67EE887A87EE270ABDEC83
S315080025B0028B10EE103AEB60BDE8F8839FED078AB0
S315080025C0D8E79FED078AD5E7314618464BF000F95C
S315080025D0E1E79FED040AEAE700007A44E4388E3F13
S315080025E000401C4600000000CDCCCCCCCCCCEC3F47
S315080025F09A9999999999B93F2DE9F04F2DED028B42
S3150800260090F8E83105460E46934689B0002B00F04F
S31508002610238127210820964A72F05FFC00226C6805
S31508002620A1690131A16195F8E80190423DD8D4E944
S3150800263007230A2779436427B1FBF7F1C2EB530353
S315080026400B4407EE903A430006EE903AF8EE677AA6
S31508002650F8EEE66AF4EEE76AF1EE10FA0BD507EE45
S31508002660102A77EEE67AB8EE477A77EE277AFCEE06
S31508002670E77AC4ED077A0027B846BB451DD8B8F1F6
S31508002680010F00F0E680B8F1130F40F2B98000237D
S31508002690A3612721082095F80332764A09B0BDECD4
S315080026A0028BBDE8F04F72F018BCA37D013205EB32
S315080026B043131F7F01371F77B7E7B6F8029096F8DE
S315080026C004A0B9F1000F41D050461BF0B7FDCDE983
S315080026D0060148461BF0B2FD02460B46DDE9060137
S315080026E01BF040FF02460B46002063491BF058FCCE
S315080026F056F0DEFC08EE100A337818EE100A069338
S3150800270004951BF0ADFD069BCDE902015B4A272126
S315080027100820CDE9009A72F0E0FB7288337995F8C3
S315080027200312D31A0B4485F8033294F82430C3B144
S3150800273094F82530BB4214D15AB9226227210820C1
S315080027404F4A72F0CAFB0137063696E7B7EE008A9B
S31508002750D2E7E3692721013308204A4AE36172F088
S31508002760BCFBB6F802A0BAF1000FECD00023E25D7C
S3150800277005EB4211C8680B770130C86096F804C0AB
S315080027800B8B4FEA421963449BB20B831BB191F83A
S31508002790253085F81432F7EE007A05EB0902538BDB
S315080027A001285344A3EB0C0377EEC87A53830DD95B
S315080027B0B2EE0E7AD2ED046A27EE877ADFED327A28
S315080027C0A6EEA77ADFED316AC7EE267AA944C9EDE7
S315080027D0047A17EE900A1BF043FD23A3D3E90023DE
S315080027E01CF008F830B1FF2389F81D30C2441FFADF
S315080027F08AF8A8E799F91D300133F7D10423F3E7DE
S31508002800B8F1020FD4ED0B7AB1EE047A15D977EE4A
S31508002810877AB3EE047AF4EE477AF1EE10FA77FE89
S31508002820277A42F21073A269C4ED0B7A9A4282BFE4
S315080028300023C4E9063323622BE7F2EE046A77EE37
S31508002840E67AF4EE477AF1EE10FA48BFF0EE477AE8
S31508002850E7E7DFED0F7AE4E709B0BDEC028BBDE8E8
S31508002860F08F00BFAFF30080666666666666EE3F69
S315080028702A540A0890540A080000F03F40540A08EF
S3150800288071540A0880540A080000AA420000C84287
S3150800289000000000000000002DE9F84F2DED028B26
S315080028A00546884600274FF020094FF0080B446874
S315080028B000F10806E37D23716371637595F8E8A155
S315080028C0BA450CDC0FF2D009D9E9008900262F4653
S315080028D0B346B24532D8BDEC028BBDE8F88FE17D30
S315080028E0424619FB01B130462944FFF715FE237904
S315080028F0D6ED037A05EB431292ED057AF4EEC77A24
S31508002900F1EE10FA02DB327F22710EE017B995F864
S315080029102420F9E7637905EB431393ED057AF4EE82
S31508002920C77AF1EE10FA04DB337F6371013720367C
S31508002930C4E7012FFAD195F84430F6E7E37DB342B0
S3150800294015D097ED048A18EE100A1BF089FC42464A
S315080029504B461BF063FF10B9BBF1000F0AD197F87D
S31508002960243022799A4202D062799A420FD10136EE
S315080029702037AEE7637D05EB4313D3ED047AB4EE57
S31508002980E78AF1EE10FAEADA4FF0010BEFE7637522
S31508002990FAE700BFAFF30080666666666666EE3FD6
S315080029A02DE9F047456890F8E821AB690446B3EB92
S315080029B0420F2ED900EB411393F82480EB7D434553
S315080029C02AD06B7D434527D000EB411ADAF8100070
S315080029D04FEA41191BF044FC11A3D3E9002306462C
S315080029E00F461BF011FF10B99AF91D0090B12B790B
S315080029F0434511D06B7943450ED009A3D3E900238B
S31508002A00304639461BF014FF18B14C44637F013B2E
S31508002A1063770120BDE8F0870020FBE7AFF300806D
S31508002A20666666666666EE3F0348044B834202D0D6
S31508002A30034B03B1184770475C8100205C81002076
S31508002A4000000000064B0749C91A891048BF013122
S31508002A50491003D0044B0BB101481847704700BF13
S31508002A605C8100205C8100200000000010B5064C47
S31508002A70237843B9FFF7D8FF044B13B10448AFF3E3
S31508002A8000800123237010BD525D00200000000065
S31508002A90546E0A0808B5054B1BB105490548AFF33E
S31508002AA00080BDE80840FFF7CDBF00BF000000006A
S31508002AB0A8190020546E0A08A3F5803A704700BF8B
S31508002AC0174B002B08BF134B9D46FFF7F5FF002158
S31508002AD08B460F461348144A121A64F02DFB0E4B08
S31508002AE0002B00D098470D4B002B00D098470020AC
S31508002AF0002104000D000D48002802D00C48AFF351
S31508002B0000801CF061FC2000290059F0CFFB1CF066
S31508002B1071F800BF00000800000000000000000077
S31508002B200004002000040020506700200000000078
S31508002B300000000000B583B0044B1B88ADF80430D4
S31508002B4001A800F065FC03B05DF804FBC8A90708F6
S31508002B5000B583B0044B1B88ADF8043001A800F01B
S31508002B6029FC03B05DF804FBC8A907082DE9F04F56
S31508002B7093B0604C06AD231D0FCB85E80F0001AD61
S31508002B8014340FCC0FC523682B6069465A4B187945
S31508002B9077F06DFD594877F071FD594877F06EFD6D
S31508002BA001238DF8053000238DF8043001AB099315
S31508002BB00098544B984240F29B80534904F09EFE7D
S31508002BC00790524F06A9384604F040FE40F6FF71BA
S31508002BD0384604F0BBFB07F580540126666040F6CC
S31508002BE0FF71384604F0B2FB0425A56340F6FF7171
S31508002BF0384604F0ABFBA6634FF002088DF8288030
S31508002C0000248DF82940324629460AA800F094FB8C
S31508002C10DFF8E090B9F828B0ADF82CB02246314676
S31508002C200BA800F089FBB9F82CA0ADF830A0324605
S31508002C3029460CA800F080FBB9F80090ADF834904E
S31508002C40324629460DA800F077FB314D4FF00213A6
S31508002C50C5F8C833A3F58033C5F8C433C5F8CC83A3
S31508002C601C23C5F8B4334FF4487007F09FFDFFF7EF
S31508002C7061FF142007F09AFDFFF76AFF232007F08B
S31508002C8095FDFFF757FFB921384604F00BFEFFF70D
S31508002C905FFF8DF838808DF83940224621460EA808
S31508002CA000F04AFBADF83CB0224621460FA800F0DA
S31508002CB043FBADF840A03246214610A800F03CFB85
S31508002CC0ADF844903246214611A800F035FB384647
S31508002CD004F066FCC5F8B443C5F8C843C5F8C44350
S31508002CE0C5F8CC43064877F0CEFC13B0BDE8F08FA4
S31508002CF0014663E7C8A9070874B707085CB7070859
S31508002D0060B70708DF707200E070720000000A50B2
S31508002D1000C0035008B5044877F0B0FC64F0F0F83A
S31508002D20FFF724FF08BD00BF5CB7070808B50248CF
S31508002D3077F0A4FC08BD00BF5CB7070848B1074B8D
S31508002D401B78012B07D803700133044A137000203F
S31508002D507047012070470120704700BF535D00206F
S31508002D6008B50448044A121A9210044956F0A7FDF9
S31508002D7008BD00BFA8010008E0030008506700204E
S31508002D8008B5154B83F30A8800F030F8FFF7E8FF1B
S31508002D90124A0AE01068516850F8230041F82300E7
S31508002DA0013391688B42F5D30C320D4B9A4201D20E
S31508002DB00023F6E70B4A08E01168002041F82300D3
S31508002DC0013351688B42F7D30832074B9A4201D236
S31508002DD00023F6E7FFF774FE000000205C6E0A0881
S31508002DE0686E0A08686E0A08686E0A0870B5134B9A
S31508002DF0134A9A60D3F8882042F47002C3F88820F0
S31508002E00104A4FF4804191660F4D05F500544FF076
S31508002E10FF3222660D4A62660222C3F8D020BFF34B
S31508002E204F8FBFF36F8F002005F092FF4FF44036A7
S31508002E30E660002005F062FF2E6170BD00ED00E03F
S31508002E40000000080090005000800044FFF7FF2FA4
S31508002E50014B1860704700BF9069002008B5064B03
S31508002E601860064B1B6F03F00703032B00D008BD41
S31508002E7073F080FEFBE700BF9869002000800050D1
S31508002E8008B5064B1860064B1B6F03F00703052BA6
S31508002E9000D008BD73F06EFEFBE700BF8C6900200A
S31508002EA00080005008B540F6B131024856F011FDD1
S31508002EB008BD00BFF8A9070800B583B00023019331
S31508002EC0094B1B68B3F1FF3F07D177F009FA019B5D
S31508002ED0002BFCD003B05DF804FB40F22131034817
S31508002EE056F0F7FCF1E700BF9C690020BCAA07086A
S31508002EF008B5EFF305830F2B06D90F4A9B5CDBB2A7
S31508002F000E4A12789A420AD84FF0E023D3F80C3DBD
S31508002F1003F4E0630A4A1268934206D808BD40F2F1
S31508002F20A171084856F0D5FCEEE740F2B1710548A4
S31508002F3056F0CFFCF2E700BFF0E300E0545D002056
S31508002F408C1F0020BCAA070830B58BB00023092BBC
S31508002F5009DC154AD25C03F12801694401F80C2CF6
S31508002F600AB10133F3E70024002C02DD01200BB07F
S31508002F7030BD00250495059506AA05A904A873F091
S31508002F8055FE049B0293059B019300952B46069AD2
S31508002F9007A9064877F015FB054B43F8240008B146
S31508002FA00134E1E70020E2E7F4AB0708497F0708A8
S31508002FB0E41F002038B504460D4621B118B1236830
S31508002FC02B60256038BD3721014856F082FCF6E7AC
S31508002FD068AC070838B504460D4601B128B945213D
S31508002FE0054856F076FC00E01C462368002BFBD10A
S31508002FF02B60256038BD00BF68AC070810B50446CD
S3150800300030B1206818B1036823600023036010BD3F
S315080030105621024856F05DFCF3E700BF68AC070886
S31508003020F0B18446F1B110B409E004F120000FE0D4
S315080030302033C01A18D1BCB10CF1010C01319CF82F
S3150800304000400B4B1B5D03F00303012BEDD020461C
S315080030500B78074AD25C02F00302012AE9D1E7E7B6
S3150800306001207047012070475DF8044B704700BF88
S31508003070212F08082DE9F04180460E46082904D17B
S3150800308006F1090500273C460AE040F2631121488B
S3150800309056F01FFCF4E75B21082000F0E1F8013444
S315080030A0AC4233D2052C1BD801A353F824F000BF39
S315080030B097300008C9300008FD300008D1300008F4
S315080030C0D5300008D9300008F3B20433D9B2E3E7A3
S315080030D08021E1E70021DFE77B1C3946DFB2DBE729
S315080030E0B31DA3420CD0F31DA3420BD006F108036F
S315080030F0A34209D0A31F18F80310CDE7D121CBE7C7
S315080031005A21C9E75A21C7E75D21C5E70020BDE86E
S31508003110F08100BFD8AC070800B583B00022009242
S31508003120019202218DF80010054856F01FFC019007
S3150800313008216846FFF79EFF03B05DF804FB00BF51
S3150800314000D4300008B575F0E5FE08B9014808BD99
S315080031500148FCE70C2000201026002008B575F071
S31508003160D9FE08B9014808BD0148FCE70C20002033
S315080031701026002008B5034856F0ACFB024B012286
S315080031801A7008BD14260020555D002010B582B0BF
S31508003190002401942A4877F071FA8DF80040032339
S315080031A08DF8013001220421684600F0C5F8254B48
S315080031B00122C3F8442301A9052077F058FA00280C
S315080031C03BD1214BD3F8F02042F00102C3F8F0209E
S315080031D0D3F8FC2042F08072C3F8FC20A3F55D43C7
S315080031E01A4A1A60019B03F5D52303F2FC43DB0850
S315080031F0174AA2FB03239B0A013B164A13610223C3
S31508003200C2F8F0304FF48073C2F804334FF06043CD
S31508003210114AC3F8B02F114AC3F8802ED3F8002EEE
S3150800322042F48072C3F8002EFF2283F82020D3F8D8
S31508003230002E22F48072C3F8002E02B010BD00BF23
S315080032405CB7070800D0035000ED00E0FF0300401C
S3150800325017916502000004E055CEACC509000100CF
S315080032604FF06043D3F8803E13F0010F01D11120CF
S3150800327070470E4AD2F8FC3043F08073C2F8FC302F
S315080032804FF06043D3F8002E4FF0010C0CFA00FC07
S3150800329042EA0C02C3F8002E53F82030002BE8D07F
S315080032A04FF0604303F820100020704700ED00E05F
S315080032B010B504460DE00123834024EA03040F28D1
S315080032C012D80D4B03EBC0031A6812B15968C0B285
S315080032D090477CB1234600201F28ECD813F0010F35
S315080032E0E9D101305B08F7E7421E1038024B03EBC1
S315080032F0C203E9E710BD00BF1826002008B50D482F
S3150800330077F0BCF9202005F009FD28B9212005F041
S3150800331005FD40B9002008BD202005F019FD202034
S3150800332005F0ECFCF2E7212005F012FD212005F05E
S31508003330E5FCEFE75CB70708F8B570B10C4615462B
S3150800334006460F290FD83378A3B1022B26D0032BB4
S3150800335027D0012B0CD000230EE08921144856F003
S31508003360B8FA222019E08C21114856F0B2FAEAE799
S315080033703F2301E040F6FF737278D34013F0010F44
S3150800338011D077F05FF907462A462146304604F001
S315080033900DFB384677F051F90020F8BD40F2FF33AF
S315080033A0EAE7FF23E8E78D21014856F092FAE8E7B5
S315080033B05CAD070810B550B1044603787BB1022B03
S315080033C019D0032B1AD0012B07D0002309E0CF21EF
S315080033D00E4856F07EFA22200CE03F2301E040F624
S315080033E0FF736278D34013F0010F09D0204675F0B9
S315080033F003FE002010BD40F2FF33F2E7FF23F0E79B
S31508003400D221024856F065FAF0E700BF5CAD07081E
S3150800341010B550B1044603787BB1022B19D0032BA3
S315080034201AD0012B07D0002309E0DF210E4856F0F9
S3150800343050FA22200CE03F2301E040F6FF73627841
S31508003440D34013F0010F09D0204604F079FA002082
S3150800345010BD40F2FF33F2E7FF23F0E7E22102480E
S3150800346056F037FAF0E700BF5CAD070808B5084B19
S31508003470D3F82403D3F82023104000F0553020F069
S31508003480502003F50053C3F82003FFF711FF08BDCA
S3150800349000C0035008B5084BD3F82403D3F82023FB
S315080034A0104000F0AA3020F0A02003F50053C3F81E
S315080034B02003FFF7FDFE08BD00C00350F0B587B036
S315080034C00C4694469DF83C10674A1278002A00F08C
S315080034D0BE800546BCF10F0F00F2BB800C9A002A8D
S315080034E000F0B9800D9A002A00F0B780109AB2F55C
S315080034F0006F00F3B48001285CD05C4A02EB0C1222
S31508003500127B002A00F0AD800022019202920392FB
S3150800351004920592564A02EB4C1E002C4FD14FEAF4
S315080035204C1600209051CEF80400CEF80800CEF8CC
S315080035300C009EF8020040F010008EF802009EF87B
S31508003540030040F030008EF8030021B9C1B241F003
S3150800355003018EF803100193109B013B444A4FEA7E
S315080035604C1002EB4C11165A63F30E1616520C9BAE
S315080035708B600D9B4B60CB789DF8442062F38303E8
S31508003580CB70012D36D0129B002B56D0374A4FEA06
S315080035900C1102EB0C1312985050139A5A6000241F
S315080035A09C605D73724601A9604603F069FD20467A
S315080035B007B0F0BD0E9A002A9FD12E48F8E72C4F87
S315080035C04FEA4C1607EB4C120020B8515060906039
S315080035D0D060907840F010009070D07840F00300EA
S315080035E0D0700029B7D107EB4C12C1B241F03001B7
S315080035F0D170B0E70E460A7B42F001020A73D2B2D6
S3150800360042F002020A73CA68042161F39F02F2605B
S3150800361006F1100796E80F0087E80F00F2696FF0C9
S31508003620030161F39F02F2610E9B7361012CAAD11B
S315080036300D9AB2610E9A7260A5E7002DA6D10C4BC1
S3150800364003EB4C139A786FF304129A709EE70A48B4
S31508003650AEE70848ACE70748AAE70648A8E70548DA
S31508003660A6E70648A4E700BF565D00200829002003
S3150800367008270020018000F0028000F0078000F093
S31508003680134B1B78FBB110B50446F0B176F0DAFFA0
S3150800369000230F2B13D80F4A02EB0312127B0AB131
S315080036A00133F6E723600B4A190102EB03130124E1
S315080036B01C730024545076F0C0FF204602E076F0D2
S315080036C0BCFF054810BD054870470548FAE700BF26
S315080036D0565D002008290020048000F0028000F0D2
S315080036E0018000F038B576F0ADFF044600230F2BB5
S315080036F006DC0C4A02EB0312127B12B90133F6E719
S31508003700002222B1204676F098FF074838BD03F01C
S3150800371039FC0025054B1D70204676F08EFF28469D
S31508003720F4E700BF08290020058000F0565D002058
S315080037300F4B1B78BBB110B504460F2815D876F089
S3150800374081FF0C4B03EB04131B7B1BB976F075FF4B
S3150800375009480BE0074B03EB041300241C7376F0AF
S315080037606CFF204602E005487047054810BD00BFBB
S31508003770565D002008290020068000F0028000F02F
S31508003780018000F000B583B0134B1B68019300233A
S315080037908DF8043076F056FF104B1B7833B90F4B73
S315080037A001221A7076F049FF002309E076F045FFFA
S315080037B00B480EE00B4A02EB03120021117301338A
S315080037C00F2BF7DD08238DF8073001A803F00CFC52
S315080037D0002003B05DF804FBD0AD0708565D002055
S315080037E0038000F00829002010B5104C2478BCB1DD
S315080037F00F2817DC0E4C04EB0014247BA4B10C4CE8
S315080038004FEA001E04EB001C44F80E30029BCCF86D
S3150800381004300024CCF8084003F032FC204610BDE2
S315080038200448FCE70448FAE70448F8E7565D002030
S3150800383008290020028000F0018000F0078000F0CF
S3150800384008B50A4B1B785BB10F280BD8084B03EB5E
S3150800385000131B7B43B1002103F0B0FB002008BD19
S315080038600448FCE70448FAE70448F8E7565D0020F0
S3150800387008290020028000F0018000F0078000F08F
S3150800388008B50A4B1B785BB10F280BD8084B03EB1E
S3150800389000131B7B43B1012103F090FB002008BDF8
S315080038A00448FCE70448FAE70448F8E7565D0020B0
S315080038B008290020028000F0018000F0078000F04F
S315080038C0F8B5194B5F6D9B6D1F4002D40125002486
S315080038D002E0FEE701346D000F2C24D83D42F9D0F2
S315080038E0124B5D652301124AD358002BF2D002EB26
S315080038F00416B1680131B16072682046984780F0B5
S315080039000100C0B2737B012BE4D10028E2D0094B39
S3150800391003EB44131A7B6FF341021A731A7F6FF392
S3150800392041021A77D6E7F8BD00000450002004507B
S31508003930082900200827002010B5044656F070F81C
S31508003940636CA3F1140202FB00F0B3F5805F00D0AC
S3150800395010BD183B61699942FAD9044BA3FB0223AF
S315080039601B09033323F003031844F1E7CDCCCCCC71
S315080039702DE9F04F89B005460E4614469846C36BA6
S315080039805B69012207A960689847EB6B5B690122AE
S3150800399006A93046984707A857F01DFA48B10027E8
S315080039A0A77567754FF0FF33A360384609B0BDE8C1
S315080039B0F08F074606A857F01EFA0123A375237E43
S315080039C0033304EBC3035E6000221A816368B342C3
S315080039D02AD02368834201D00023A37506A857F08E
S315080039E02FFA237D984201D00023A37506A857F025
S315080039F006FA814607A857F002FA814501D0002346
S31508003A00A37506A857F003FA814607A857F0FFF9E9
S31508003A10814501D00023A375237D043BDBB2022B2D
S31508003A200BD80023A375C0E7206006A857F008FA4C
S31508003A3020754FF0FF33A360EEE706A857F0DFF9CD
S31508003A4080B1EB6B5B69022204A93046984704A84B
S31508003A5057F0E8F90346207D032868D8DFE800F028
S31508003A60615B070D06A857F0DDF90346F3E7237EE9
S31508003A70033304EBC303CC221A8157F0F1F9129BE6
S31508003A80187094F8189006A857F0ACF909F10309CC
S31508003A9004EBC90989F80A00237E033304EBC30340
S31508003AA0B3F808A093F80AB006A857F0A8F9814613
S31508003AB006A857F0ACF90390B9F1000F3DD0EB6BAF
S31508003AC05B69022204A93046984704A857F066F9AC
S31508003AD06075637D03B9A375A37DA3B1BAF1000F21
S31508003AE011D0039BF1186B6C5B4286EA01021A42FD
S31508003AF001D00023A3756B6C5A1E0A409B1A9A457F
S31508003B0001D90023A375A37D002B40D0BBF1000F7C
S31508003B1018D1E77D3CE0227E033204EBC202138112
S31508003B20ABE7227E033204EBC2021381A5E7227EAD
S31508003B30033204EBC20213819FE706A857F017F970
S31508003B406075C6E70122E275627EBAB9BBF1010F5C
S31508003B5008D095F83470DFB9EA6AB2F1FF3F05D0AC
S31508003B601F4615E001216176174611E0BBF1030FE8
S31508003B7001D01F460CE00122A27609E0BBF1010F35
S31508003B8037D0BBF1030F03D10122A27600E01F460E
S31508003B9053B117B1BBF1010F06D95346039A314603
S31508003BA0284656F062FAA060A37D13B123695344F0
S31508003BB02361237E114A127893421CD2013323765D
S31508003BC0B8F1000F13D0A37D8BB1E37D7BB177B934
S31508003BD0BBF1030F0BD0A168B1F1FF3F07D0129BD1
S31508003BE00093012322462846FFF7C2FEA075A77D4B
S31508003BF0DBE61746CCE70023A375E1E7F4AD070833
S31508003C002DE9F04F89B005460F4692469B4600239C
S31508003C108DF80B304FF0FF31104600F0B3FFB7F5C3
S31508003C20801F1DD30023009317F1020F07D0009BB6
S31508003C30002B40F09E802B7C002B00F08C80EB6ADA
S31508003C40B3F1FF3F2CD02A689B1A6A6CB3FBF2F9D2
S31508003C5017F1020818BF4FF00108002301935DE031
S31508003C600DF10A02394605F1080000F0DBFE0146AF
S31508003C70B0F1FF3F11D0504600F084FF0DF10B0361
S31508003C8001225146284656F06FFA00900028CBD0FC
S31508003C909DF80B308BF80030C6E700230093C3E786
S31508003CA0696A284656F002F98146D1E7012301934D
S31508003CB037E09DF80B308BF80030324B1A683249E2
S31508003CC0504663F0BEFA00942F4B9968B1F1FF3F56
S31508003CD01BD06B6C5B4281EA06021A4215D12A4C4C
S31508003CE0204600F04FFF0DF10B03424621462846B9
S31508003CF056F03AFA04460028E6D017F1020FD8D053
S31508003D00214B1B68BB42DFD1D3E74946284656F00C
S31508003D10CDF88146019BCBB9009BBBB96B6A4B4575
S31508003D20C4D02C686B6C03FB0944EB6B5B690522FA
S31508003D3003A92046984703A857F029F957F04EF9E2
S31508003D40204657F057F906460146BFE7009BA3B140
S31508003D50B7F5801F03D3009B8BB100200AE09BF8C0
S31508003D600030DAF80420394605F1080000F078FE3C
S31508003D70F1E7002009B0BDE8F08F2D20FAE72D20E5
S31508003D80F8E700BFF0AD07087C30002070B582B0B8
S31508003D9004464FF0FF33C3620DF107031A4A6FF06A
S31508003DA00101FFF72DFF20BB174B9B68E362E56A0D
S31508003DB02946204655F06BFE2063E8B12946204681
S31508003DC056F043F90546A36AAB421BD0294620465E
S31508003DD055F05DFE0646236B0344236329462046B9
S31508003DE056F033F90546002EEDD100232363E06231
S31508003DF0E9E7A36AE362DAE7E16A204656F025F9BD
S31508003E00E062DBE702B070BDA830002030B583B0B1
S31508003E101C46032A14BF002201221B7E9A4202D0A6
S31508003E20012003B030BD0D46096823689942F7D3CF
S31508003E3063689942F4D80DF10703114AFFF7E0FECB
S31508003E400028EDD10E4B5A686B689A42E8D19DF866
S31508003E500730032B14BF00230123227E9342DFD1B0
S31508003E606369013363612369E2689342D8D2A26821
S31508003E70296842F82310236901332361D0E700BF7C
S31508003E80A83000202DE9F04182B004460E4690463F
S31508003E901F46816A06E01A4B9968B1F1FF3F1FD0A9
S31508003EA0012E23D0E06A884217D0B1F1FF3F14D023
S31508003EB0134D284600F066FE0DF107030122294638
S31508003EC0204656F051F90028E5D03B469DF80720D4
S31508003ED029462046C0470028DDD102B0BDE8F0815A
S31508003EE05968204656F0B1F80146D9E7044B5A6896
S31508003EF0636C5B424A401A42D4D04FF0FF31D1E797
S31508003F005030002010B50446083000F051FD00235B
S31508003F10024A19462046FFF7B5FF10BD57A1050806
S31508003F2038B50446037C0BBB02461349083000F03B
S31508003F30E1FD616A204655F0DBFF421C616A2046B6
S31508003F4055F02CFF054620B9236B626C1344143BCD
S31508003F502363A16A204656F078F8A0622368C01A3F
S31508003F60636CB0FBF3F06062284638BD0023034A51
S31508003F700121FFF787FFDCE7F1A40508BFA40508C0
S31508003F80F0B589B080B30F4616461D46044690F82C
S31508003F9034301BB90025284609B0F0BD012155F07B
S31508003FA0D2FE01950E9B0293039704960023059370
S31508003FB006939DF83C308DF81C30237C5BB901AA2A
S31508003FC00A4904F1080000F095FD5EB9069D2046F1
S31508003FD056F05BF9DFE701AB054A00212046FFF7FB
S31508003FE051FFF2E7059DF2E70025D4E70B9D05088A
S31508003FF00D3E0008F0B58BB004460D46406AE36BEB
S315080040005B69052205A92668676C07FB0060984767
S3150800401005A856F0BCFF012836D00094002301936A
S315080040208DF80850039301238DF81030A16AE36ACE
S3150800403099420FD0237CBBB96A46144904F108009B
S3150800404000F058FD019B13B99DF810309BB90198F3
S315080040500BB0F0BD204655F0F8FFE062236B626CAA
S315080040609B1A14332363EDE76B46094A0121204660
S31508004070FFF708FFE6E7626A2368616C01FB023115
S31508004080E06B56F036FFE2E70020E1E7A1420008C0
S31508004090214200082DE9F04F89B004468A46914628
S315080040A01D46002307930969026BCB1D406C143823
S315080040B0B3FBF0F3013301EBC301914200F2AC808C
S315080040C04E46A9467FE03D2840F09680BB460490C0
S315080040D0059624E04FF000082368616C01FB053162
S315080040E0E06B56F0F2FE204655F037FE204655F0B6
S315080040F066FE204655F09EFF204655F0CDFF20630C
S31508004100B8F1000F49D0DAF81020D31D616C1439C4
S31508004110B3FBF1F3013302EBC30290423AD32368AF
S31508004120ABEB0308606CB8FBF0F808FB003056F000
S3150800413061FF0646E16A204655F087FFA36A834277
S3150800414031D0E062354B9A68616C4B1E1340226B86
S315080041505B1A13442363ABEB06072368079DED1A26
S31508004160B5FBF1F5A845B5D197B1E36B9B69BA08DC
S31508004170314698478046E36A3B44E362236BA6EBE5
S315080041800B061E44266304F1080000F011FCA3E7A1
S31508004190B846A1E7049D059E07E0049D059E2046B6
S315080041A0FFF7B0FE01E0049D059E2DB3DAF8101066
S315080041B0226BCB1D606C1438B3FBF0F3013301EBB3
S315080041C0C3018A4218D3E76A144D3946284600F0D7
S315080041D0D9FC07AB0293CDF8049000963B462A46D5
S315080041E05146204656F07DFA054600287FF46BAF07
S315080041F00A4B9B68E362D8E72F461FB1384609B0D9
S31508004200BDE8F08F4B46054A5268DAF8001004F10B
S31508004210080000F025FCF1E71C27EFE77C300020BA
S31508004220F0B583B01C46032A05D1237A012B33D077
S31508004230012003B0F0BD06460F4615460DF10703EB
S31508004240164A0968FFF7DCFC60600028EDD19DF886
S315080042500730032BE9D0114B5A687B689A42E4D1A0
S31508004260237A012B08D13B69E268134472699342A9
S3150800427002D900232374D8E7E3683A69134408335C
S31508004280E3602B46012239463046FFF703FF60609C
S315080042900028CAD00020CCE7207CCAE7A830002036
S315080042A0F0B583B0089C2668032A05D1237A012B2A
S315080042B04DD0012003B0F0BD15460DF10703254A80
S315080042C03046FFF79DFC60600028EFD12168214B3E
S315080042D05A688B6A486CC0F1000C5A4012EA0C0FF7
S315080042E0E4D1227A012A19D00F68DB1BB3FBF0F35D
S315080042F0CA6AD21BB2FBF0F29A4219D0E368154992
S315080043000A6913440833E3602B4601222068FFF745
S31508004310C1FE60600028C9D00020CBE70D4A1269AB
S31508004320E7683A447769BA42DED900232374BDE7C1
S31508004330726CF16A531E0B40316B9B1A0B44336344
S315080043402668B16A304655F080FEF062D6E7207CD2
S31508004350B0E700BFA8300020F8B56E4B1E680022F3
S315080043601A60002800F0B6800D46044690F83430EE
S3150800437013B30A6803689A4240F0AE804A684368F5
S315080043809A4240F0AC808A6883689A4240F0A980D5
S31508004390CA68C3689A4240F0A6800A6943699A4285
S315080043A040F0A3808A69C36B9A4201D05D2594E0E8
S315080043B04B698361002590E0876B6822002162F0D3
S315080043C0BBFEA7632B6823606B6863602B69636118
S315080043D06B69A361EA68A96804F1080000F0FAFAB3
S315080043E0AB69E3639B6804F14000984730B9636C96
S315080043F023B16268B2FBF3F2E26101E00023E361F4
S3150800440094F84330002B72D000232366656C002D88
S315080044106FD0E369002B6ED02368B3FBF5F205FB7A
S315080044201233002B69D16768B7FBF5F305FB1373E5
S31508004430002B64D1204655F01AFBA36903440433C4
S315080044409F425ED36369B3F5805F5CD8CB2B5CD99A
S31508004450B5F5805F5BD30321204655F074FCE36B0A
S315080044601B686168206898470546E36BDB6802208D
S315080044709847EDB1636C143B5DB9266A03FB06F6F3
S31508004480204655F0F4FAA369034404339E4200D249
S315080044905A25B5FA85F35B0984F834301BB11E4AF0
S315080044A013680133136085B1204655F0EEFE14E01B
S315080044B03146204655F06CFE05466428DAD1314669
S315080044C0204655F065FE0546D4E76168206856F033
S315080044D0F7FBE9E7212500E05D252846F8BD5D25BF
S315080044E0FBE75D25F9E75D25F7E75D25F5E7212576
S315080044F0F3E75B25F1E75B25EFE75925EDE7592556
S31508004500EBE75A25E9E75F25E7E75F25E5E75B255A
S31508004510E3E700BF0C2A0020082A0020F0B585B082
S31508004520A8B30C4617461E46054690F8343083B3A2
S31508004530B1F5801F2FD2012155F005FC0DF10F03AF
S31508004540164A21462846FFF75BFB044630B99DF814
S315080045500F30012B08D0022B17D02D24284655F0F2
S3150800456094FE204605B0F0BD0C4B1B69B34201D042
S315080045706324F3E700220192084B00933346394639
S31508004580284655F08AFE0446E8E76024E6E7212433
S31508004590E7E71124E5E72924E3E700BFD430002044
S315080045A0F0B585B0002838D00C4617461E46054695
S315080045B090F834309BB3B1F5801F32D2012155F003
S315080045C0C2FB0DF10F03184A21462846FFF718FBD0
S315080045D0044630B99DF80F30012B08D0022B1AD0AB
S315080045E02D24284655F051FE204605B0F0BD0E4B49
S315080045F01A690A9BF3189A4201D26324F1E7002349
S315080046000193094B00930A9B32463946284655F0D2
S3150800461044FE0446E5E76024E3E72124E4E71124A1
S31508004620E2E72924E0E700BFD430002070B582B065
S3150800463058B30C461646054690F834303BB3B1F5E8
S31508004640801F26D2012155F07EFB0DF10703124A81
S3150800465021462846FFF7D4FA044668B99DF807307C
S31508004660032B10D0022B01D0612406E00A49284604
S3150800467055F0FBFF306000E02D24284655F005FE76
S31508004680204602B070BD2D24F7E72124F8E711244F
S31508004690F6E72924F4E700BFD4300020F0B583B04C
S315080046A01C460023236070B30E461746054690F84D
S315080046B0343053B3B1F5801F29D2012155F043FB9D
S315080046C00DF10703134A31462846FFF799FA0646BD
S315080046D080B99DF80730032B13D0022B05D0002391
S315080046E03B600C4B1B69236005E001233B600423F8
S315080046F0236000E02D26284655F0C7FD304603B056
S31508004700F0BD2D26F7E72126F8E71126F6E7292634
S31508004710F4E700BFD430002000B583B0044B009303
S3150800472000231A46194656F0D1F903B05DF804FB82
S31508004730FFFF0F0000B583B0044B009300231A4611
S31508004740194656F0CDF903B05DF804FBFFFF0F00DC
S315080047502DE9F8431D469DF820704369AB422FD3D7
S3150800476004468846914655F07EFE032F06D0266BF2
S315080047702946204655F06CF9864225D3134E4FF04C
S31508004780FF31304600F0FEF9C6F800803561C6F8FC
S315080047900C903B46002231462046FFF77BFC054637
S315080047A0236E73B1204656F0A5F994F8503013B924
S315080047B094F858302BB1236E04F15000984700E066
S315080047C062252846BDE8F8831C25FAE7A8300020AC
S315080047D02DE9F04184B000283AD00C4690461F4691
S315080047E0054690F83430ABB3B1F5801F34D20221B8
S315080047F055F0A9FA0DF10F03184A21462846FFF786
S31508004800FFF918B99DF80F30012B0FD0012300933B
S315080048103B46424621462846FFF79AFF0646284663
S3150800482055F033FD304604B0BDE8F0810B4B1B69EB
S31508004830BB42EBD101230193084B00933B46002270
S315080048404146284655F029FD06460028E7D0DDE70B
S315080048502126E7E71126E5E72926E3E7D4300020F5
S3150800486070B586B00392C0B30C46054690F834304E
S31508004870ABB3B1F5801F34D2022155F064FA0DF1BD
S315080048801703194A21462846FFF7BAF9064638B9E2
S315080048909DF81730032B03D0022B10D0612608E0B1
S315080048A002230093CC2303AA21462846FFF750FF8C
S315080048B00646284655F0E9FC304606B070BD0A495A
S315080048C0284655F0D2FE039A8242F2D0034606499C
S315080048D0284656F03AF90646EBE72126ECE7112674
S315080048E0EAE72926E8E700BFD430002030B585B0CE
S315080048F048B30C46054690F8343033B3B1F5801FFB
S3150800490025D2022155F01FFA0DF10F03114A21464F
S315080049102846FFF775F978B99DF80F30032B01D1B2
S315080049202D240AE00323009300231A46214628462D
S31508004930FFF70EFF044600E02D24284655F0A5FC97
S31508004940204605B030BD2124FAE71124F8E72924CA
S31508004950F6E700BFD4300020036853F83100C0F3EF
S3150800496013007047036853F83100C0F307507047C7
S31508004970036803EBC1035868704700BF006850F826
S3150800498031301B0D1B05134340F83130704700BF0B
S31508004990006850F83130C3F3130343EA025340F872
S315080049A031307047036803EBC1035A60704700BF94
S315080049B0002309E002684FF0FF3142F8331002681D
S315080049C002EBC3025160013342689A42F2D80023CF
S315080049D00372704708B501604260FFF7E9FF08BD3A
S315080049E0002342689A421BD910B403E00133426897
S315080049F09A4212D904684FEAC30C54F83320B2F12C
S31508004A00FF3FF3D0C2F313029142EFD14FF0FF32CA
S31508004A1044F80C20036863445A605DF8044B7047F9
S31508004A20704700BF10B5002300E0013344689C427C
S31508004A3012D904684FEAC30E54F83340B4F1FF3F65
S31508004A40F3D0C4F3130C6145EFD1C4F307541470C3
S31508004A5003687344586801E04FF0FF3010BD00BF8B
S31508004A602DE9F047456806467DB30F4691469846B8
S31508004A700024D0F800A05AF83430013305D0214676
S31508004A803046FFF769FFB84210D00134A542F2D18B
S31508004A90002402E00134A54214D05AF83430013318
S31508004AA0F8D13A4621463046FFF768FF4246214686
S31508004AB03046FFF76DFF4A4621463046BDE8F047C7
S31508004AC0FFF770BFB8F1030F03D101233372BDE8B6
S31508004AD0F087002402E00134A542F6D0214630468C
S31508004AE0FFF740FF0328F6D13A4621463046FFF73E
S31508004AF045FFDBE72DE9F0439146426883B00AB3E8
S31508004B000546884600242B6853F83430013316D0FE
S31508004B1021462846FFF720FF214607462846FFF785
S31508004B2021FF214606462846FFF722FF3946034657
S31508004B3032462846CDF80090C04718B16A68013455
S31508004B409442E0D303B0BDE8F08300BF08B5034B39
S31508004B501968034B1868FFF7FFFB08BDA469002016
S31508004B60C469002008B575F064FD014B186008BDDE
S31508004B700031002008B5024B186875F055FD08BDD0
S31508004B800031002038B504460D46094B1A68002145
S31508004B9062F0D2FA4FF0FF32226065600023A375F7
S31508004BA02361A260E3756376A376237638BD00BFDA
S31508004BB0F0AD07082DE9F04186B006460D461746C2
S31508004BC09846586856F05AF94403A4B298F8033040
S31508004BD01B0303F480531C4498F80230DB0203F4E9
S31508004BE000631C44B8F80030C3F30A031C441B4B8B
S31508004BF001930021384656F04BF9029001213846B8
S31508004C0056F046F903904FF0FF3304936FEA0444D5
S31508004C106FEA14440594B369012205A905F1100049
S31508004C2098470446B369012203A905F10800984785
S31508004C30074600B92746B369012202A9281D9847E5
S31508004C40044600B93C46B369012201A9284698479B
S31508004C5000B9204606B0BDE8F08100BF01009AB24F
S31508004C6070B504460D4616461F2906D856B104F5F2
S31508004C7080540123AB40236070BD9121034854F052
S31508004C8028FEF3E704F50054F3E700BFF8AD07087C
S31508004C9038B505460C46114BD3F8803003F00303AC
S31508004CA0022B13D0032B15D0012B07D041F22E214E
S31508004CB00B4854F00EFE0023184602E071F036FF4A
S31508004CC00D2305B1286004B1236038BD71F0CCFE10
S31508004CD00723F6E771F0B0FE0623F2E700800050DE
S31508004CE064AE070838B505460C46194BD3F82001BB
S31508004CF000F0070006281DD8DFE800F02404081095
S31508004D000C14180071F098FE05231CE071F0A2FE41
S31508004D10032318E071F0A8FE072314E071F096FE4D
S31508004D20022310E071F088FE06230CE071F092FE73
S31508004D30042308E041F2AB21064854F0CAFD0023DB
S31508004D40184600E0012305B1286004B1236038BD88
S31508004D500080005064AE070838B505460C46184B67
S31508004D60D3F8283103F00703013B052B20D8DFE8E9
S31508004D7003F003131B0F0B1771F05EFE052305B135
S31508004D80286004B1236038BD71F056FE0623F6E7A5
S31508004D9071F06AFE0723F2E771F05CFE0323EEE783
S31508004DA071F058FE0423EAE771F050FE0223E6E7A5
S31508004DB041F2A501034854F08CFD00231846DEE7AE
S31508004DC00080005064AE070830B583B005460C462F
S31508004DD000230193174BD3F8203203F00703042B63
S31508004DE019D8DFE803F01F03090E1300002101A8F4
S31508004DF0FFF7B2FF112316E071F036FE0190072384
S31508004E0011E074F055FD01900A230CE071F082FE62
S31508004E100190092307E041F26201074854F059FD61
S31508004E20002300E001230DB1019A2A6004B1236032
S31508004E3003B030BD0080005064AE070870B582B07C
S31508004E4006460D4600230193134BD3F8804104F020
S31508004E500304022C1BD0032C14D0012C06D041F2DB
S31508004E600E410E4854F035FD002404E0002101A847
S31508004E70FFF738FF0F240EB1019B336005B12C6094
S31508004E8002B070BD71F0F0FD01900724F3E771F0F0
S31508004E90DDFD0190EFE700BF0080005064AE070813
S31508004EA038B505460C46124BD3F8400100F003000E
S31508004EB003280FD8DFE800F01602060A74F0F8FC9B
S31508004EC00A2310E071F026FE09230CE074F0F3FCC7
S31508004ED00B2308E041F2DD21064854F0FAFC0023D2
S31508004EE0184600E0012305B1286004B1236038BDE7
S31508004EF00080005064AE070838B505460C46154BC9
S31508004F00D3F8000200F00700042815D8DFE800F0FF
S31508004F101C03070B0F0074F0CBFC0A2315E071F095
S31508004F20F9FD092311E074F0C6FC0B230DE071F0BE
S31508004F3021FE800A0E2308E041F2CC41064854F0CF
S31508004F40C8FC0023184600E0012305B1286004B117
S31508004F50236038BD0080005064AE070838B50546A2
S31508004F600C46154BD3F8080200F00700042815D89C
S31508004F70DFE800F01C03070B0F0074F099FC0A2306
S31508004F8015E071F0C7FD092311E074F094FC0B23BA
S31508004F900DE071F0EFFD800A0E2308E041F204519E
S31508004FA0064854F096FC0023184600E0012305B194
S31508004FB0286004B1236038BD0080005064AE07083D
S31508004FC038B505460C46124BD3F8400200F00300EC
S31508004FD003280FD8DFE800F01602060A74F068FC0A
S31508004FE00A2310E071F096FD09230CE074F063FCC7
S31508004FF00B2308E041F28B41064854F06AFC002373
S31508005000184600E0012305B1286004B1236038BDC5
S315080050100080005064AE070830B583B005460C46DC
S3150800502000230193174BD3F8603203F00703013BC3
S31508005030032B1FD8DFE803F0020E1914002101A87C
S31508005040FFF750FE0F230DB1019A2A6004B12360C1
S3150800505003B030BD002101A8FFF722FF1023F2E7B5
S3150800506071F002FD01900723EDE771F0EFFC019066
S315080050700223E8E741F20911034854F02AFC002309
S31508005080E1E700BF0080005064AE070830B583B082
S3150800509005460C46002301930E4BD3F8703203F0F5
S315080050A00303012B08D0022B0CD041F267110A48E2
S315080050B054F00FFC002306E0002101A8FFF7F0FEDC
S315080050C0102300E014230DB1019A2A6004B123606D
S315080050D003B030BD0080005064AE070838B50546F9
S315080050E00C460E4BD3F8903203F00303012B09D07C
S315080050F0022B0BD171F0B8FC072305B1286004B167
S31508005100236038BD71F0A2FC0223F6E741F2911143
S31508005110034854F0DEFB00231846EEE700800050F3
S3150800512064AE070838B505460C46124BD3F860013D
S3150800513000F0030003280FD8DFE800F01602060A7D
S3150800514074F0B6FB0A2310E071F0E4FC09230CE0C6
S3150800515074F0B1FB0B2308E041F20F31064854F016
S31508005160B8FB0023184600E0012305B1286004B106
S31508005170236038BD0080005064AE070838B5054680
S315080051800C46114BD3F8A03203F00303022B0BD0C5
S31508005190032B0DD0012B0FD041F252510B4854F07E
S315080051A098FB0023184609E071F0B4FC092305E0D2
S315080051B074F07EFB0A2301E01823054805B1286030
S315080051C004B1236038BD00BF0080005064AE0708F4
S315080051D0006CDC0238B505460C46124BD3F80001C4
S315080051E000F0030003280FD8DFE800F01602060ACD
S315080051F071F030FC032310E071F08CFC09230CE0FD
S3150800520071F02EFC082308E041F26421064854F0A8
S3150800521060FB0023184600E0012305B1286004B1AD
S31508005220236038BD0080005064AE070808B5344BCB
S3150800523098424ED028D8334B984244D009D9324B9D
S31508005240984243D0314B984218D1314BD3F880005D
S315080052500DE0304B98420ED008D92F4B98420AD011
S315080052602E4B984245D12A4B586E00E000B908BD2E
S315080052702B4B98423DD1264B986DF8E7294B98421F
S3150800528037D1234B586FF2E7274B984229D009D9D3
S31508005290264B984229D0264B98422AD11C4BD3F844
S315080052A09C00E4E7234B984217D0234B984203D13E
S315080052B0174BD3F89000DAE7204B984219D1144BD4
S315080052C0D3F88800D3E7124B186FD0E7104B986FC6
S315080052D0CDE70F4BD3F88400C9E70D4BD3F88C0004
S315080052E0C5E70B4BD3F89400C1E7094BD3F89800F0
S315080052F0BDE741F2E331124854F0EBFA0020B6E775
S315080053000048E801405DC600C0EA210180BA8C0168
S315080053100080E00F80841E0000093D00C0CF6A00AF
S3150800532040420F000024F4000090D00300B4C404E7
S3150800533000E1F505006CDC02007E560380D54302C9
S3150800534064AE070808B52E4B984241D00DD92D4BAF
S31508005350984245D02FD92C4B984245D02B4B984292
S3150800536022D12B4BD3F8D0001AE02A4B98423FD0D3
S315080053700CD9294B98423FD003F5371303F5D86368
S31508005380984211D1224BD3F8B80009E040B1234B1B
S31508005390984202D0224B984203D11D4BD3F8A00065
S315080053A008BD204B9842F8D041F2F8111E4854F037
S315080053B090FA0020F4E71D4B98420DD003F57423AC
S315080053C003F510739842EFD1114BD3F8C400E7E701
S315080053D00F4BD3F8BC00E3E70D4BD3F8C000DFE76B
S315080053E00B4BD3F8C800DBE7094BD3F8CC00D7E75B
S315080053F0074BD3F8A400D3E7054BD3F8B000CFE7A3
S315080054000024F40080BA8C010048E801005A6202C0
S315080054100080E00F404B4C008096980080841E0068
S3150800542000093D0040420F0064AE0708C0EA2101AA
S3150800543010B5B0F5207F2FD01DD8B0F5007F25D048
S315080054402FD810B1B0F5C07F13D1174B1C6F230BA3
S31508005450C4F3033413F00E0F24D048F28803E34054
S3150800546013F0010F1ED140F28B21104854F031FA87
S3150800547018E0002416E0B0F5607F05D10A4BD3F892
S315080054808040C4F301140DE000240BE0064BD3F86A
S315080054909040C4F3046405E0034B1C6FC4F38024F6
S315080054A000E00024601C10BD0080005064AE0708B0
S315080054B038B505460C461A4B4FF480329A660020DA
S315080054C0FFF7B6FF05FB00F0164BDA6902F48032E7
S315080054D041F67131D9635B6823F440136CB91249FC
S315080054E0884217D81149884217D81149884201D8E5
S315080054F0002105E04FF4801102E0002C07DD0021B1
S315080055000B4308494B600AB10022CA6338BD4FF401
