:020000040800F2
:100000000004002069210008A56D0508A56D0508FC
:10001000A56D0508A56D0508A56D0508A56D050864
:10002000A56D0508A56D0508A56D050889300708AB
:10003000A56D0508A56D05082D300708A957070807
:10004000A56D0508A56D0508A56D0508A56D050834
:10005000A56D0508A56D0508A56D0508A56D050824
:10006000A56D0508A56D0508A56D0508A56D050814
:10007000A56D0508B5C10108A5C1010895C1010814
:1000800085C10108A56D0508A56D0508A56D0508C4
:10009000A56D0508A56D0508A56D0508A56D0508E4
:1000A000A56D0508A56D0508A56D0508A56D0508D4
:1000B000A92C0008A56D0508A56D0508A56D050806
:1000C0007D28000855280008A56D0508A56D0508C0
:1000D000AD4F0208655902085D43060859430608FA
:1000E0005550020873430608614306083559020853
:1000F00065430608C9590208B95A0208A56D0508E2
:10010000A56D0508A56D0508A56D0508A56D050873
:10011000A56D0508A56D0508A56D0508A56D050863
:10012000A56D0508A56D0508A56D0508A56D050853
:10013000A56D0508A56D0508A56D0508A56D050843
:10014000A56D0508A56D0508A56D0508A56D050833
:10015000A56D0508A56D0508A56D0508A56D050823
:10016000A56D0508A56D05081D730108A56D050899
:10017000A56D05081F6707080D3702084D430608DF
:1001800053430608A56D0508A56D0508A56D05086E
:10019000A56D0508A56D0508A56D0508A56D0508E3
:0801A00077430608A56D050870
:1001A800194A5AB3194BDB6913F0040F29D110B45B
:1001B8000AE003EA00048C4210D0013AB2B1134BB2
:1001C800DB6913F0040F14D110F0010FF1D1104CBA
:1001D8001C40002CEDD06FF001000CE00C4A1A40D6
:1001E8000AB9002007E06FF0010004E06FF0020098
:1001F80001E04FF0FF305DF8044B70476FF00200EC
:1002080070474FF0FF307047809698000000035009
:10021800020001000D4BDB6913F4803F12D170B569
:100228000A4B03F580560124F46003F500552C644D
:100238004FF480721A6100212046FFF7B1FF346441
:10024800EC6070BD6FF00100704700BF0000035004
:1002580038B50446C0F30C03FBB9154B4FF4803294
:100268009A6603F51C33DD69154041F67132DA638D
:1002780003F580520121D1605C6102221A610021DC
:100288002120FFF78DFF70B10A4B0122DA601DB102
:10029800A3F500530022DA6338BD4FF4087106480D
:1002A80000F096F8D9E700212120FFF779FFEBE766
:1002B8000090005000200350446F070838B51A4BCF
:1002C8005861DB6913F0040F2AD10C4654F8041B5B
:1002D800154B9961151F06E0214651F8042B124B66
:1002E8009A61043D0C465DB108210846FFF758FFA6
:1002F80003460028F0D00C4A04211161184638BD85
:10030800094B04221A6100212120FFF749FF034607
:100318000028F3D100212120FFF742FF0346EDE733
:100328004FF0FF33EAE700BF000003502DE9F0412A
:100338000F461646054610F0030F14D116F0030FAA
:1003480017D1204B4FF480329A6603F51C33DA69D3
:1003580002F4803841F67132DA6303F580530122E2
:10036800DA6000230EE04FF41B71174800F030F8F4
:10037800E4E740F26E21144800F02AF8E1E725444A
:100388002744361B8EB105F5005424F4FF5424F09D
:100398001F04641BB44228BF344622463946284607
:1003A800FFF78CFF03460028E9D0084A0121D160F5
:1003B800B8F1000F03D0A2F500520021D16318460E
:1003C800BDE8F08100900050446F070800200350FA
:0803D8005FF800F0BB6D0508A1
:10040000013800D0FCE770472DE9F04F2DED028B4D
:1004100093B082460C4693461D4657EC106B8DED0B
:10042000080B32463B46304639461CF0EFFA0028AE
:1004300000F009814FF0FF32B14B304639461CF0D5
:100440000DFB002840F0FF804FF0FF326FF4801367
:10045000304639461CF0E4FA002840F0F4800022CF
:100460000023DDE90867304639461CF0D9FA002838
:1004700040F0FC809DED087B8DED067B209B13F406
:100480008063119301D106231E93DDE90601024624
:10049000C1F30A50C1F31303904643F07F5949F466
:1004A0004019A0F2FF301BF0DFFF83A3D3E9002344
:1004B0001CF044F882A3D3E900231BF089FE064612
:1004C0000F4600228F4B404649461BF07FFE7EA31D
:1004D000D3E900231CF032F802460B463046394679
:1004E0001BF076FE1CF0C4FA06461BF0BDFF8046EA
:1004F000894677A3D3E900231CF020F80022824B21
:100500001BF066FE1CF0B4FA074673A3D3E9002380
:10051000404649461CF012F88046894638461BF092
:10052000A3FF6FA3D3E900231CF008F802460B4693
:10053000404649461BF04AFE8046894602460B4625
:100540001BF0FCFFCDE90C0107F2FF370021002270
:10055000CDE90A123B050B9300230A9342464B4612
:10056000404649461BF034FECDE90E0142464B465B
:1005700000204FF080411BF029FE80468946002272
:10058000624BDDE90C011CF003F90022604B1BF00B
:100590001FFE02460B46DDE90C011CF0F9F80022B3
:1005A0005C4B1BF015FE02460B46DDE90C011CF00E
:1005B000EFF802460B46404649461BF009FE02464C
:1005C0000B46DDE90E011CF0E3F80022524B1BF054
:1005D000FFFDDDE90A231BF0B1FF8046894649ECA7
:1005E000188BDDE906231CF039FA40B1013E0022E8
:1005F000474B404649461CF0CBF841EC180B06F13E
:100600006303C62B3BD80427209B13F4006F40D014
:1006100035A3D3E90023DDE90689404649461CF0AD
:1006200013FA00283BD032A3D3E9002340464946C1
:100630001CF0F6F9002832D01E9BB34221DD9E1B30
:10064000731E1E931FE0209B02931F9B01931E9B12
:1006500000939DED080B2B465A462146504600F06C
:10066000CBF813B0BDEC028BBDE8F08F9FED227B81
:100670008DED067B069607F100430793FEE60527FE
:10068000C2E700231E93209B43F48063209300273E
:100690003E461F9B9F4241D2A3EB070840E01E9BB2
:1006A000002BF6D0119B002BF3D01E9B013B1E9319
:1006B000EFE700BFAFF30080FB799F501344D33FB7
:1006C000B3C8608B288AC63F61436F63A787D23F58
:1006D00071A379094F930A401655B5BBB16B02401F
:1006E000EF39FAFE422EE63F2D431CEBE2361A3F6D
:1006F0000000000080842E41000000000000000087
:10070000FFFFEF7F0000F83F0000E03F00002C40BB
:1007100000002440000018400000F03F4FF00008A7
:10072000209B13F0020902D00FB14FF000083EB138
:1007300053EC182BDDE906011CF02AF8CDE906017F
:1007400000220023DDE908011CF06AF900283BD1F2
:10075000209B23F400630293CDF804801E9B00933A
:100760009DED060B2B465A462146504600F044F8B4
:10077000002F3FF476AF209B13F0200F2CD04FF0CA
:10078000450C00F101082B46024621466046D04741
:1007900086EAE672A2EBE67205230593013F049711
:1007A000002303930A230293F30F019300922B4635
:1007B00042462146504659F027F9B9F1000F3FF45F
:1007C00050AF02461F9F10E0DDE90601024601F12D
:1007D0000043CDE90623BBE74FF0650CD1E7561C7B
:1007E0002B4621462020D0473246A2EB0B03BB42CA
:1007F000F5D3104635E700BF2DE9F04F2DED028B04
:1008000093B00590089192469B4659EC108B1E9D23
:1008100042464B46404649461CF0F8F8002840D076
:100820004FF0FF326FF48013404649461CF0F8F851
:10083000002845D14FF0FF32B14B404649461CF0ED
:100840000DF900284BD1AAA3D3E90023404649461D
:100850001CF004F900285AD1A7A3D3E9002340468D
:1008600049461CF0DDF8002851D100220023404603
:1008700049461CF0D5F8002857D100230993209B46
:1008800013F4806F5CD000241F2C5BD8092D59D93C
:1008900004F148036B44302203F8202C013D01345D
:1008A000F2E7209B03931F9B029303230193954B35
:1008B00000935B4652460899059858F0CBFF10E12B
:1008C000209B03931F9B0293042301938E4B009361
:1008D0005B4652460899059858F0BCFF01E1209B01
:1008E00013F004030FD0894A7BB1042320990391AC
:1008F0001F990291019300925B4652460899059810
:1009000058F0A8FFEDE0824AEEE70323EEE7209BD4
:1009100002931F9B0193009549EC108B5B46524656
:1009200008990598FFF770FDDBE042464B46002032
:1009300000211BF04BFC80468946012309939EE76A
:100940000625A0E7404649461CF092F806461BF0F3
:100950008BFD02460B46404649461BF037FC6D4B6B
:1009600003EBC50393ED008B53EC182B1BF0E6FD56
:1009700002460B46CDE906231CF0A2F807461BF001
:1009800063FD02460B46DDE906011BF01FFC024633
:100990000B46CDE9062300225F4B1CF05FF850B3F5
:1009A000013738461BF050FD02460B4651EC180B40
:1009B0001CF040F808B10136002755BB30461BF04B
:1009C00053FD02460B46404649461BF0FFFB80465E
:1009D00089460022504B1CF023F838B100224E4BC0
:1009E000404649461CF03AF8002842D016F0010F64
:1009F0003FD001363DE00022474BDDE906011CF007
:100A00000FF80028D9D117B117F0010FD5D0013751
:100A1000D3E71F2C17D8013D404BA3FB0723DB086E
:100A2000194603EB8303A7EB4303621C303304F145
:100A300048000DEB000404F8203C092F02D90F46B2
:100A40001446E6E714461F2C0AD86B1E45B104F184
:100A500048026A44302102F8201C1D460134F2E7A6
:100A60001F2C06D804F148036B442E2203F8202CD7
:100A700001341F2C17D82A4A82FB0632F317C3EB26
:100A8000A2031A4603EB8303A6EB4303611C303336
:100A900004F148000DEB000404F8203C16460AB1AE
:100AA0000C46E6E70C46209B03F00303012B39D0EC
:100AB0001F2C09D8099B002B51D004F148036B442B
:100AC0002D2203F8202C0134209B03931F9B0293BB
:100AD00001940AAB00935B4652460899059858F07A
:100AE000B9FE13B0BDEC028BBDE8F08FAFF3008010
:100AF0000000000065CDCD410000000065CDCDC1F6
:100B0000FFFFEF7F407C0708447C0708347C070820
:100B10003C7C0708507C07080000E03FCDCCCCCCE3
:100B2000676666661F9BB3B1099B1BB9209B13F0D8
:100B30000C0F12D01F9B013B1F93194606E004F1D6
:100B400048036B44302203F8202C01348C42AFD28E
:100B50001F2CF4D9ACE71F99F8E71F99F6E7209B03
:100B600013F0040F07D004F148036B442B2203F861
:100B7000202C0134A8E7209B13F0080FA4D004F127
:100B800048036B44202203F8202C01349CE700BF6B
:100B90002DE9F04180460F461546106051604FF434
:100BA0007A7200231BF0ACFF06460C461FA3D3E964
:100BB0000023404639461BF0A3FF83B22B81184A1D
:100BC00002FB03F3F61A64F100044FF461620023A0
:100BD000304621461BF094FFC0B2A8724FF4616307
:100BE00003FB00F0301A64F100040022031915D24F
:100BF00013440C4AA2FB0312D208C2EB02129B1A46
:100C0000C31A094AA3FB0232C3F38703EB72C3EB97
:100C10000313A0EB83002873BDE8F0810122E7E70E
:100C20008051010089888888EFEEEEEE005C260591
:100C30000000000000000000F0B5A34C9FB0228827
:100C4000A3780021ADF80C2013A82C228DF80E30CB
:100C500062F0F8FB4FF00233159340F20B130AAD2C
:100C60000434ADF874300FCC0FC50FCC0FC523681A
:100C7000964A2B60964B974D06930023CDE9073398
:100C800009934FF0FF33284693492B6025F0F0FC81
:100C90000446002840F0FC802B68013304D140F268
:100CA000C3418E4856F089F8286803A925F01EFD37
:100CB0000446002840F0EC80286863F0EFFC884F81
:100CC000884E3870286863F0EBFC3070286863F059
:100CD000E9FC854B85491870286825F0C3FF044658
:100CE000002840F0D5803B78814F002B40F09E805B
:100CF00080482AF091F83860002840F0B68040F231
:100D00000951764856F059F805F0E4FC7A4BCDE9E4
:100D1000040104AAA3F1080112F8010B03F8010D64
:100D20009942F9D13378002B40F0B9807349286893
:100D300062F0BFFE0446002840F0AA80704928688F
:100D400062F0A1FE0446002840F0A2806D492868A8
:100D500025F0A0FD0446002840F09A8058A3D3E96E
:100D60000023CDE90023286862F0A5FE0446002890
:100D700040F08E80644A6549286863F0E3FB0446CE
:100D8000002840F085804FF480502AF09BFB0446F9
:100D900000287DD10121286825F0C6FC04460028E2
:100DA00076D1A0235A4A06A8D3805A4A138074F0F9
:100DB000E2FD594B186020B940F25251474855F0B6
:100DC000FCFF00220121082075F055F8534B1860F4
:100DD00020B940F25551414855F0EFFF0022012162
:100DE000082075F048F84E4B186020B94FF4AB61FD
:100DF0003A4855F0E2FF4B4A4B494C482BF0AAFDCC
:100E00004A4849F0CDFA002149480AAA74F016FD73
:100E1000484C206020B940F26451304855F0CDFF75
:100E20004549206850F0ECF81FB0F0BD434829F068
:100E3000F3FF386000283FF45BAFC189286825F0D4
:100E400077FE3B68214658682AF020F80446F8B936
:100E50000721286863F0E7FA0446C8B9254829F055
:100E6000DBFF386000283FF44FAFC189286825F0C8
:100E70005FFE3B68042158682AF008F8044638B938
:100E80000721286863F0CFFA044600283FF43CAFFE
:100E90002346222102202A4A6FF07FFFC4E71C224A
:100EA000002116A862F0CEFA286813A926F0D4F81B
:100EB000044600283FF43AAFEAE700BFAFF30080F2
:100EC000C88D01C10340000004580908E5AA0208C2
:100ED0006851090818470020EC63002036500908C3
:100EE0005F5000205E5000205D5000200700110080
:100EF000D0460020EF5D0608685000200058090821
:100F0000FE5709081C47002088650020980E002025
:100F10002C640020C04F00209847002094470020F8
:100F2000904700207D510908F5AF0208384700209E
:100F30007DC002089C470020D8870908D95D0608B3
:100F400086510908000000002DE9F34705465C4C76
:100F5000222110205B4A6FF020FF294614222046F0
:100F600062F0F5FAA27B584BDFF8A4A11A70637CFB
:100F700000228AF800300023CDE90023DFF89481B5
:100F800000224FF40073D8F8000062F094FD05468B
:100F9000002840F08D804D4B4D4F1B7893B94D4844
:100FA00029F03AFF04463C6014BB4B4A2221022040
:100FB0006FF0F3FE01222125484B1A70284602B03B
:100FC000BDE8F087464B474C1A88474BD8F80000DD
:100FD00053F82210454A8B6821603B6025F044FCA1
:100FE0002268434B946824221B8802FB0344DAE7FF
:100FF000404B1C603B4BD3F80090B9F1000F04D17B
:1010000040F619013C4855F0D8FE00232420D9F8B9
:101010000C108B4201D1002613E0D9F8086000FBC8
:101020000366F2695278120912F00E0F3ED0052ABB
:101030003CD8324B0021F289B3F900003E6029F020
:1010400043FF1DA3D3E90023CDE90023D8F8000016
:1010500062F031FDD9F80820B24207D0284B3A603F
:101060000421D289B3F9000029F02EFF254BE28933
:1010700001201A803C602AF0A9FC234B1B78002B2E
:101080009CD09AF800301B0913F00E0F96D11F4B1D
:1010900007211B78D8F80000002B0CBF0122072283
:1010A00063F025FB051E18BF012587E70133B0E774
:1010B000012583E7AFF30080C88D01C10342000022
:1010C000D4460020BE530908535000205850002039
:1010D000D046002041AF0208CC53090855500020EB
:1010E000BE4F0020C446002058610020F1AA02082B
:1010F000BC4F0020CC460020365009088A650020ED
:101100008C650020826500205E5000203C66002037
:1011100052500020184700202DE9F84390F8E8616C
:10112000054644683EB902202721414A6FF035FE4A
:101130003046BDE8F88394F90130002B1ADA731EAB
:101140005BB2637000EB431393F825302370A06803
:101150001BF09CF932A3D3E900238046894694F919
:1011600001701BF07BFCF8B1002F1DDD013F002357
:10117000677024E09E42227805DD00EB431393F86C
:1011800025309342E3D0002305F125016370580117
:10119000085C904208BF637001339E42F7D8731E0B
:1011A000637000232371D2E740461FA3D3E90023D5
:1011B00049461BF053FCF0B12379E3B1013B2371A5
:1011C00094F9013005F5F57005EB431393F82530DC
:1011D000237085F8EA31052395F8022285F8EC3171
:1011E00085F8F0210023022285F8EB3185F8F22101
:1011F00085F8F1319DE740460BA3D3E9002349462A
:101200001BF00EFC0028DBD023790133DBB2092B65
:101210002371D5D9013EBE42D2DD0137A7E700BF19
:10122000666666666666E63F9A9999999999B93FA6
:10123000C00A0A08000000002DE9F8432DED028BDA
:1012400087680546384616460C461BF01FF928A34A
:10125000D3E90023804689461BF000FC88BB26A307
:10126000D3E90023404649461BF0DAFB60BBF7EEAA
:10127000007A07EE107A87EE878A6B7F607F012203
:10128000834224D0002149F027FD01220446314643
:10129000687F49F021FD044404F2D5702860D8B17C
:1012A00007EE900AF8EE677A9FED0D7A67EE887A7E
:1012B00087EE270ABDEC028B10EE103AEB60BDE81A
:1012C000F8839FED088AD8E79FED078AD5E7314676
:1012D000184649F001FDE1E79FED040AEAE700BF87
:1012E00000007A44E4388E3F00401C4600000000B5
:1012F000CDCCCCCCCCCCEC3F9A9999999999B93F6B
:101300002DE9F74F064690F8E8010D469146A0B347
:101310007468A3690133A361A37D06EB43131A7FAD
:1013200002441A77D4E90732C3EB520207EE902A3F
:101330004000B8EE677A07EE900AF8EEE76AF4EE3E
:10134000C76AF1EE10FA0BD507EE903A37EE667ADF
:10135000F8EE677A77EE877AFCEEE77AC4ED077AE3
:101360004FF0000BD9450BD842F21073A2699A4294
:1013700082BF0023C4E90633236203B0BDE8F08FC7
:10138000B5F802A02F79BAF1000F2ED038461BF025
:101390006BF8CDE9000150461BF066F802460B469B
:1013A000DDE900011BF0F4F902460B4600204C4930
:1013B0001AF00CFF55F026F907EE100A96F80332E2
:1013C000AAEB0700034486F8033294F8243033B3C1
:1013D00094F825305B4522D1BAF1000F08D1C4F84A
:1013E00020A00BF1010B0635BCE7B7EE007AE5E76C
:1013F000E3690133E3612A78002AF2D0002398469A
:1014000096F8E8C106F108019C450FD8B8F1000F25
:1014100014D127210220334A6FF0BFFCE1E72A787C
:10142000002ADED0BAF1000FDBD0E7E791F81DE02B
:101430000133964508BF88462031E5E7002288F849
:101440001420B8F81020D8F8043017440133BAB289
:10145000C8F80430A8F810701AB198F81D2086F862
:101460001422F7EE007A012B77EEC77A8CBFB3EE29
:10147000097A9FED1D7AB8F8122088BF67EE877A47
:101480000244A8F81220D8F808208CBF9FED177AE4
:1014900067EE877A06EE102ADFED156AE6EE077A28
:1014A00087EEA67A17EE103A17EE100AC8F8083041
:1014B0001AF0ECFF08A3D3E900231BF0B1FA18B12E
:1014C000FF2388F815308CE798F91530013388D15F
:1014D0000423F6E7AFF30080666666666666EE3F55
:1014E0000000F03F5A0B0A080000484200009642F4
:1014F0000000C842000000002DE9F04F2DED028BE6
:10150000054600274FF0200A4FF0080B0B46082035
:101510004D4A87B0884627216FF03FFC95F8E831A7
:1015200027210820494A6FF038FC6C6805F108064D
:10153000E37D23716371637595F8E891B9450DDC1E
:101540003FA7D7E900674FF00008AA46C346C14548
:1015500046D807B0BDEC028BBDE8F08FE17D424676
:101560001AFB01B130462944FFF766FE96F81D903C
:101570000495F0681AF08AFFCDE90201B0681AF00C
:1015800085FF4B46CDE90001314A272108206FF045
:1015900004FC2379D6ED037A05EB431292ED057A2C
:1015A000F4EEC77AF1EE10FA02DB327F22710EE020
:1015B00017B995F82420F9E7637905EB431393ED08
:1015C000057AF4EEC77AF1EE10FA04DB337F63712B
:1015D00001372036B0E7012FFAD195F84430F6E70D
:1015E000E37D434515D09AED048A18EE100A1AF0EF
:1015F0004DFF32463B461BF027FA10B9BBF1000FF6
:101600000CD19AF8243022799A4202D062799A4217
:1016100011D108F101080AF1200A98E7637D05EB72
:101620004313D3ED047AB4EEE78AF1EE10FAE8DA68
:101630004FF0010BEDE76375FAE700BFAFF30080F1
:10164000666666666666EE3F720B0A08940B0A08C9
:10165000A30B0A08000000002DE9F047D0F8048031
:1016600000EB411393F8245098F817300446AB422E
:101670002DD098F81530AB4229D000EB411ADAF89A
:1016800010004FEA41191AF001FF13A3D3E9002318
:1016900006460F461BF0CEF910B99AF91D00A0B10D
:1016A00098F80430AB4212D098F80530AB420ED017
:1016B00009A3D3E90023304639461BF0CFF918B10E
:1016C0004C44637F013B63770120BDE8F087002035
:1016D000FBE700BFAFF30080666666666666EE3FB6
:1016E0002DE9F34704460E46456827210820804A25
:1016F0006FF053FB20463146FFF7FEFE28466FF0A1
:1017000017FF002800F0BA8020466FF024FF061E65
:10171000C0F2B48094F8E8319E4280F2AF8004EBCE
:101720004617334627210820724A6FF036FB2721DF
:10173000082097F82530704A6FF02FFB012295F8AA
:1017400004C085F8242004EB4C13386A196A8842D7
:1017500097F8250002D8397F322977D9012284F8F9
:10176000EC21002284F8EA0184F8EB21A97D29709C
:1017700093F8251084F8F01193F8263084F8F121BD
:1017800084F8F231697D85F801C004EB411393F8C8
:101790002500012684F8F60193F8263084F8F83104
:1017A000002384F8F731A97085F82520A04605F1BB
:1017B000FF3904F1120A19F8013F5F1C002E00F0F6
:1017C000898004EB431318691AF060FE02460B4649
:1017D000CDE9002342A3D3E900231BF03FF940B930
:1017E00041A3D3E90023DDE900011BF019F900282A
:1017F00070D004EB4717BB79042B8EBF0223013353
:10180000C3F3460388F8EC3108F10608C245D2D18B
:10181000EA7D04F5F57004EB421393F8253084F863
:10182000FC31002384F8FD31EA7085F8243094F807
:10183000F22194F8EC31134494F8F821C3F1070332
:101840009B1A84F8FE3102B0BDE8F08793F825704A
:10185000697D84F8EA7193F8263084F8EC3100232E
:1018600084F8EB3185F800C084F8F13184F8F00198
:1018700084F8F22104EB41136E7088E700262A7980
:1018800004EB421393F8251084F8EA1193F82630FC
:1018900084F8EB6184F8EC312A706A7904EB421326
:1018A00093F8251084F8F01193F8263084F8F1614C
:1018B00084F8F2316A706A7D04EB421393F82510C4
:1018C00084F8F61193F8263084F8F76184F8F8313B
:1018D000AA706BE704EB4717BB7993E7AFF300807F
:1018E000666666666666EE3F9A9999999999B93FD8
:1018F000C70B0A08D50B0A08E50B0A080000000010
:101900002DE9F8432DED028B8768054638461646CB
:101910000C461AF0BBFD2EA3D3E90023804689466E
:101920001BF09CF800283DD12BA3D3E900234046AF
:1019300049461BF075F8C0BBF7EE007A07EE107A47
:10194000AB7F87EE878A07EE903AB8EEE77AB4EE7F
:10195000C87AF1EE10FA01D5B8EE678A6B7F607F26
:101960000122834224D0002149F0B6F90122044625
:101970003146687F49F0B0F9044404F2D57028601C
:10198000D8B107EE900AF8EE677A9FED0D7A67EE10
:10199000887A87EE270ABDEC028B10EE103AEB60D6
:1019A000BDE8F8839FED078AD8E79FED078AD5E762
:1019B0003146184649F090F9E1E79FED040AEAE75D
:1019C00000007A44E4388E3F00401C4600000000CE
:1019D000CDCCCCCCCCCCEC3F9A9999999999B93F84
:1019E0002DE9F04F2DED028B90F8E83105460E46BB
:1019F000934689B0002B00F0238127210820964AC6
:101A00006FF0CBF900226C68A1690131A16195F8F2
:101A1000E80190423DD8D4E907230A277943642797
:101A2000B1FBF7F1C2EB53030B4407EE903A4300CE
:101A300006EE903AF8EE677AF8EEE66AF4EEE76AB8
:101A4000F1EE10FA0BD507EE102A77EEE67AB8EE33
:101A5000477A77EE277AFCEEE77AC4ED077A00271B
:101A6000B846BB451DD8B8F1010F00F0E680B8F1CB
:101A7000130F40F2B9800023A3612721082095F8B5
:101A80000332764A09B0BDEC028BBDE8F04F6FF02F
:101A900084B9A37D013205EB43131F7F01371F7704
:101AA000B7E7B6F8029096F804A0B9F1000F41D05C
:101AB00050461AF0D9FCCDE9060148461AF0D4FC8C
:101AC00002460B46DDE906011AF062FE02460B46AD
:101AD000002063491AF07AFB54F094FD08EE100AD6
:101AE000337818EE100A069304951AF0CFFC069B83
:101AF000CDE902015B4A27210820CDE9009A6FF069
:101B00004CF97288337995F80312D31A0B4485F88F
:101B1000033294F82430C3B194F82530BB4214D179
:101B20005AB92262272108204F4A6FF036F901374F
:101B3000063696E7B7EE008AD2E7E369272101333C
:101B400008204A4AE3616FF028F9B6F802A0BAF11A
:101B5000000FECD00023E25D05EB4211C8680B7763
:101B60000130C86096F804C00B8B4FEA42196344F9
:101B70009BB20B831BB191F8253085F81432F7EE38
:101B8000007A05EB0902538B01285344A3EB0C03A5
:101B900077EEC87A53830DD9B2EE0E7AD2ED046A8D
:101BA00027EE877ADFED327AA6EEA77ADFED316A8B
:101BB000C7EE267AA944C9ED047A17EE900A1AF006
:101BC00065FC23A3D3E900231AF02AFF30B1FF23D9
:101BD00089F81D30C2441FFA8AF8A8E799F91D3028
:101BE0000133F7D10423F3E7B8F1020FD4ED0B7AF8
:101BF000B1EE047A15D977EE877AB3EE047AF4EE73
:101C0000477AF1EE10FA77FE277A42F21073A26952
:101C1000C4ED0B7A9A4282BF0023C4E906332362E3
:101C20002BE7F2EE046A77EEE67AF4EE477AF1EE0D
:101C300010FA48BFF0EE477AE7E7DFED0F7AE4E706
:101C400009B0BDEC028BBDE8F08F00BFAFF30080A0
:101C5000666666666666EE3F2A0C0A08900C0A08FD
:101C60000000F03F400C0A08710C0A08800C0A08BA
:101C70000000AA420000C84200000000000000006E
:101C80002DE9F84F2DED028B0546884600274FF0D1
:101C900020094FF0080B446800F10806E37D23712A
:101CA0006371637595F8E8A1BA450CDC0FF2D009B1
:101CB000D9E9008900262F46B346B24532D8BDEC9B
:101CC000028BBDE8F88FE17D424619FB01B1304639
:101CD0002944FFF715FE2379D6ED037A05EB43126D
:101CE00092ED057AF4EEC77AF1EE10FA02DB327F5C
:101CF00022710EE017B995F82420F9E7637905EB16
:101D0000431393ED057AF4EEC77AF1EE10FA04DB93
:101D1000337F637101372036C4E7012FFAD195F87C
:101D20004430F6E7E37DB34215D097ED048A18EE10
:101D3000100A1AF0ABFB42464B461AF085FE10B96A
:101D4000BBF1000F0AD197F8243022799A4202D0D1
:101D500062799A420FD101362037AEE7637D05EBF9
:101D60004313D3ED047AB4EEE78AF1EE10FAEADA1F
:101D70004FF0010BEFE76375FAE700BFAFF30080A8
:101D8000666666666666EE3F2DE9F047456890F840
:101D9000E821AB690446B3EB420F2ED900EB4113A7
:101DA00093F82480EB7D43452AD06B7D434527D0B3
:101DB00000EB411ADAF810004FEA41191AF066FBFD
:101DC00011A3D3E9002306460F461AF033FE10B9DB
:101DD0009AF91D0090B12B79434511D06B79434599
:101DE0000ED009A3D3E90023304639461AF036FE57
:101DF00018B14C44637F013B63770120BDE8F08755
:101E00000020FBE7AFF30080666666666666EE3F1D
:101E10000348044B834202D0034B03B11847704779
:101E2000D8710020D871002000000000064B07493F
:101E3000C91A891048BF0131491003D0044B0BB1B6
:101E400001481847704700BFD8710020D8710020A2
:101E50000000000010B5064C237843B9FFF7D8FF07
:101E6000044B13B10448AFF300800123237010BD6D
:101E7000D04F00200000000054260A0808B5054B8A
:101E80001BB105490548AFF30080BDE80840FFF7E6
:101E9000CDBF00BF00000000A819002054260A088A
:101EA000A3F5803A704700BF174B002B08BF134BB8
:101EB0009D46FFF7F5FF00218B460F461348144A55
:101EC000121A61F0BFFA0E4B002B00D098470D4B51
:101ED000002B00D098470020002104000D000D4881
:101EE000002802D00C48AFF300801BF01FFB20003D
:101EF000290057F049FC1AF093FF00BF00000800CA
:101F00000000000000000000000400200004002089
:101F1000D0590020000000000000000000B583B090
:101F2000044B1B88ADF8043001A800F065FC03B039
:101F30005DF804FB8868070800B583B0044B1B8874
:101F4000ADF8043001A800F029FC03B05DF804FBF3
:101F5000886807082DE9F04F93B0604C06AD231D4B
:101F60000FCB85E80F0001AD14340FCC0FC52368EB
:101F70002B6069465A4B187974F0D9FA594874F0B5
:101F8000DDFA594874F0DAFA01238DF805300023A0
:101F90008DF8043001AB09930098544B984240F2FD
:101FA0009B80534904F09EFE0790524F06A9384685
:101FB00004F040FE40F6FF71384604F0BBFB07F525
:101FC00080540126666040F6FF71384604F0B2FB8B
:101FD0000425A56340F6FF71384604F0ABFBA66309
:101FE0004FF002088DF8288000248DF829403246F1
:101FF00029460AA800F094FBDFF8E090B9F828B071
:10200000ADF82CB0224631460BA800F089FBB9F898
:102010002CA0ADF830A0324629460CA800F080FB79
:10202000B9F80090ADF83490324629460DA800F07A
:1020300077FB314D4FF00213C5F8C833A3F5803359
:10204000C5F8C433C5F8CC831C23C5F8B4334FF4AA
:10205000487007F09FFDFFF761FF142007F09AFD1D
:10206000FFF76AFF232007F095FDFFF757FFB9211F
:10207000384604F00BFEFFF75FFF8DF838808DF8CF
:102080003940224621460EA800F04AFBADF83CB08C
:10209000224621460FA800F043FBADF840A032468F
:1020A000214610A800F03CFBADF844903246214692
:1020B00011A800F035FB384604F066FCC5F8B443BF
:1020C000C5F8C843C5F8C443C5F8CC43064874F006
:1020D0003AFA13B0BDE8F08F014663E78868070855
:1020E000347607081C76070820760708DF70720030
:1020F000E070720000000A5000C0035008B50448A8
:1021000074F01CFA61F0A5F8FFF724FF08BD00BFCA
:102110001C76070808B5024874F010FA08BD00BF25
:102120001C76070848B1074B1B78012B07D80370B2
:102130000133044A137000207047012070470120CA
:10214000704700BFD14F002008B50448044A121A56
:102150009210044954F027FE08BD00BFA8010008F2
:10216000E0030008D059002008B5154B83F30A8816
:1021700000F030F8FFF7E8FF124A0AE010685168F3
:1021800050F8230041F82300013391688B42F5D3C6
:102190000C320D4B9A4201D20023F6E70B4A08E0BD
:1021A0001168002041F82300013351688B42F7D3B6
:1021B0000832074B9A4201D20023F6E7FFF774FE7C
:1021C000000000205C260A0868260A0868260A081B
:1021D00068260A0870B5134B134A9A60D3F8882012
:1021E00042F47002C3F88820104A4FF4804191668F
:1021F0000F4D05F500544FF0FF3222660D4A62661E
:102200000222C3F8D020BFF34F8FBFF36F8F00209F
:1022100005F092FF4FF44036E660002005F062FFC3
:102220002E6170BD00ED00E000000008009000503D
:1022300000800044FFF7FF2F014B1860704700BF7C
:10224000105C002008B5064B1860064B1B6F03F0AE
:102250000703032B00D008BD70F0ECFBFBE700BFC9
:10226000185C00200080005008B5064B1860064B33
:102270001B6F03F00703052B00D008BD70F0DAFBDD
:10228000FBE700BF0C5C00200080005008B540F662
:10229000B131024854F091FD08BD00BFB86807088D
:1022A00000B583B000230193094B1B68B3F1FF3FD6
:1022B00007D173F075FF019B002BFCD003B05DF8D4
:1022C00004FB40F22131034854F077FDF1E700BFF1
:1022D0001C5C00207C69070808B5EFF305830F2B11
:1022E00006D90F4A9B5CDBB20E4A12789A420AD892
:1022F0004FF0E023D3F80C3D03F4E0630A4A126880
:10230000934206D808BD40F2A171084854F055FD2B
:10231000EEE740F2B171054854F04FFDF2E700BF1F
:10232000F0E300E0D24F00208C1F00207C690708FA
:1023300030B58BB00023092B09DC154AD25C03F1C0
:102340002801694401F80C2C0AB10133F3E7002499
:10235000002C02DD01200BB030BD00250495059551
:1023600006AA05A904A870F0C1FB049B0293059B73
:10237000019300952B46069A07A9064874F081F848
:10238000054B43F8240008B10134E1E70020E2E7FF
:10239000B46A0708093E0708E41F002038B5044660
:1023A0000D4621B118B123682B60256038BD372157
:1023B000014854F002FDF6E7286B070838B50446DB
:1023C0000D4601B128B94521054854F0F6FC00E05E
:1023D0001C462368002BFBD12B60256038BD00BF55
:1023E000286B070810B5044630B1206818B103689F
:1023F00023600023036010BD5621024854F0DDFC29
:10240000F3E700BF286B0708F0B18446F1B110B4C0
:1024100009E004F120000FE02033C01A18D1BCB14C
:102420000CF1010C01319CF800400B4B1B5D03F0DB
:102430000303012BEDD020460B78074AD25C02F053
:102440000302012AE9D1E7E7012070470120704724
:102450005DF8044B704700BF45E807082DE9F041DF
:1024600080460E46082904D106F1090500273C469E
:102470000AE040F26311214854F09FFCF4E75B212D
:10248000082000F0E1F80134AC4233D2052C1BD80F
:1024900001A353F824F000BF7F240008B1240008F2
:1024A000E5240008B9240008BD240008C124000860
:1024B000F3B20433D9B2E3E78021E1E70021DFE79B
:1024C0007B1C3946DFB2DBE7B31DA3420CD0F31D02
:1024D000A3420BD006F10803A34209D0A31F18F8AA
:1024E0000310CDE7D121CBE75A21C9E75A21C7E72D
:1024F0005D21C5E70020BDE8F08100BF986B0708AB
:1025000000B583B000220092019202218DF80010E4
:10251000054854F09FFC019008216846FFF79EFF94
:1025200003B05DF804FB00BF00D4300008B572F0C2
:1025300051FC08B9014808BD0148FCE70C20002007
:102540001026002008B572F045FC08B9014808BD06
:102550000148FCE70C2000201026002008B50348A5
:1025600054F02CFC024B01221A7008BD14260020E6
:10257000D34F002010B582B0002401942A4873F094
:10258000DDFF8DF8004003238DF801300122042186
:10259000684600F0C5F8254B0122C3F8442301A981
:1025A000052073F0C4FF00283BD1214BD3F8F02065
:1025B00042F00102C3F8F020D3F8FC2042F0807210
:1025C000C3F8FC20A3F55D431A4A1A60019B03F58A
:1025D000D52303F2FC43DB08174AA2FB03239B0A23
:1025E000013B164A13610223C2F8F0304FF48073A6
:1025F000C2F804334FF06043114AC3F8B02F114AB8
:10260000C3F8802ED3F8002E42F48072C3F8002E57
:10261000FF2283F82020D3F8002E22F48072C3F822
:10262000002E02B010BD00BF1C76070800D003507A
:1026300000ED00E0FF03004017916502000004E098
:1026400055CEACC5090001004FF06043D3F8803E81
:1026500013F0010F01D1112070470E4AD2F8FC305F
:1026600043F08073C2F8FC304FF06043D3F8002E83
:102670004FF0010C0CFA00FC42EA0C02C3F8002EE9
:1026800053F82030002BE8D04FF0604303F82010BF
:102690000020704700ED00E010B504460DE0012376
:1026A000834024EA03040F2812D80D4B03EBC00328
:1026B0001A6812B15968C0B290477CB12346002015
:1026C0001F28ECD813F0010FE9D101305B08F7E7C0
:1026D000421E1038024B03EBC203E9E710BD00BFF6
:1026E0001826002008B50D4873F028FF202005F0BB
:1026F00009FD28B9212005F005FD40B9002008BDDD
:10270000202005F019FD202005F0ECFCF2E7212047
:1027100005F012FD212005F0E5FCEFE71C76070827
:10272000F8B570B10C46154606460F290FD8337818
:10273000A3B1022B26D0032B27D0012B0CD00023D2
:102740000EE08921144854F038FB222019E08C2136
:10275000114854F032FBEAE73F2301E040F6FF73F3
:102760007278D34013F0010F11D073F0CBFE0746FF
:102770002A462146304604F00DFB384673F0BDFE74
:102780000020F8BD40F2FF33EAE7FF23E8E78D21A0
:10279000014854F012FBE8E71C6C070810B550B173
:1027A000044603787BB1022B19D0032B1AD0012BDE
:1027B00007D0002309E0CF210E4854F0FEFA222072
:1027C0000CE03F2301E040F6FF736278D34013F042
:1027D000010F09D0204672F06FFB002010BD40F2BF
:1027E000FF33F2E7FF23F0E7D221024854F0E5FA85
:1027F000F0E700BF1C6C070810B550B10446037821
:102800007BB1022B19D0032B1AD0012B07D0002348
:1028100009E0DF210E4854F0D0FA22200CE03F23DB
:1028200001E040F6FF736278D34013F0010F09D046
:10283000204604F079FA002010BD40F2FF33F2E7A1
:10284000FF23F0E7E221024854F0B7FAF0E700BFB7
:102850001C6C070808B5084BD3F82403D3F82023D1
:10286000104000F0553020F0502003F50053C3F81D
:102870002003FFF711FF08BD00C0035008B5084B47
:10288000D3F82403D3F82023104000F0AA3020F01E
:10289000A02003F50053C3F82003FFF7FDFE08BD99
:1028A00000C00350F0B587B00C4694469DF83C102C
:1028B000674A1278002A00F0BE800546BCF10F0F6F
:1028C00000F2BB800C9A002A00F0B9800D9A002A11
:1028D00000F0B780109AB2F5006F00F3B4800128C1
:1028E0005CD05C4A02EB0C12127B002A00F0AD8037
:1028F000002201920292039204920592564A02EB40
:102900004C1E002C4FD14FEA4C1600209051CEF8AF
:102910000400CEF80800CEF80C009EF8020040F04B
:1029200010008EF802009EF8030040F030008EF890
:10293000030021B9C1B241F003018EF803100193E5
:10294000109B013B444A4FEA4C1002EB4C11165AC3
:1029500063F30E1616520C9B8B600D9B4B60CB786D
:102960009DF8442062F38303CB70012D36D0129B77
:10297000002B56D0374A4FEA0C1102EB0C13129879
:102980005050139A5A6000249C605D73724601A9EE
:10299000604603F069FD204607B0F0BD0E9A002A9C
:1029A0009FD12E48F8E72C4F4FEA4C1607EB4C12FC
:1029B0000020B85150609060D060907840F01000D6
:1029C0009070D07840F00300D0700029B7D107EBA9
:1029D0004C12C1B241F03001D170B0E70E460A7B13
:1029E00042F001020A73D2B242F002020A73CA68CC
:1029F000042161F39F02F26006F1100796E80F00D0
:102A000087E80F00F2696FF0030161F39F02F26142
:102A10000E9B7361012CAAD10D9AB2610E9A72605D
:102A2000A5E7002DA6D10C4B03EB4C139A786FF35E
:102A300004129A709EE70A48AEE70848ACE70748D8
:102A4000AAE70648A8E70548A6E70648A4E700BFA6
:102A5000D44F00200829002008270020018000F022
:102A6000028000F0078000F0134B1B78FBB110B51B
:102A70000446F0B173F046FD00230F2B13D80F4A24
:102A800002EB0312127B0AB10133F6E723600B4A13
:102A9000190102EB031301241C730024545073F03A
:102AA0002CFD204602E073F028FD054810BD0548C6
:102AB00070470548FAE700BFD44F002008290020DE
:102AC000048000F0028000F0018000F038B573F05F
:102AD00019FD044600230F2B06DC0C4A02EB0312FF
:102AE000127B12B90133F6E7002222B1204673F0BF
:102AF00004FD074838BD03F039FC0025054B1D7067
:102B0000204673F0FAFC2846F4E700BF08290020AD
:102B1000058000F0D44F00200F4B1B78BBB110B5DF
:102B200004460F2815D873F0EDFC0C4B03EB04138F
:102B30001B7B1BB973F0E1FC09480BE0074B03EB6F
:102B4000041300241C7373F0D8FC204602E00548EF
:102B50007047054810BD00BFD44F00200829002051
:102B6000068000F0028000F0018000F000B583B024
:102B7000134B1B68019300238DF8043073F0C2FCE3
:102B8000104B1B7833B90F4B01221A7073F0B5FC50
:102B9000002309E073F0B1FC0B480EE00B4A02EB96
:102BA00003120021117301330F2BF7DD08238DF879
:102BB000073001A803F00CFC002003B05DF804FB13
:102BC000906C0708D44F0020038000F008290020F3
:102BD00010B5104C2478BCB10F2817DC0E4C04EB58
:102BE0000014247BA4B10C4C4FEA001E04EB001C23
:102BF00044F80E30029BCCF804300024CCF8084096
:102C000003F032FC204610BD0448FCE70448FAE714
:102C10000448F8E7D44F002008290020028000F083
:102C2000018000F0078000F008B50A4B1B785BB10B
:102C30000F280BD8084B03EB00131B7B43B100217B
:102C400003F0B0FB002008BD0448FCE70448FAE7A5
:102C50000448F8E7D44F002008290020028000F043
:102C6000018000F0078000F008B50A4B1B785BB1CB
:102C70000F280BD8084B03EB00131B7B43B101213A
:102C800003F090FB002008BD0448FCE70448FAE785
:102C90000448F8E7D44F002008290020028000F003
:102CA000018000F0078000F0F8B5194B5F6D9B6D57
:102CB0001F4002D40125002402E0FEE701346D002C
:102CC0000F2C24D83D42F9D0124B5D652301124AE6
:102CD000D358002BF2D002EB0416B1680131B16079
:102CE00072682046984780F00100C0B2737B012BC8
:102CF000E4D10028E2D0094B03EB44131A7B6FF3B5
:102D000041021A731A7F6FF341021A77D6E7F8BDB2
:102D1000000004500020045008290020082700204B
:102D200010B5044654F0F0F8636CA3F1140202FBF2
:102D300000F0B3F5805F00D010BD183B6169994287
:102D4000FAD9044BA3FB02231B09033323F003032B
:102D50001844F1E7CDCCCCCC2DE9F04F89B0054635
:102D60000E4614469846C36B5B69012207A960684A
:102D70009847EB6B5B69012206A93046984707A884
:102D800055F09DFA48B10027A77567754FF0FF33DE
:102D9000A360384609B0BDE8F08F074606A855F095
:102DA0009EFA0123A375237E033304EBC3035E6005
:102DB00000221A816368B3422AD02368834201D07B
:102DC0000023A37506A855F0AFFA237D984201D0E1
:102DD0000023A37506A855F086FA814607A855F08A
:102DE00082FA814501D00023A37506A855F083FA25
:102DF000814607A855F07FFA814501D00023A375CD
:102E0000237D043BDBB2022B0BD80023A375C0E764
:102E1000206006A855F088FA20754FF0FF33A360B4
:102E2000EEE706A855F05FFA80B1EB6B5B69022212
:102E300004A93046984704A855F068FA0346207D57
:102E4000032868D8DFE800F0615B070D06A855F09D
:102E50005DFA0346F3E7237E033304EBC303CC227E
:102E60001A8155F071FA129B187094F8189006A800
:102E700055F02CFA09F1030904EBC90989F80A0095
:102E8000237E033304EBC303B3F808A093F80AB01E
:102E900006A855F028FA814606A855F02CFA0390AA
:102EA000B9F1000F3DD0EB6B5B69022204A93046FB
:102EB000984704A855F0E6F96075637D03B9A375DA
:102EC000A37DA3B1BAF1000F11D0039BF1186B6C75
:102ED0005B4286EA01021A4201D00023A3756B6CA3
:102EE0005A1E0A409B1A9A4501D90023A375A37D57
:102EF000002B40D0BBF1000F18D1E77D3CE0227ED3
:102F0000033204EBC2021381ABE7227E033204EBEF
:102F1000C2021381A5E7227E033204EBC2021381B1
:102F20009FE706A855F097F96075C6E70122E2759C
:102F3000627EBAB9BBF1010F08D095F83470DFB9E1
:102F4000EA6AB2F1FF3F05D01F4615E00121617624
:102F5000174611E0BBF1030F01D01F460CE0012220
:102F6000A27609E0BBF1010F37D0BBF1030F03D10B
:102F70000122A27600E01F4653B117B1BBF1010F49
:102F800006D95346039A3146284654F0E2FAA06027
:102F9000A37D13B1236953442361237E114A127820
:102FA00093421CD201332376B8F1000F13D0A37DD6
:102FB0008BB1E37D7BB177B9BBF1030F0BD0A16877
:102FC000B1F1FF3F07D0129B009301232246284610
:102FD000FFF7C2FEA075A77DDBE61746CCE700230E
:102FE000A375E1E7B46C07082DE9F04F89B00546F9
:102FF0000F4692469B4600238DF80B304FF0FF3171
:10300000104600F0B3FFB7F5801F1DD300230093D7
:1030100017F1020F07D0009B002B40F09E802B7C05
:10302000002B00F08C80EB6AB3F1FF3F2CD02A68B4
:103030009B1A6A6CB3FBF2F917F1020818BF4FF044
:103040000108002301935DE00DF10A02394605F104
:10305000080000F0DBFE0146B0F1FF3F11D0504602
:1030600000F084FF0DF10B0301225146284654F075
:10307000EFFA00900028CBD09DF80B308BF8003091
:10308000C6E700230093C3E7696A284654F082F933
:103090008146D1E70123019337E09DF80B308BF88F
:1030A0000030324B1A683249504660F050FA0094B2
:1030B0002F4B9968B1F1FF3F1BD06B6C5B4281EAEB
:1030C00006021A4215D12A4C204600F04FFF0DF19E
:1030D0000B0342462146284654F0BAFA044600281B
:1030E000E6D017F1020FD8D0214B1B68BB42DFD1CD
:1030F000D3E74946284654F04DF98146019BCBB9A8
:10310000009BBBB96B6A4B45C4D02C686B6C03FB4E
:103110000944EB6B5B69052203A92046984703A885
:1031200055F0A9F955F0CEF9204655F0D7F90646E5
:103130000146BFE7009BA3B1B7F5801F03D3009BF7
:103140008BB100200AE09BF80030DAF80420394601
:1031500005F1080000F078FEF1E7002009B0BDE8B5
:10316000F08F2D20FAE72D20F8E700BFB06C07089C
:103170007C30002070B582B004464FF0FF33C3624C
:103180000DF107031A4A6FF00101FFF72DFF20BB75
:10319000174B9B68E362E56A2946204653F0EBFE35
:1031A0002063E8B12946204654F0C3F90546A36AD6
:1031B000AB421BD02946204653F0DDFE0646236B6A
:1031C000034423632946204654F0B3F90546002EF4
:1031D000EDD100232363E062E9E7A36AE362DAE763
:1031E000E16A204654F0A5F9E062DBE702B070BD69
:1031F000A830002030B583B01C46032A14BF00223B
:1032000001221B7E9A4202D0012003B030BD0D4640
:10321000096823689942F7D363689942F4D80DF19D
:103220000703114AFFF7E0FE0028EDD10E4B5A6864
:103230006B689A42E8D19DF80730032B14BF002336
:103240000123227E9342DFD16369013363612369E5
:10325000E2689342D8D2A268296842F82310236911
:1032600001332361D0E700BFA83000202DE9F041F1
:1032700082B004460E4690461F46816A06E01A4B0D
:103280009968B1F1FF3F1FD0012E23D0E06A884238
:1032900017D0B1F1FF3F14D0134D284600F066FE61
:1032A0000DF1070301222946204654F0D1F90028E8
:1032B000E5D03B469DF8072029462046C047002818
:1032C000DDD102B0BDE8F0815968204654F031F9F3
:1032D0000146D9E7044B5A68636C5B424A401A4284
:1032E000D4D04FF0FF31D1E75030002010B5044664
:1032F000083000F051FD0023024A19462046FFF72E
:10330000B5FF10BD3F76050838B50446037C0BBBFE
:1033100002461349083000F0E1FD616A204654F08E
:103320005BF8421C616A204653F0ACFF054620B9A9
:10333000236B626C1344143B2363A16A204654F050
:10334000F8F8A0622368C01A636CB0FBF3F0606207
:10335000284638BD0023034A0121FFF787FFDCE739
:10336000D9790508A7790508F0B589B080B30F466B
:1033700016461D46044690F834301BB900252846F1
:1033800009B0F0BD012153F052FF01950E9B02934D
:10339000039704960023059306939DF83C308DF81F
:1033A0001C30237C5BB901AA0A4904F1080000F033
:1033B00095FD5EB9069D204654F0DBF9DFE701ABD1
:1033C000054A00212046FFF751FFF2E7059DF2E78D
:1033D0000025D4E7F3710508F5310008F0B58BB08E
:1033E00004460D46406AE36B5B69052205A9266821
:1033F000676C07FB0060984705A855F03CF801286A
:1034000036D00094002301938DF8085003930123D4
:103410008DF81030A16AE36A99420FD0237CBBB9C2
:103420006A46144904F1080000F058FD019B13B9E5
:103430009DF810309BB901980BB0F0BD204654F0B8
:1034400078F8E062236B626C9B1A14332363EDE718
:103450006B46094A01212046FFF708FFE6E7626A4A
:103460002368616C01FB0231E06B54F0B6FFE2E7C8
:103470000020E1E789360008093600082DE9F04F01
:1034800089B004468A4691461D4600230793096980
:10349000026BCB1D406C1438B3FBF0F3013301EB2E
:1034A000C301914200F2AC804E46A9467FE03D2820
:1034B00040F09680BB460490059624E04FF000084B
:1034C0002368616C01FB0531E06B54F072FF20460C
:1034D00053F0B7FE204653F0E6FE204654F01EF8A7
:1034E000204654F04DF82063B8F1000F49D0DAF8C7
:1034F0001020D31D616C1439B3FBF1F3013302EBDF
:10350000C30290423AD32368ABEB0308606CB8FB6C
:10351000F0F808FB003054F0E1FF0646E16A20466F
:1035200054F007F8A36A834231D0E062354B9A68C1
:10353000616C4B1E1340226B5B1A13442363ABEB8D
:1035400006072368079DED1AB5FBF1F5A845B5D12F
:1035500097B1E36B9B69BA08314698478046E36AA6
:103560003B44E362236BA6EB0B061E44266304F187
:10357000080000F011FCA3E7B846A1E7049D059EF2
:1035800007E0049D059E2046FFF7B0FE01E0049D84
:10359000059E2DB3DAF81010226BCB1D606C143829
:1035A000B3FBF0F3013301EBC3018A4218D3E76A9E
:1035B000144D3946284600F0D9FC07AB0293CDF8EC
:1035C000049000963B462A465146204654F0FDFAA8
:1035D000054600287FF46BAF0A4B9B68E362D8E78F
:1035E0002F461FB1384609B0BDE8F08F4B46054A5B
:1035F0005268DAF8001004F1080000F025FCF1E749
:103600001C27EFE77C300020F0B583B01C46032A6E
:1036100005D1237A012B33D0012003B0F0BD06463B
:103620000F4615460DF10703164A0968FFF7DCFC43
:1036300060600028EDD19DF80730032BE9D0114BD5
:103640005A687B689A42E4D1237A012B08D13B69FE
:10365000E26813447269934202D900232374D8E7C5
:10366000E3683A6913440833E3602B460122394684
:103670003046FFF703FF60600028CAD00020CCE787
:10368000207CCAE7A8300020F0B583B0089C2668EB
:10369000032A05D1237A012B4DD0012003B0F0BDC0
:1036A00015460DF10703254A3046FFF79DFC606083
:1036B0000028EFD12168214B5A688B6A486CC0F111
:1036C000000C5A4012EA0C0FE4D1227A012A19D0D8
:1036D0000F68DB1BB3FBF0F3CA6AD21BB2FBF0F23C
:1036E0009A4219D0E36815490A6913440833E36024
:1036F0002B4601222068FFF7C1FE60600028C9D078
:103700000020CBE70D4A1269E7683A447769BA426C
:10371000DED900232374BDE7726CF16A531E0B409F
:10372000316B9B1A0B4433632668B16A304653F001
:1037300000FFF062D6E7207CB0E700BFA830002091
:10374000F8B56E4B1E6800221A60002800F0B680A3
:103750000D46044690F8343013B30A6803689A4261
:1037600040F0AE804A6843689A4240F0AC808A6874
:1037700083689A4240F0A980CA68C3689A4240F0C0
:10378000A6800A6943699A4240F0A3808A69C36BA4
:103790009A4201D05D2594E04B698361002590E059
:1037A000876B682200215FF04DFEA7632B682360C2
:1037B0006B6863602B6963616B69A361EA68A968E0
:1037C00004F1080000F0FAFAAB69E3639B6804F1C6
:1037D0004000984730B9636C23B16268B2FBF3F2E2
:1037E000E26101E00023E36194F84330002B72D0E2
:1037F00000232366656C002D6FD0E369002B6ED02B
:103800002368B3FBF5F205FB1233002B69D167681F
:10381000B7FBF5F305FB1373002B64D1204653F07F
:103820009AFBA369034404339F425ED36369B3F5F3
:10383000805F5CD8CB2B5CD9B5F5805F5BD303216F
:10384000204653F0F4FCE36B1B68616820689847DE
:103850000546E36BDB6802209847EDB1636C143BCF
:103860005DB9266A03FB06F6204653F074FBA36994
:10387000034404339E4200D25A25B5FA85F35B090E
:1038800084F834301BB11E4A13680133136085B1CC
:10389000204653F06EFF14E03146204653F0ECFE14
:1038A00005466428DAD13146204653F0E5FE054648
:1038B000D4E76168206854F077FCE9E7212500E04F
:1038C0005D252846F8BD5D25FBE75D25F9E75D250B
:1038D000F7E75D25F5E72125F3E75B25F1E75B25B4
:1038E000EFE75925EDE75925EBE75A25E9E75F258D
:1038F000E7E75F25E5E75B25E3E700BF0C2A00204B
:10390000082A0020F0B585B0A8B30C4617461E461D
:10391000054690F8343083B3B1F5801F2FD20121D2
:1039200053F085FC0DF10F03164A21462846FFF798
:103930005BFB044630B99DF80F30012B08D0022BF9
:1039400017D02D24284653F014FF204605B0F0BDB3
:103950000C4B1B69B34201D06324F3E700220192B0
:10396000084B009333463946284653F00AFF044675
:10397000E8E76024E6E72124E7E71124E5E72924C6
:10398000E3E700BFD4300020F0B585B0002838D080
:103990000C4617461E46054690F834309BB3B1F5E9
:1039A000801F32D2012153F042FC0DF10F03184A5F
:1039B00021462846FFF718FB044630B99DF80F3022
:1039C000012B08D0022B1AD02D24284653F0D1FE0B
:1039D000204605B0F0BD0E4B1A690A9BF3189A42B7
:1039E00001D26324F1E700230193094B00930A9B62
:1039F00032463946284653F0C4FE0446E5E76024C3
:103A0000E3E72124E4E71124E2E72924E0E700BF0B
:103A1000D430002070B582B058B30C461646054627
:103A200090F834303BB3B1F5801F26D2012153F01A
:103A3000FEFB0DF10703124A21462846FFF7D4FA90
:103A4000044668B99DF80730032B10D0022B01D033
:103A5000612406E00A49284654F07BF8306000E013
:103A60002D24284653F085FE204602B070BD2D243B
:103A7000F7E72124F8E71124F6E72924F4E700BF4B
:103A8000D4300020F0B583B01C460023236070B30F
:103A90000E461746054690F8343053B3B1F5801FF3
:103AA00029D2012153F0C3FB0DF10703134A31461C
:103AB0002846FFF799FA064680B99DF80730032B90
:103AC00013D0022B05D000233B600C4B1B692360F5
:103AD00005E001233B600423236000E02D262846F7
:103AE00053F047FE304603B0F0BD2D26F7E7212600
:103AF000F8E71126F6E72926F4E700BFD4300020C6
:103B000000B583B0044B009300231A46194654F0C5
:103B100051FA03B05DF804FBFFFF0F0000B583B05E
:103B2000044B009300231A46194654F04DFA03B093
:103B30005DF804FBFFFF0F002DE9F8431D469DF8DB
:103B400020704369AB422FD304468846914653F018
:103B5000FEFE032F06D0266B2946204653F0ECF9D3
:103B6000864225D3134E4FF0FF31304600F0FEF968
:103B7000C6F800803561C6F80C903B4600223146FD
:103B80002046FFF77BFC0546236E73B1204654F0B8
:103B900025FA94F8503013B994F858302BB1236EAD
:103BA00004F15000984700E062252846BDE8F883FC
:103BB0001C25FAE7A83000202DE9F04184B0002848
:103BC0003AD00C4690461F46054690F83430ABB3C9
:103BD000B1F5801F34D2022153F029FB0DF10F0300
:103BE000184A21462846FFF7FFF918B99DF80F300B
:103BF000012B0FD0012300933B4642462146284625
:103C0000FFF79AFF0646284653F0B3FD304604B04E
:103C1000BDE8F0810B4B1B69BB42EBD10123019343
:103C2000084B00933B4600224146284653F0A9FD2D
:103C300006460028E7D0DDE72126E7E71126E5E77D
:103C40002926E3E7D430002070B586B00392C0B3D4
:103C50000C46054690F83430ABB3B1F5801F34D232
:103C6000022153F0E4FA0DF11703194A21462846C0
:103C7000FFF7BAF9064638B99DF81730032B03D081
:103C8000022B10D0612608E002230093CC2303AA64
:103C900021462846FFF750FF0646284653F069FDA7
:103CA000304606B070BD0A49284653F052FF039AC9
:103CB0008242F2D003460649284654F0BAF9064635
:103CC000EBE72126ECE71126EAE72926E8E700BF23
:103CD000D430002030B585B048B30C46054690F886
:103CE000343033B3B1F5801F25D2022153F09FFA4F
:103CF0000DF10F03114A21462846FFF775F978B9EF
:103D00009DF80F30032B01D12D240AE003230093EB
:103D100000231A4621462846FFF70EFF044600E01E
:103D20002D24284653F025FD204605B030BD212422
:103D3000FAE71124F8E72924F6E700BFD430002081
:103D4000036853F83100C0F313007047036853F859
:103D50003100C0F307507047036803EBC103586894
:103D6000704700BF006850F831301B0D1B0513432E
:103D700040F83130704700BF006850F83130C3F36D
:103D8000130343EA025340F831307047036803EBF2
:103D9000C1035A60704700BF002309E002684FF07A
:103DA000FF3142F83310026802EBC3025160013365
:103DB00042689A42F2D800230372704708B5016046
:103DC0004260FFF7E9FF08BD002342689A421BD911
:103DD00010B403E0013342689A4212D904684FEAF2
:103DE000C30C54F83320B2F1FF3FF3D0C2F31302F7
:103DF0009142EFD14FF0FF3244F80C200368634446
:103E00005A605DF8044B7047704700BF10B500233F
:103E100000E0013344689C4212D904684FEAC30EA3
:103E200054F83340B4F1FF3FF3D0C4F3130C6145B1
:103E3000EFD1C4F30754147003687344586801E069
:103E40004FF0FF3010BD00BF2DE9F0474568064632
:103E50007DB30F46914698460024D0F800A05AF84A
:103E60003430013305D021463046FFF769FFB842B0
:103E700010D00134A542F2D1002402E00134A54261
:103E800014D05AF834300133F8D13A46214630463E
:103E9000FFF768FF424621463046FFF76DFF4A466E
:103EA00021463046BDE8F047FFF770BFB8F1030F79
:103EB00003D101233372BDE8F087002402E001340E
:103EC000A542F6D021463046FFF740FF0328F6D141
:103ED0003A4621463046FFF745FFDBE72DE9F04340
:103EE0009146426883B00AB30546884600242B6891
:103EF00053F83430013316D021462846FFF720FF0F
:103F0000214607462846FFF721FF21460646284658
:103F1000FFF722FF3946034632462846CDF8009087
:103F2000C04718B16A6801349442E0D303B0BDE8D9
:103F3000F08300BF08B5034B1968034B1868FFF7FF
:103F4000FFFB08BD245C0020445C002008B572F033
:103F5000D0FA014B186008BD0031002008B5024BB3
:103F6000186872F0C1FA08BD0031002038B5044667
:103F70000D46094B1A6800215FF064FA4FF0FF32DA
:103F8000226065600023A3752361A260E3756376F8
:103F9000A376237638BD00BFB06C07082DE9F04149
:103FA00086B006460D4617469846586854F0DAF92A
:103FB0004403A4B298F803301B0303F480531C4459
:103FC00098F80230DB0203F400631C44B8F80030B8
:103FD000C3F30A031C441B4B01930021384654F0E1
:103FE000CBF902900121384654F0C6F903904FF006
:103FF000FF3304936FEA04446FEA14440594B369F1
:10400000012205A905F1100098470446B369012271
:1040100003A905F108009847074600B92746B36988
:10402000012202A9281D9847044600B93C46B369FD
:10403000012201A92846984700B9204606B0BDE8EC
:10404000F08100BF01009AB270B504460D461646D5
:104050001F2906D856B104F580540123AB402360D4
:1040600070BD9121034852F0A8FEF3E704F5005417
:10407000F3E700BFB86C070838B505460C46114B8E
:10408000D3F8803003F00303022B13D0032B15D099
:10409000012B07D041F22E210B4852F08EFE002357
:1040A000184602E06EF0A2FC0D2305B1286004B1B1
:1040B000236038BD6EF038FC0723F6E76EF01CFC79
:1040C0000623F2E700800050246D070838B5054646
:1040D0000C46194BD3F8200100F0070006281DD824
:1040E000DFE800F0240408100C1418006EF004FC43
:1040F00005231CE06EF00EFC032318E06EF014FCA8
:10410000072314E06EF002FC022310E06EF0F4FBD3
:1041100006230CE06EF0FEFB042308E041F2AB2125
:10412000064852F04AFE0023184600E0012305B17C
:10413000286004B1236038BD00800050246D07085A
:1041400038B505460C46184BD3F8283103F0070361
:10415000013B052B20D8DFE803F003131B0F0B17DF
:104160006EF0CAFB052305B1286004B1236038BD99
:104170006EF0C2FB0623F6E76EF0D6FB0723F2E7EC
:104180006EF0C8FB0323EEE76EF0C4FB0423EAE7FE
:104190006EF0BCFB0223E6E741F2A501034852F0B2
:1041A0000CFE00231846DEE700800050246D07084F
:1041B00030B583B005460C4600230193174BD3F866
:1041C000203203F00703042B19D8DFE803F01F03A4
:1041D000090E1300002101A8FFF7B2FF112316E01A
:1041E0006EF0A2FB0190072311E071F0C1FA01907B
:1041F0000A230CE06EF0EEFB0190092307E041F288
:104200006201074852F0D9FD002300E001230DB1FF
:10421000019A2A6004B1236003B030BD00800050D1
:10422000246D070870B582B006460D460023019341
:10423000134BD3F8804104F00304022C1BD0032C51
:1042400014D0012C06D041F20E410E4852F0B5FDBB
:10425000002404E0002101A8FFF738FF0F240EB16D
:10426000019B336005B12C6002B070BD6EF05CFB49
:1042700001900724F3E76EF049FB0190EFE700BFE0
:1042800000800050246D070838B505460C46124BD7
:10429000D3F8400100F0030003280FD8DFE800F056
:1042A0001602060A71F064FA0A2310E06EF092FB1F
:1042B00009230CE071F05FFA0B2308E041F2DD21E5
:1042C000064852F07AFD0023184600E0012305B1AC
:1042D000286004B1236038BD00800050246D0708B9
:1042E00038B505460C46154BD3F8000200F0070020
:1042F000042815D8DFE800F01C03070B0F0071F04D
:1043000037FA0A2315E06EF065FB092311E071F01E
:1043100032FA0B230DE06EF08DFB800A0E2308E0CD
:1043200041F2CC41064852F048FD0023184600E017
:10433000012305B1286004B1236038BD008000501E
:10434000246D070838B505460C46154BD3F808020E
:1043500000F00700042815D8DFE800F01C03070B65
:104360000F0071F005FA0A2315E06EF033FB092304
:1043700011E071F000FA0B230DE06EF05BFB800A98
:104380000E2308E041F20451064852F016FD0023C6
:10439000184600E0012305B1286004B1236038BD50
:1043A00000800050246D070838B505460C46124BB6
:1043B000D3F8400200F0030003280FD8DFE800F034
:1043C0001602060A71F0D4F90A2310E06EF002FB1F
:1043D00009230CE071F0CFF90B2308E041F28B4187
:1043E000064852F0EAFC0023184600E0012305B11C
:1043F000286004B1236038BD00800050246D070898
:1044000030B583B005460C4600230193174BD3F813
:10441000603203F00703013B032B1FD8DFE803F0F2
:10442000020E1914002101A8FFF750FE0F230DB151
:10443000019A2A6004B1236003B030BD002101A8B5
:10444000FFF722FF1023F2E76EF06EFA01900723C8
:10445000EDE76EF05BFA01900223E8E741F2091103
:10446000034852F0AAFC0023E1E700BF008000509F
:10447000246D070830B583B005460C460023019330
:104480000E4BD3F8703203F00303012B08D0022B3C
:104490000CD041F267110A4852F08FFC002306E06D
:1044A000002101A8FFF7F0FE102300E014230DB156
:1044B000019A2A6004B1236003B030BD008000502F
:1044C000246D070838B505460C460E4BD3F89032DC
:1044D00003F00303012B09D0022B0BD16EF024FA59
:1044E000072305B1286004B1236038BD6EF00EFAD1
:1044F0000223F6E741F29111034852F05EFC0023DB
:104500001846EEE700800050246D070838B50546D0
:104510000C46124BD3F8600100F0030003280FD8BB
:10452000DFE800F01602060A71F022F90A2310E013
:104530006EF050FA09230CE071F01DF90B2308E02E
:1045400041F20F31064852F038FC0023184600E0D3
:10455000012305B1286004B1236038BD00800050FC
:10456000246D070838B505460C46114BD3F8A03228
:1045700003F00303022B0BD0032B0DD0012B0FD024
:1045800041F252510B4852F018FC0023184609E042
:104590006EF020FA092305E071F0EAF80A2301E041
:1045A0001823054805B1286004B1236038BD00BF59
:1045B00000800050246D0708006CDC0238B5054609
:1045C0000C46124BD3F8000100F0030003280FD86B
:1045D000DFE800F01602060A6EF09CF9032310E0F3
:1045E0006EF0F8F909230CE06EF09AF9082308E060
:1045F00041F26421064852F0E0FB0023184600E037
:10460000012305B1286004B1236038BD008000504B
:10461000246D070808B5344B98424ED028D8334B48
:10462000984244D009D9324B984243D0314B9842FA
:1046300018D1314BD3F880000DE0304B98420ED0AA
:1046400008D92F4B98420AD02E4B984245D12A4B7D
:10465000586E00E000B908BD2B4B98423DD1264B67
:10466000986DF8E7294B984237D1234B586FF2E702
:10467000274B984229D009D9264B984229D0264B5E
:1046800098422AD11C4BD3F89C00E4E7234B984274
:1046900017D0234B984203D1174BD3F89000DAE799
:1046A000204B984219D1144BD3F88800D3E7124B12
:1046B000186FD0E7104B986FCDE70F4BD3F88400FD
:1046C000C9E70D4BD3F88C00C5E70B4BD3F894002A
:1046D000C1E7094BD3F89800BDE741F2E331124836
:1046E00052F06BFB0020B6E70048E801405DC600D1
:1046F000C0EA210180BA8C010080E00F80841E0096
:1047000000093D00C0CF6A0040420F000024F400C1
:104710000090D00300B4C40400E1F505006CDC0295
:10472000007E560380D54302246D070808B52E4B42
:10473000984241D00DD92D4B984245D02FD92C4BC2
:10474000984245D02B4B984222D12B4BD3F8D00026
:104750001AE02A4B98423FD00CD9294B98423FD0BF
:1047600003F5371303F5D863984211D1224BD3F8E0
:10477000B80009E040B1234B984202D0224B984246
:1047800003D11D4BD3F8A00008BD204B9842F8D0B0
:1047900041F2F8111E4852F010FB0020F4E71D4BC7
:1047A00098420DD003F5742303F510739842EFD1AE
:1047B000114BD3F8C400E7E70F4BD3F8BC00E3E795
:1047C0000D4BD3F8C000DFE70B4BD3F8C800DBE795
:1047D000094BD3F8CC00D7E7074BD3F8A400D3E7B5
:1047E000054BD3F8B000CFE70024F40080BA8C0169
:1047F0000048E801005A62020080E00F404B4C0084
:104800008096980080841E0000093D0040420F0001
:10481000246D0708C0EA210110B5B0F5207F2FD024
:104820001DD8B0F5007F25D02FD810B1B0F5C07FCE
:1048300013D1174B1C6F230BC4F3033413F00E0F6B
:1048400024D048F28803E34013F0010F1ED140F258
:104850008B21104852F0B1FA18E0002416E0B0F5B0
:10486000607F05D10A4BD3F88040C4F301140DE0FA
:1048700000240BE0064BD3F89040C4F3046405E039
:10488000034B1C6FC4F3802400E00024601C10BDA7
:1048900000800050246D070838B505460C461A4BB9
:1048A0004FF480329A660020FFF7B6FF05FB00F058
:1048B000164BDA6902F4803241F67131D9635B68D4
:1048C00023F440136CB91249884217D81149884221
:1048D00017D81149884201D8002105E04FF4801112
:1048E00002E0002C07DD00210B4308494B600AB1B0
:1048F0000022CA6338BD4FF44011F5E74FF4401170
:10490000F2E74FF40011EFE7009000500000035071
:10491000C068780480F0FA0240787D0138B504461A
:104920000D46430905D0012B16D0022B0DD10B48A3
:1049300005E040F23B310A4852F03FFA00202A4697
:1049400004F01F01FFF780FB38BD40F249310448F5
:1049500052F033FA0020F2E70248F0E76880005096
:10496000246D07086480005010B582B000230193C5
:104970000093B0F5807F00F20781B0F5807F00F2F0
:10498000CF81DFE810F05801CD01CD01CD01CD017F
:10499000CD01CD01CD01CD01CD01CD01CD01CD01A7
:1049A000CD01CD01CD01CD01CD01CD01CD01CD0197
:1049B000CD01CD01CD01CD01CD01CD01CD01CD0187
:1049C000CD01CD01CD0158018D0158018D01A50109
:1049D000A501A501A501A501A501AA014901B401EF
:1049E0002E0149018D018D018D01CD01CD01CD013A
:1049F000CD01CD01CD01CD01B4018D018D018D0120
:104A00007A01B9018D01CD01CD01CD01CD01CD01DD
:104A1000CD01CD01CD01CD01CD01CD01CD011801DB
:104A20001801580158015801720149014901BE019C
:104A30008201620118011801CD01CD01CD017A0179
:104A4000A501A501C801CD01CD01CD01CD01CD014B
:104A5000CD01CD01CD01CD01CD01CD01CD01CD01E6
:104A6000CD01CD01CD01CD01CD01CD01CD01CD01D6
:104A7000CD01CD01CD01CD01CD01CD01CD01CD01C6
:104A8000CD01CD01CD018701CD01CD01CD01CD01FC
:104A9000CD01CD01CD01CD01CD01CD01CD01CD01A6
:104AA000CD01CD01CD01CD01CD01CD01CD01CD0196
:104AB000CD01CD01CD01CD01CD01CD01CD01CD0186
:104AC000CD01CD01CD01CD01CD01CD01CD01CD0176
:104AD000CD01CD01CD01CD01CD01CD01CD01CD0166
:104AE000CD01CD01CD01CD01CD01CD01CD01CD0156
:104AF000CD01CD01CD01CD01CD01CD01CD01CD0146
:104B0000CD01CD01CD01CD01CD01CD01CD01CD0135
:104B1000CD01CD01CD01CD01CD01CD01CD01CD0125
:104B2000CD01CD01CD01CD01CD01CD01CD01CD0115
:104B3000CD01CD01CD01CD01CD01CD01CD01CD0105
:104B4000CD01CD01CD01CD01CD01CD01CD01CD01F5
:104B5000CD01CD01CD01CD01CD01CD01CD01CD01E5
:104B6000CD01CD01CD01CD01CD01CD01CD01CD01D5
:104B7000CD01CD01CD01CD01CD01CD01CD01CD01C5
:104B8000CD01CD01CD01AF01B0F5E06F00F0B480F3
:104B900016D9B0F5206F00F0B4805BD9B0F5306F56
:104BA00000F0B4806ED9B0F5386F00F0A080B0F599
:104BB000406F40F0B580002101A8FFF7C1FA6CE01A
:104BC000B0F5607F77D011D9B0F5B06F00F0858077
:104BD00035D9B0F5C06F00F08A80B0F5D06F40F0E5
:104BE0009F80002101A8FFF77BFB56E0B0F5007F16
:104BF0000AD16DF0FBFE04464FF40070FFF70CFE87
:104C0000B4FBF0F4019448E012D9B0F5207F47D00E
:104C1000B0F5407F40F084806DF00CFF04464FF407
:104C20002070FFF7F9FDB4FBF0F46408019434E060
:104C3000B0F5C07F74D16DF0FDFE01902DE0B0F5B0
:104C4000806F45D0B0F5A06F6AD1002101A8FFF7B1
:104C5000AFFA22E0B0F5086F04D1002101A8FFF7F8
:104C6000ADFC1AE0B0F5106F04D1002101A8FFF7E8
:104C700069FB12E0B0F5F06F52D1002101A8FFF7F7
:104C800045FC0AE0B0F5286F4AD1002101A8FFF7E2
:104C9000F1FB02E06DF0AAFE0190019802B010BD98
:104CA0006DF0C8FE04464FF42070FFF7B5FDB4FB6D
:104CB000F0F40194F1E700216846FFF7DDF9009C6C
:104CC0004FF46070FFF7A8FDB4FBF0F40194E4E743
:104CD000002101A8FFF7FAF9DFE7002101A8FFF79B
:104CE000A1FADAE7002101A853F03AFCD5E7002148
:104CF00001A8FFF7C9FAD0E7002101A8FFF754FB8C
:104D0000CBE7002101A8FFF77BFBC6E7002101A844
:104D1000FFF7D8FBC1E7002101A8FFF723FCBCE7A0
:104D200040F2AA41014852F048F8B6E7246D07085E
:104D300000B583B000230193B0F5807F00F053816C
:104D400018D9B0F5086F00F0588140F2DB80B0F55B
:104D5000306F00F0618140F20581B0F5386F00F0EE
:104D60004781B0F5406F40F0618101A90020FFF755
:104D7000E7F92FE1802800F259812428C0F05681FC
:104D800024385C2800F2528101A353F820F000BFC0
:104D9000DD4F0008DD4F0008DD4F0008DD4F000843
:104DA000DD4F0008DD4F0008CD4F00082D500008F2
:104DB000F14F00085B4F00082D5000082D500008EF
:104DC0002D5000082D5000082D5000082D500008CF
:104DD0002D5000082D5000082D5000082D500008BF
:104DE0002D500008F14F00082D5000082D500008EC
:104DF0002D5000081D4F0008055000082D500008D8
:104E00002D5000082D5000082D5000082D5000088E
:104E10002D5000082D5000082D5000082D5000087E
:104E20002D5000082D5000082D5000082D5000086E
:104E30006B4D00086B4D00082D5000082D500008E8
:104E40002D500008814F00082D5000082D500008FB
:104E50000F500008714F0008454F00086B4D0008C7
:104E60006B4D00082D5000082D5000082D500008F3
:104E70001D4F0008DD4F0008DD4F000823500008DB
:104E80002D5000082D5000082D5000082D5000080E
:104E90002D5000082D5000082D5000082D500008FE
:104EA0002D5000082D5000082D5000082D500008EE
:104EB0002D5000082D5000082D5000082D500008DE
:104EC0002D5000082D5000082D5000082D500008CE
:104ED0002D5000082D5000082D5000082D500008BE
:104EE0002D5000082D5000082D5000082D500008AE
:104EF0002D5000082D5000082D5000082D5000089E
:104F00008B4F0008B0F5B06F60D00CD9B0F5E06FF2
:104F100078D01CD9B0F5F06F40F0888001A900204E
:104F2000FFF7F4FA56E0B0F5607F04D101A9002044
:104F3000FFF7A2F84EE079D3B0F5806F4ED0B0F510
:104F4000A06F73D101A90020FFF732F942E0B0F55C
:104F5000C06F4DD0B0F5D06F68D101A90020FFF728
:104F6000BFF937E0B0F5206F51D0B0F5286F04D10C
:104F700001A90020FFF77EFA2CE0B0F5106F55D1A3
:104F800001A90020FFF7DEF924E02B4B1B6F03F093
:104F90000703013B042B13D8DFE803F00C030609D9
:104FA0000F000523019315E00323019312E008236A
:104FB00001930FE0022301930CE01923019309E010
:104FC00040F2DC411D4851F0F8FE03E001A9002049
:104FD000FFF728F9019803B05DF804FB01A9002050
:104FE000FFF774F8F6E701A9002053F0B9FAF1E7EA
:104FF00001A90020FFF748F9ECE701A90020FFF71D
:10500000DDFAE7E701A90020FFF7CEF9E2E701A901
:105010000020FFF7F5F9DDE701A90020FFF752FABC
:10502000D8E701A90020FFF79DFAD3E740F28F519E
:10503000024851F0C2FECDE700800050246D070801
:10504000094B596E03F580534FF480325A66074A74
:10505000536A23F00103536211F4803F03D1044BE0
:105060004FF480325A6670470080005000C00750ED
:1050700000A00050274B4FF000429A66264B45F6A1
:105080000E021A6303F580520221D16003F500532A
:105090000122DA60204B1B6913F4003FFAD1026849
:1050A0001E4B9A4231D01E4B4FF40072DA611A4BFC
:1050B0001B6913F0804FFAD1174AD36823F0FF73AE
:1050C00023F4FF3323F4897323F0010301680B43B6
:1050D000017943EA0113417943EA410381790B43A2
:1050E000D3600D4B1B6913F0804FFAD1837933B134
:1050F000094B1B6903F44033B3F5403FF8D1C37942
:1051000013B1054B074A1A637047074B4FF40072FF
:10511000DA61CCE7009000500040005700013600F3
:1051200000600057F1A7FFFF0050005710B504467C
:105130008020FFF7FDFD19283FD0E379083BDBB263
:10514000172B40D8237A043BDBB20B2B41D8637A70
:10515000203BDBB25F2B42D8244B4FF400729A669F
:10516000234A48F2A953C2F8B030536923F481733B
:10517000217943EA0123617943EA41035361916D47
:105180001C4B0B40E17943EA0143217A43EA0133A6
:10519000617A0B4393652068FDF766F863792BB15C
:1051A000134B1B6A03F00303032BF9D1A3791BB143
:1051B0000F4B114AC3F8B02010BD40F665310F48BF
:1051C00051F0FBFDB9E740F666310C4851F0F5FDB2
:1051D000B8E740F66731094851F0EFFDB7E740F610
:1051E0006831064851F0E9FDB6E700BF0090005075
:1051F00000800C50800FE0FFF1A7FFFF246D07082F
:1052000010B5044603680F2B00F2BA8063680F2BB9
:1052100000F2BC80A3680F2B00F2BE80237B0F2B13
:1052200000F2C080637B0F2B00F2C280A37B3F2B78
:1052300000F2C480E37B3F2B00F2C6802369032B7E
:1052400000F2C8806369032B00F2CA80E369032B74
:1052500000F2CC808020FFF76BFD032800F0EA808D
:10526000754B4FF480125A66744B45F60E02C3F824
:10527000802003F580524FF0A061916203F5005346
:105280004FF480329A626D4B9B6D13F4803FFAD1DC
:105290006A4B9B6D13F0804FFAD1226863681B053F
:1052A00043EA0263227B43EA0243627B43EA02331E
:1052B000A27B43EA8213E27B1343604A1361936942
:1052C00003F00043216943EA8163616943EA0163B2
:1052D000217E43EA0143617E43EA0123A17E0B4321
:1052E0009361136A23F00F03E269002A40F084807F
:1052F00011460B43E17E43EA81031A434F4B1A6286
:10530000E369002B7AD14D4A916A4D4B0B4094F8DA
:10531000201043EA411394F8211043EA011394F852
:10532000241043EAC10343F480339362434B9A6DE4
:10533000444B9343FAD1414A02F580514FF08073B8
:105340008B62136923F47003A06843EA005313616E
:105350004FF000438B6194F822301BB93A4B4FF069
:1053600080729A6294F82330002B5CD1364B4FF454
:1053700080329A62314B9B6D13F0804FFAD152E02C
:1053800040F69431314851F018FD3FE740F697312F
:105390002E4851F012FD3DE740F69A312B4851F06E
:1053A0000CFD3BE740F69D31284851F006FD39E7FA
:1053B0004FF43A61254851F000FD37E740F6A3313C
:1053C000224851F0FAFC35E740F6A6311F4851F06B
:1053D000F4FC33E740F6A9311C4851F0EEFC31E70C
:1053E00040F6AC31194851F0E8FC2FE740F6AF31F8
:1053F000164851F0E2FC2DE708217AE70F4A916A3E
:105400000F4B0B4094F8201043EA411394F82210FC
:1054100043EA016394F8241043EAC10394F823108B
:1054200043EA0143936294F825301BB1034B084AC9
:10543000C3F8802010BD00BF009000500040005A0B
:10544000C7FFFEFE030001000060005A246D07083C
:10545000F1A7FFFF014B93F9000070470E66002093
:1054600010B504464368072B46D8A368032B49D8D8
:105470002378032B4CD894F90130002B4EDB637852
:105480004F2B28BF4F231A46274B4FF40001596674
:1054900003F5B8334FF4D151596203F5805102201E
:1054A000486003F5005301215960204B1B6913F438
:1054B000803FFAD1237842EA03231C4A5361616892
:1054C000A3681B0143EA0123217B43EA4103617B7B
:1054D0000B439360A17BE37B1B0143EA4113217CD7
:1054E00043EA4103617C0B435360A37C1BB1134629
:1054F0006FF4D1525A6210BD40F6F2510C4851F08F
:105500005CFCB2E740F6F451094851F056FCAFE7B5
:1055100040F6F651064851F050FCACE740F6F85121
:10552000034851F04AFCAAE70090005000000250E6
:10553000246D0708014B1880704700BF32650020BA
:10554000014B1880704700BF3065002038B5B0F5BA
:10555000207F69D029D8B0F5007F52D075D810B11E
:10556000B0F5C07F71D14C1E012C0BD9102904D885
:10557000394BCB4013F0010F04D140F2CF21374813
:1055800051F01BFC53F00AF853F01AF8344A136F29
:1055900023F4704343EA043313676DF04BFA0021A0
:1055A00053F003F800F06EF838BDB0F5607F4CD1D1
:1055B0002C4BD3F8FC5015F0807506D01A46D3F862
:1055C000FC3023F08073C2F8FC304C1E032C12D840
:1055D000234AD2F8803023F0300343EA0413C2F8A0
:1055E0008030002DE0D01F4AD2F8FC3043F08073A9
:1055F000C2F8FC30D8E74FF43F71184851F0DDFB9A
:10560000E6E74C1E1F2C09D8154AD2F8903023F03B
:10561000F85343EA0463C2F89030C5E740F2123110
:105620000E4851F0CAFBEFE74C1E012C07D80C4A7C
:10563000136F23F4806343EA84231367B4E74FF4C2
:105640004671064851F0B9FBF1E740F21E310348BC
:1056500051F0B3FBA8E700BF10010100246D07085B
:105660000080005000ED00E008B54FF42070FFF717
:10567000D3F8034B187052F091FF52F0A1FF08BD10
:10568000D54F002008B54FF4C070FFF76DF9054BFA
:10569000984205D902214FF42070FFF757FF08BD4B
:1056A0000121F8E780F0FA0210B504466DF0C2F966
:1056B000002152F07AFF14B1FFF7E4FF10BD034B55
:1056C00019784FF42070FFF741FFF7E7D54F00201E
:1056D000F8B50546FEF79EFF0446431E13F1030F7F
:1056E0002ED8324B4FF4C0225A6603F598335B68CC
:1056F000012B2BD08020FFF71BFB05282FD024F097
:1057000040742B4B9D422FD02A4B9D422FD02A4BC9
:10571000DB6813F0060FFAD1274B9F689C6004F4F6
:10572000F8149E6806F4F816B44223D1B44227D088
:10573000214B9F608020FFF7FBFA052824D0F8BD9D
:1057400040F6EC111D4851F038FBCAE71C4B012212
:105750005A601C4B5B6813F0020FFAD1CAE752F093
:105760001DFF52F02DFFCAE744F00074CFE744F06C
:105770008074CCE740F63421104851F01EFBD5E789
:105780002846FCF759FDD5E76DF054F904468542EB
:1057900006D30021204652F008FFFFF773FFCEE743
:1057A00040F64521054851F008FBF2E70090005013
:1057B00040420F0080841E0000000150246D070845
:1057C00000E0015000C0015038B50546FEF7AEFFBD
:1057D0000446431E13F1030F0FD80E4B4FF4002263
:1057E0005A6624F040740C4A95420CD00B4A9542FC
:1057F0000CD04FF0B442946038BD40F69271084826
:1058000051F0DBFAE9E744F00074F2E744F0807409
:10581000EFE700BF0090005040420F0080841E0060
:10582000246D0708034AD36E23F0300301790B433C
:10583000D36670470040005038B52F4B4FF0004200
:105840005A6603F50B235C6C04F001044AF6CD3272
:105850001A64E8B9294B9B6B13F00103FAD1274A6C
:10586000556815F0010539D002F50052012151604B
:105870001A462249496B11F0010F04D120498A428E
:1058800001D80132F5E71E498A422FD81D4625E08E
:1058900000231A4A526B12F0080F04D0184A9342A0
:1058A00001D80133F5E7164A934221D8134B03F58B
:1058B00000522021D16203F5805301225A60002357
:1058C00000E001330D4AD26A12F0200F02D10C4AD7
:1058D0009342F6D90A4A93420CD8002514B1074BDB
:1058E000084A1A645EF0DAFD284638BD0725F5E758
:1058F0000725F3E70725F1E7009000500040095025
:105900003F420F003254FFFF10B51C4B4FF00042D6
:105910005A6603F50B235C6C04F001044AF6CD32A1
:105920001A6443785B0043F00103154AD363154BB7
:105930009B6B13F00B0FFAD1124A536823F4F873E0
:10594000817843EA01135360C178437943EA012324
:1059500043F09003D3600179837943EA012343F054
:10596000300353610078FFF767FF14B1054B064A17
:105970001A645EF093FD012010BD00BF009000503E
:1059800000400050004009503254FFFF10B5134B47
:105990005C6E03F580534FF000425A6603F50B230B
:1059A0005A6C02F001024AF6CD3119640C4B9B6B24
:1059B00013F0800FFAD10A494B6A23F4F85343EAF3
:1059C00000234B620AB1074A0A64002C03DB064B32
:1059D0004FF000425A665EF061FD10BD008000503D
:1059E000004009503254FFFF00A0005008B5114B91
:1059F000984215D0104B984214D003F5804398423A
:105A000012D003F58043984210D003F580439842AA
:105A10000ED040F27931094851F0CFF9002008BD8D
:105A20005620FCE75720FAE75820F8E74C20F6E725
:105A30004D20F4E70000015B00000A50906D07085C
:105A400010B5044652F0C3FD042307E004F580536B
:105A500004221A6104F500531A610B46591E002BEB
:105A6000F4D1202323610023E360A36041F202020A
:105A70006261A361A3654FF4A0226262E3612362C5
:105A8000A362E3626363236504F500520149D164B4
:105A9000236310BDFF3F0D0338B504460D461D4B73
:105AA000984213D01C4B984210D003F58043984283
:105AB0000CD003F58043984208D003F58043984208
:105AC00004D040F26911154851F077F9F5B104F5A9
:105AD000805301225A6005F00F02636DC3F30B037C
:105AE000002BFAD1A263636D13F07803FBD115F09C
